{
  "contractName": "ContractController",
  "abi": [
    {
      "anonymous": false,
      "inputs": [
        {
          "indexed": false,
          "internalType": "address",
          "name": "contractAddress",
          "type": "address"
        }
      ],
      "name": "contractInitialized",
      "type": "event"
    },
    {
      "anonymous": false,
      "inputs": [
        {
          "indexed": false,
          "internalType": "address",
          "name": "party",
          "type": "address"
        },
        {
          "indexed": false,
          "internalType": "address",
          "name": "contractAddress",
          "type": "address"
        }
      ],
      "name": "contractRejectedByParty",
      "type": "event"
    },
    {
      "anonymous": false,
      "inputs": [
        {
          "indexed": false,
          "internalType": "address",
          "name": "contractAddress",
          "type": "address"
        }
      ],
      "name": "finalApprovalCompleted",
      "type": "event"
    },
    {
      "anonymous": false,
      "inputs": [
        {
          "indexed": false,
          "internalType": "address",
          "name": "party",
          "type": "address"
        },
        {
          "indexed": false,
          "internalType": "address",
          "name": "contractAddress",
          "type": "address"
        }
      ],
      "name": "partyApproved",
      "type": "event"
    },
    {
      "anonymous": false,
      "inputs": [
        {
          "indexed": false,
          "internalType": "address",
          "name": "contractAddress",
          "type": "address"
        }
      ],
      "name": "paymentExecuted",
      "type": "event"
    },
    {
      "inputs": [],
      "name": "getContractStage",
      "outputs": [
        {
          "internalType": "uint256",
          "name": "",
          "type": "uint256"
        }
      ],
      "stateMutability": "view",
      "type": "function"
    },
    {
      "inputs": [],
      "name": "viewContractData",
      "outputs": [
        {
          "components": [
            {
              "internalType": "bool",
              "name": "isPayable",
              "type": "bool"
            },
            {
              "internalType": "uint256",
              "name": "expiryTime",
              "type": "uint256"
            },
            {
              "internalType": "uint256[]",
              "name": "fundDistribution",
              "type": "uint256[]"
            },
            {
              "internalType": "address",
              "name": "initiatingParty",
              "type": "address"
            },
            {
              "internalType": "address[]",
              "name": "parties",
              "type": "address[]"
            },
            {
              "internalType": "string",
              "name": "contractName",
              "type": "string"
            },
            {
              "internalType": "string",
              "name": "document",
              "type": "string"
            }
          ],
          "internalType": "struct IContractInit.CompleteContractData",
          "name": "",
          "type": "tuple"
        }
      ],
      "stateMutability": "view",
      "type": "function"
    },
    {
      "inputs": [
        {
          "components": [
            {
              "internalType": "bool",
              "name": "isPayable",
              "type": "bool"
            },
            {
              "internalType": "uint256",
              "name": "expiryTime",
              "type": "uint256"
            },
            {
              "internalType": "uint256[]",
              "name": "fundDistribution",
              "type": "uint256[]"
            },
            {
              "internalType": "address",
              "name": "initiatingParty",
              "type": "address"
            },
            {
              "internalType": "address[]",
              "name": "parties",
              "type": "address[]"
            },
            {
              "internalType": "string",
              "name": "contractName",
              "type": "string"
            },
            {
              "internalType": "string",
              "name": "document",
              "type": "string"
            }
          ],
          "internalType": "struct IContractInit.CompleteContractData",
          "name": "_contractData",
          "type": "tuple"
        },
        {
          "internalType": "address",
          "name": "_daiTokenAddress",
          "type": "address"
        }
      ],
      "name": "initialize",
      "outputs": [],
      "stateMutability": "nonpayable",
      "type": "function"
    },
    {
      "inputs": [],
      "name": "finalApproval",
      "outputs": [],
      "stateMutability": "nonpayable",
      "type": "function"
    }
  ],
  "bytecode": "0x608060405260008060006101000a81548160ff0219169083600481111561004f577f4e487b7100000000000000000000000000000000000000000000000000000000600052602160045260246000fd5b021790555034801561006057600080fd5b50611f19806100706000396000f3fe608060405234801561001057600080fd5b506004361061004c5760003560e01c806319ffb96014610051578063345162031461006d5780638f96e85014610077578063f10746f414610095575b600080fd5b61006b60048036038101906100669190610e8c565b6100b3565b005b61007561035b565b005b61007f610481565b60405161008c9190611251565b60405180910390f35b61009d61088f565b6040516100aa9190611273565b60405180910390f35b600060029054906101000a900460ff166100dd57600060019054906101000a900460ff16156100e6565b6100e5610a4a565b5b610125576040517f08c379a000000000000000000000000000000000000000000000000000000000815260040161011c90611211565b60405180910390fd5b60008060029054906101000a900460ff161590508015610176576001600060026101000a81548160ff0219169083151502179055506001600060016101000a81548160ff0219169083151502179055505b82600181816101859190611e1e565b90505081600860006101000a81548173ffffffffffffffffffffffffffffffffffffffff021916908373ffffffffffffffffffffffffffffffffffffffff1602179055508260000160208101906101dc9190610e3a565b156102fe5760005b8380604001906101f491906112e5565b90508110156102fc5783806040019061020d91906112e5565b82818110610244577f4e487b7100000000000000000000000000000000000000000000000000000000600052603260045260246000fd5b90506020020135600a600086806080019061025f919061128e565b85818110610296577f4e487b7100000000000000000000000000000000000000000000000000000000600052603260045260246000fd5b90506020020160208101906102ab9190610e11565b73ffffffffffffffffffffffffffffffffffffffff1673ffffffffffffffffffffffffffffffffffffffff1681526020019081526020016000208190555080806102f49061193f565b9150506101e4565b505b7f3862dd748e1ca79fcd6f7cfb2a40db495da62a25761b04bdddbb073b0e548cd63060405161032d919061118d565b60405180910390a180156103565760008060026101000a81548160ff0219169083151502179055505b505050565b600160030160009054906101000a900473ffffffffffffffffffffffffffffffffffffffff1673ffffffffffffffffffffffffffffffffffffffff163373ffffffffffffffffffffffffffffffffffffffff16146103ee576040517f08c379a00000000000000000000000000000000000000000000000000000000081526004016103e5906111f1565b60405180910390fd5b600115156103fa610a5b565b15151461043c576040517f08c379a0000000000000000000000000000000000000000000000000000000008152600401610433906111d1565b60405180910390fd5b6001600860146101000a81548160ff02191690831515021790555060011515600160000160009054906101000a900460ff161515141561047f5761047e610b59565b5b565b610489610d62565b60003373ffffffffffffffffffffffffffffffffffffffff16600160030160009054906101000a900473ffffffffffffffffffffffffffffffffffffffff1673ffffffffffffffffffffffffffffffffffffffff1614156104ed57600190506105b7565b60005b6001600401805490508110156105b5573373ffffffffffffffffffffffffffffffffffffffff1660016004018281548110610554577f4e487b7100000000000000000000000000000000000000000000000000000000600052603260045260246000fd5b9060005260206000200160009054906101000a900473ffffffffffffffffffffffffffffffffffffffff1673ffffffffffffffffffffffffffffffffffffffff1614156105a457600191506105b5565b806105ae9061193f565b90506104f0565b505b806105f7576040517f08c379a00000000000000000000000000000000000000000000000000000000081526004016105ee90611231565b60405180910390fd5b60016040518060e00160405290816000820160009054906101000a900460ff16151515158152602001600182015481526020016002820180548060200260200160405190810160405280929190818152602001828054801561067857602002820191906000526020600020905b815481526020019060010190808311610664575b505050505081526020016003820160009054906101000a900473ffffffffffffffffffffffffffffffffffffffff1673ffffffffffffffffffffffffffffffffffffffff1673ffffffffffffffffffffffffffffffffffffffff1681526020016004820180548060200260200160405190810160405280929190818152602001828054801561075c57602002820191906000526020600020905b8160009054906101000a900473ffffffffffffffffffffffffffffffffffffffff1673ffffffffffffffffffffffffffffffffffffffff1681526020019060010190808311610712575b50505050508152602001600582018054610775906118f1565b80601f01602080910402602001604051908101604052809291908181526020018280546107a1906118f1565b80156107ee5780601f106107c3576101008083540402835291602001916107ee565b820191906000526020600020905b8154815290600101906020018083116107d157829003601f168201915b50505050508152602001600682018054610807906118f1565b80601f0160208091040260200160405190810160405280929190818152602001828054610833906118f1565b80156108805780601f1061085557610100808354040283529160200191610880565b820191906000526020600020905b81548152906001019060200180831161086357829003601f168201915b50505050508152505091505090565b6000803373ffffffffffffffffffffffffffffffffffffffff16600160030160009054906101000a900473ffffffffffffffffffffffffffffffffffffffff1673ffffffffffffffffffffffffffffffffffffffff1614156108f457600190506109be565b60005b6001600401805490508110156109bc573373ffffffffffffffffffffffffffffffffffffffff166001600401828154811061095b577f4e487b7100000000000000000000000000000000000000000000000000000000600052603260045260246000fd5b9060005260206000200160009054906101000a900473ffffffffffffffffffffffffffffffffffffffff1673ffffffffffffffffffffffffffffffffffffffff1614156109ab57600191506109bc565b806109b59061193f565b90506108f7565b505b806109fe576040517f08c379a00000000000000000000000000000000000000000000000000000000081526004016109f590611231565b60405180910390fd5b60008054906101000a900460ff166004811115610a44577f4e487b7100000000000000000000000000000000000000000000000000000000600052602160045260246000fd5b91505090565b6000610a5530610d3f565b15905090565b6000806001905060005b600160040180549050811015610b5157600015156009600060016004018481548110610aba577f4e487b7100000000000000000000000000000000000000000000000000000000600052603260045260246000fd5b9060005260206000200160009054906101000a900473ffffffffffffffffffffffffffffffffffffffff1673ffffffffffffffffffffffffffffffffffffffff1673ffffffffffffffffffffffffffffffffffffffff16815260200190815260200160002060009054906101000a900460ff1615151415610b3e5760009150610b51565b8080610b499061193f565b915050610a65565b508091505090565b60005b600160040180549050811015610d3c57600860009054906101000a900473ffffffffffffffffffffffffffffffffffffffff1673ffffffffffffffffffffffffffffffffffffffff1663a9059cbb60016004018381548110610be7577f4e487b7100000000000000000000000000000000000000000000000000000000600052603260045260246000fd5b9060005260206000200160009054906101000a900473ffffffffffffffffffffffffffffffffffffffff16600a600060016004018681548110610c53577f4e487b7100000000000000000000000000000000000000000000000000000000600052603260045260246000fd5b9060005260206000200160009054906101000a900473ffffffffffffffffffffffffffffffffffffffff1673ffffffffffffffffffffffffffffffffffffffff1673ffffffffffffffffffffffffffffffffffffffff168152602001908152602001600020546040518363ffffffff1660e01b8152600401610cd69291906111a8565b602060405180830381600087803b158015610cf057600080fd5b505af1158015610d04573d6000803e3d6000fd5b505050506040513d601f19601f82011682018060405250810190610d289190610e63565b508080610d349061193f565b915050610b5c565b50565b6000808273ffffffffffffffffffffffffffffffffffffffff163b119050919050565b6040518060e001604052806000151581526020016000815260200160608152602001600073ffffffffffffffffffffffffffffffffffffffff1681526020016060815260200160608152602001606081525090565b600081359050610dc681611e99565b92915050565b600081359050610ddb81611eb0565b92915050565b600081519050610df081611eb0565b92915050565b600060e08284031215610e0857600080fd5b81905092915050565b600060208284031215610e2357600080fd5b6000610e3184828501610db7565b91505092915050565b600060208284031215610e4c57600080fd5b6000610e5a84828501610dcc565b91505092915050565b600060208284031215610e7557600080fd5b6000610e8384828501610de1565b91505092915050565b60008060408385031215610e9f57600080fd5b600083013567ffffffffffffffff811115610eb957600080fd5b610ec585828601610df6565b9250506020610ed685828601610db7565b9150509250929050565b6000610eec8383610f10565b60208301905092915050565b6000610f04838361116f565b60208301905092915050565b610f19816114e6565b82525050565b610f28816114e6565b82525050565b6000610f398261143b565b610f4381856114a2565b9350610f4e836113c7565b8060005b83811015610f7f578151610f668882610ee0565b9750610f7183611488565b925050600181019050610f52565b5085935050505092915050565b6000610f978261145c565b610fa181856114b3565b9350610fac836113f6565b8060005b83811015610fdd578151610fc48882610ef8565b9750610fcf83611495565b925050600181019050610fb0565b5085935050505092915050565b610ff3816114f8565b82525050565b60006110048261147d565b61100e81856114c4565b935061101e8185602086016117d3565b61102781611b5b565b840191505092915050565b600061103f601d836114d5565b915061104a82611bab565b602082019050919050565b60006110626014836114d5565b915061106d82611bd4565b602082019050919050565b6000611085602e836114d5565b915061109082611bfd565b604082019050919050565b60006110a8601b836114d5565b91506110b382611c4c565b602082019050919050565b600060e0830160008301516110d66000860182610fea565b5060208301516110e9602086018261116f565b50604083015184820360408601526111018282610f8c565b91505060608301516111166060860182610f10565b506080830151848203608086015261112e8282610f2e565b91505060a083015184820360a08601526111488282610ff9565b91505060c083015184820360c08601526111628282610ff9565b9150508091505092915050565b61117881611524565b82525050565b61118781611524565b82525050565b60006020820190506111a26000830184610f1f565b92915050565b60006040820190506111bd6000830185610f1f565b6111ca602083018461117e565b9392505050565b600060208201905081810360008301526111ea81611032565b9050919050565b6000602082019050818103600083015261120a81611055565b9050919050565b6000602082019050818103600083015261122a81611078565b9050919050565b6000602082019050818103600083015261124a8161109b565b9050919050565b6000602082019050818103600083015261126b81846110be565b905092915050565b6000602082019050611288600083018461117e565b92915050565b600080833560016020038436030381126112a757600080fd5b80840192508235915067ffffffffffffffff8211156112c557600080fd5b6020830192506020820236038313156112dd57600080fd5b509250929050565b600080833560016020038436030381126112fe57600080fd5b80840192508235915067ffffffffffffffff82111561131c57600080fd5b60208301925060208202360383131561133457600080fd5b509250929050565b6000808335600160200384360303811261135557600080fd5b80840192508235915067ffffffffffffffff82111561137357600080fd5b60208301925060018202360383131561138b57600080fd5b509250929050565b60008190506001806001038301049050919050565b60008190506001806001038301049050919050565b6000819050919050565b6000819050602082019050919050565b60008190508160005260206000209050919050565b6000819050919050565b6000819050602082019050919050565b60008190508160005260206000209050919050565b60008190508160005260206000209050919050565b600082905092915050565b600081519050919050565b600081549050919050565b600082905092915050565b600081519050919050565b600081549050919050565b600082905092915050565b600081519050919050565b6000602082019050919050565b6000602082019050919050565b600082825260208201905092915050565b600082825260208201905092915050565b600082825260208201905092915050565b600082825260208201905092915050565b60006114f182611504565b9050919050565b60008115159050919050565b600073ffffffffffffffffffffffffffffffffffffffff82169050919050565b6000819050919050565b5b8181101561154d57611542600082611b93565b60018101905061152f565b5050565b5b8181101561157057611565600082611b93565b600181019050611552565b5050565b5b8181101561159357611588600082611b93565b600181019050611575565b5050565b60006115a2826115bb565b9050919050565b60006115b4826114f8565b9050919050565b60006115c6826115cd565b9050919050565b60006115d882611504565b9050919050565b60006115ea82611524565b9050919050565b6115fb8383611430565b6116058183611a93565b61160e836113bd565b611617836113d7565b6000805b84811015611652578361162d81611a51565b905061163a818486611e4f565b6020850194506001840193505060018101905061161b565b5050505050505050565b6116668383611451565b6116708183611af7565b611679836113ec565b61168283611406565b6000805b848110156116bd578361169881611a7d565b90506116a5818486611e74565b60208501945060018401935050600181019050611686565b5050505050505050565b6116d18383611472565b67ffffffffffffffff8111156116ea576116e9611a04565b5b6116f482546118f1565b600080601f8411601f841117156117115761170e8561141b565b90505b601f831115611744576020601f85010481016020851015611730578190505b6117426020601f860104830182611551565b505b601f841160018114611771576000851561175f578388013590505b6117698682611923565b8755506117c9565b601f1985168260005b8281101561179f57858a0135825560018201915060208601955060208101905061177a565b878310156117bc57858a01356117b8601f8a1682611988565b8355505b6001600289020189555050505b5050505050505050565b60005b838110156117f15780820151818401526020810190506117d6565b83811115611800576000848401525b50505050565b60008101600083018061181881611a67565b90506118248184611deb565b50505060018101602083018061183981611a7d565b90506118458184611e2c565b505050600281016040830161185a81856112e5565b611865818386611ddb565b5050505060038101606083018061187b81611a51565b90506118878184611da8565b505050600481016080830161189c818561128e565b6118a7818386611dcb565b505050506005810160a083016118bd818561133c565b6118c8818386611e0e565b505050506006810160c083016118de818561133c565b6118e9818386611e0e565b505050505050565b6000600282049050600182168061190957607f821691505b6020821081141561191d5761191c6119d5565b5b50919050565b600061192f8383611988565b9150826002028217905092915050565b600061194a82611524565b91507fffffffffffffffffffffffffffffffffffffffffffffffffffffffffffffffff82141561197d5761197c6119a6565b5b600182019050919050565b600061199960001984600802611b86565b1980831691505092915050565b7f4e487b7100000000000000000000000000000000000000000000000000000000600052601160045260246000fd5b7f4e487b7100000000000000000000000000000000000000000000000000000000600052602260045260246000fd5b7f4e487b7100000000000000000000000000000000000000000000000000000000600052604160045260246000fd5b6000819050919050565b6000819050919050565b6000819050919050565b60008135611a5e81611e99565b80915050919050565b60008135611a7481611eb0565b80915050919050565b60008135611a8a81611ec7565b80915050919050565b68010000000000000000821115611aad57611aac611a04565b5b611ab681611446565b82825580831015611af257611aca81611393565b611ad384611393565b611adc846113d7565b818101838201611aec818361152e565b50505050505b505050565b68010000000000000000821115611b1157611b10611a04565b5b611b1a81611467565b82825580831015611b5657611b2e816113a8565b611b37846113a8565b611b4084611406565b818101838201611b508183611574565b50505050505b505050565b6000601f19601f8301169050919050565b60008160001b9050919050565b600082821b905092915050565b600082821c905092915050565b611b9b611ede565b611ba6818484611e74565b505050565b7f416c6c20706172746965732068617665206e6f7420617070726f766564000000600082015250565b7f4e6f7420696e6974696174696e67207061727479000000000000000000000000600082015250565b7f496e697469616c697a61626c653a20636f6e747261637420697320616c72656160008201527f647920696e697469616c697a6564000000000000000000000000000000000000602082015250565b7f4e6f74206120706172747920746f2074686520636f6e74726163740000000000600082015250565b600060ff611c8284611b6c565b9350801983169250808416831791505092915050565b600073ffffffffffffffffffffffffffffffffffffffff611cb884611b6c565b9350801983169250808416831791505092915050565b60007fffffffffffffffffffffffffffffffffffffffffffffffffffffffffffffffff611cfa84611b6c565b9350801983169250808416831791505092915050565b600060088302611d3473ffffffffffffffffffffffffffffffffffffffff82611b79565b611d3e8683611b79565b95508019841693508086168417925050509392505050565b600060088302611d867fffffffffffffffffffffffffffffffffffffffffffffffffffffffffffffffff82611b79565b611d908683611b79565b95508019841693508086168417925050509392505050565b611db182611597565b611dc4611dbd82611a33565b8354611c98565b8255505050565b611dd68383836115f1565b505050565b611de683838361165c565b505050565b611df4826115a9565b611e07611e0082611a3d565b8354611c75565b8255505050565b611e198383836116c7565b505050565b611e288282611806565b5050565b611e35826115df565b611e48611e4182611a47565b8354611cce565b8255505050565b611e5883611597565b611e6c611e6482611a33565b848454611d10565b825550505050565b611e7d836115df565b611e91611e8982611a47565b848454611d56565b825550505050565b611ea2816114e6565b8114611ead57600080fd5b50565b611eb9816114f8565b8114611ec457600080fd5b50565b611ed081611524565b8114611edb57600080fd5b50565b60009056fea2646970667358221220e8eff59a68ef0d469588714aa7ed97f57b15194ec3399898b77b2b7bd679812764736f6c63430008020033",
  "immutableReferences": {},
  "source": "// SPDX-License-Identifier: MIT\npragma solidity ^0.8.2;\n\nimport \"@openzeppelin/contracts/token/ERC20/IERC20.sol\";\nimport \"@openzeppelin/contracts/proxy/utils/Initializable.sol\";\nimport \"./interfaces/IContractInit.sol\";\nimport \"./ContractStages.sol\";\n\ncontract ContractController is IContractInit, ContractStages, Initializable {\n    CompleteContractData contractData;\n    address daiTokenAddress;\n    bool isFinalApprovalCompleted;\n\n    mapping(address => bool) hasPartyApproved;\n    mapping(address => uint) fundDistribution;\n\n    event contractInitialized(address contractAddress);\n    event partyApproved(address party, address contractAddress);\n    event finalApprovalCompleted(address contractAddress);\n    event paymentExecuted(address contractAddress);\n    event contractRejectedByParty(address party, address contractAddress);\n\n    modifier onlyInitiator() {\n        require(msg.sender == contractData.initiatingParty, \"Not initiating party\");\n        _;\n    }\n\n    modifier onlyParty() {\n        bool isParty;\n        if (contractData.initiatingParty == msg.sender) {\n            isParty = true;\n        } else {\n            for (uint i = 0; i < contractData.parties.length; ++i) {\n                if (contractData.parties[i] == msg.sender) {\n                    isParty = true;\n                    break;\n                }\n            }\n        }\n        require(isParty, \"Not a party to the contract\");\n        _;\n    }\n\n    function getContractStage() external view onlyParty returns (uint) {\n        return uint(currentStage);\n    }\n\n    function viewContractData() external view onlyParty returns (CompleteContractData memory) {\n        return contractData;\n    }\n\n    function allPartiesApproved() private view returns(bool){\n        bool approved = true ;\n        for(uint i=0;i<contractData.parties.length;i++){\n            if(hasPartyApproved[contractData.parties[i]]==false){\n                approved = false;\n                break;\n            }\n            \n        }\n        return approved;\n    }\n    function makePayment() private {\n         for(uint i=0;i<contractData.parties.length;i++){\n             IERC20(daiTokenAddress).transfer(\n                 contractData.parties[i],\n                 fundDistribution[contractData.parties[i]]\n             );\n         }\n    }\n    function initialize(\n        CompleteContractData calldata _contractData,\n        address _daiTokenAddress\n    )\n        external \n        initializer\n    {\n        contractData = _contractData;\n        daiTokenAddress = _daiTokenAddress;\n        if (_contractData.isPayable) {\n            for (uint i=0; i < _contractData.fundDistribution.length; i++) {\n                fundDistribution[_contractData.parties[i]] = _contractData.fundDistribution[i];\n            }\n        }\n        emit contractInitialized(address(this));\n    }\n    function finalApproval() external onlyInitiator{\n        require(allPartiesApproved()==true,\"All parties have not approved\");\n        isFinalApprovalCompleted=true;\n        if(contractData.isPayable==true){\n            makePayment();\n        }\n    }\n    \n\n}",
  "sourcePath": "/Users/godsonprakasia/Desktop/Contract-Management-System-using-Blockchain/truffle/contracts/ContractController.sol",
  "compiler": {
    "name": "solc",
    "version": "0.8.2+commit.661d1103.Emscripten.clang"
  },
  "schemaVersion": "3.4.5",
  "updatedAt": "2022-03-07T05:29:54.520Z",
  "devdoc": {
    "kind": "dev",
    "methods": {},
    "version": 1
  },
  "userdoc": {
    "kind": "user",
    "methods": {},
    "version": 1
  }
}