{
  "contractName": "ContractController",
  "abi": [
    {
      "anonymous": false,
      "inputs": [
        {
          "indexed": false,
          "internalType": "address",
          "name": "contractAddress",
          "type": "address"
        }
      ],
      "name": "contractInitialized",
      "type": "event"
    },
    {
      "anonymous": false,
      "inputs": [
        {
          "indexed": false,
          "internalType": "address",
          "name": "party",
          "type": "address"
        },
        {
          "indexed": false,
          "internalType": "address",
          "name": "contractAddress",
          "type": "address"
        }
      ],
      "name": "contractRejectedByParty",
      "type": "event"
    },
    {
      "anonymous": false,
      "inputs": [
        {
          "indexed": false,
          "internalType": "address",
          "name": "contractAddress",
          "type": "address"
        }
      ],
      "name": "finalApprovalCompleted",
      "type": "event"
    },
    {
      "anonymous": false,
      "inputs": [
        {
          "indexed": false,
          "internalType": "address",
          "name": "party",
          "type": "address"
        },
        {
          "indexed": false,
          "internalType": "address",
          "name": "contractAddress",
          "type": "address"
        }
      ],
      "name": "partyApproved",
      "type": "event"
    },
    {
      "anonymous": false,
      "inputs": [
        {
          "indexed": false,
          "internalType": "address",
          "name": "contractAddress",
          "type": "address"
        }
      ],
      "name": "paymentExecuted",
      "type": "event"
    },
    {
      "inputs": [],
      "name": "getContractStage",
      "outputs": [
        {
          "internalType": "uint256",
          "name": "",
          "type": "uint256"
        }
      ],
      "stateMutability": "view",
      "type": "function"
    },
    {
      "inputs": [],
      "name": "viewContractData",
      "outputs": [
        {
          "components": [
            {
              "internalType": "bool",
              "name": "isPayable",
              "type": "bool"
            },
            {
              "internalType": "uint256",
              "name": "expiryTime",
              "type": "uint256"
            },
            {
              "internalType": "uint256[]",
              "name": "fundDistribution",
              "type": "uint256[]"
            },
            {
              "internalType": "address",
              "name": "initiatingParty",
              "type": "address"
            },
            {
              "internalType": "address[]",
              "name": "parties",
              "type": "address[]"
            },
            {
              "internalType": "string",
              "name": "contractName",
              "type": "string"
            },
            {
              "internalType": "string",
              "name": "document",
              "type": "string"
            }
          ],
          "internalType": "struct IContractInit.CompleteContractData",
          "name": "",
          "type": "tuple"
        }
      ],
      "stateMutability": "view",
      "type": "function"
    },
    {
      "inputs": [
        {
          "components": [
            {
              "internalType": "bool",
              "name": "isPayable",
              "type": "bool"
            },
            {
              "internalType": "uint256",
              "name": "expiryTime",
              "type": "uint256"
            },
            {
              "internalType": "uint256[]",
              "name": "fundDistribution",
              "type": "uint256[]"
            },
            {
              "internalType": "address",
              "name": "initiatingParty",
              "type": "address"
            },
            {
              "internalType": "address[]",
              "name": "parties",
              "type": "address[]"
            },
            {
              "internalType": "string",
              "name": "contractName",
              "type": "string"
            },
            {
              "internalType": "string",
              "name": "document",
              "type": "string"
            }
          ],
          "internalType": "struct IContractInit.CompleteContractData",
          "name": "_contractData",
          "type": "tuple"
        },
        {
          "internalType": "address",
          "name": "_daiTokenAddress",
          "type": "address"
        }
      ],
      "name": "initialize",
      "outputs": [],
      "stateMutability": "nonpayable",
      "type": "function"
    },
    {
      "inputs": [],
      "name": "approveContract",
      "outputs": [],
      "stateMutability": "nonpayable",
      "type": "function"
    },
    {
      "inputs": [],
      "name": "rejectContract",
      "outputs": [],
      "stateMutability": "nonpayable",
      "type": "function"
    },
    {
      "inputs": [],
      "name": "finalApproval",
      "outputs": [],
      "stateMutability": "nonpayable",
      "type": "function"
    }
  ],
  "bytecode": "0x608060405260008060006101000a81548160ff0219169083600481111561004f577f4e487b7100000000000000000000000000000000000000000000000000000000600052602160045260246000fd5b021790555034801561006057600080fd5b506126d1806100706000396000f3fe608060405234801561001057600080fd5b50600436106100625760003560e01c806319ffb9601461006757806331c84ea614610083578063345162031461008d57806343d00d04146100975780638f96e850146100a1578063f10746f4146100bf575b600080fd5b610081600480360381019061007c9190611481565b6100dd565b005b61008b61038d565b005b61009561053f565b005b61009f6106ae565b005b6100a96108b0565b6040516100b69190611938565b60405180910390f35b6100c7610b4f565b6040516100d4919061195a565b60405180910390f35b600060029054906101000a900460ff1661010757600060019054906101000a900460ff1615610110565b61010f610d0a565b5b61014f576040517f08c379a0000000000000000000000000000000000000000000000000000000008152600401610146906118d8565b60405180910390fd5b60008060029054906101000a900460ff1615905080156101a0576001600060026101000a81548160ff0219169083151502179055506001600060016101000a81548160ff0219169083151502179055505b82600181816101af91906125d6565b90505081600860006101000a81548173ffffffffffffffffffffffffffffffffffffffff021916908373ffffffffffffffffffffffffffffffffffffffff160217905550826000016020810190610206919061142f565b156103285760005b83806040019061021e91906119cc565b90508110156103265783806040019061023791906119cc565b8281811061026e577f4e487b7100000000000000000000000000000000000000000000000000000000600052603260045260246000fd5b90506020020135600a60008680608001906102899190611975565b858181106102c0577f4e487b7100000000000000000000000000000000000000000000000000000000600052603260045260246000fd5b90506020020160208101906102d59190611406565b73ffffffffffffffffffffffffffffffffffffffff1673ffffffffffffffffffffffffffffffffffffffff16815260200190815260200160002081905550808061031e9061207c565b91505061020e565b505b610330610d1b565b7f3862dd748e1ca79fcd6f7cfb2a40db495da62a25761b04bdddbb073b0e548cd63060405161035f91906117eb565b60405180910390a180156103885760008060026101000a81548160ff0219169083151502179055505b505050565b60003373ffffffffffffffffffffffffffffffffffffffff16600160030160009054906101000a900473ffffffffffffffffffffffffffffffffffffffff1673ffffffffffffffffffffffffffffffffffffffff1614156103f157600190506104bb565b60005b6001600401805490508110156104b9573373ffffffffffffffffffffffffffffffffffffffff1660016004018281548110610458577f4e487b7100000000000000000000000000000000000000000000000000000000600052603260045260246000fd5b9060005260206000200160009054906101000a900473ffffffffffffffffffffffffffffffffffffffff1673ffffffffffffffffffffffffffffffffffffffff1614156104a857600191506104b9565b806104b29061207c565b90506103f4565b505b806104fb576040517f08c379a00000000000000000000000000000000000000000000000000000000081526004016104f2906118f8565b60405180910390fd5b610503610e8a565b7fbae8547f50c16c22426d683b8d9d608d52e192e6acbf7bc7b8f6889fcd1fbb6d3330604051610534929190611806565b60405180910390a150565b600160030160009054906101000a900473ffffffffffffffffffffffffffffffffffffffff1673ffffffffffffffffffffffffffffffffffffffff163373ffffffffffffffffffffffffffffffffffffffff16146105d2576040517f08c379a00000000000000000000000000000000000000000000000000000000081526004016105c990611898565b60405180910390fd5b6105dc6001610f13565b600115156105e8610fd5565b15151461062a576040517f08c379a000000000000000000000000000000000000000000000000000000000815260040161062190611878565b60405180910390fd5b6001600860146101000a81548160ff02191690831515021790555060011515600160000160009054906101000a900460ff161515141561066d5761066c6110d3565b5b610675610d1b565b7f652558422eb93dbb1c6760141371fc8419f87938d1fa47dec3e6614ce07f72a5306040516106a491906117eb565b60405180910390a1565b60003373ffffffffffffffffffffffffffffffffffffffff16600160030160009054906101000a900473ffffffffffffffffffffffffffffffffffffffff1673ffffffffffffffffffffffffffffffffffffffff16141561071257600190506107dc565b60005b6001600401805490508110156107da573373ffffffffffffffffffffffffffffffffffffffff1660016004018281548110610779577f4e487b7100000000000000000000000000000000000000000000000000000000600052603260045260246000fd5b9060005260206000200160009054906101000a900473ffffffffffffffffffffffffffffffffffffffff1673ffffffffffffffffffffffffffffffffffffffff1614156107c957600191506107da565b806107d39061207c565b9050610715565b505b8061081c576040517f08c379a0000000000000000000000000000000000000000000000000000000008152600401610813906118f8565b60405180910390fd5b6001600960003373ffffffffffffffffffffffffffffffffffffffff1673ffffffffffffffffffffffffffffffffffffffff16815260200190815260200160002060006101000a81548160ff0219169083151502179055507f13a17564c18f94d8dc8dad308b368ddecc4b5869143a7e491b1eb6748ea7e67f33306040516108a5929190611806565b60405180910390a150565b6108b8611357565b60016040518060e00160405290816000820160009054906101000a900460ff16151515158152602001600182015481526020016002820180548060200260200160405190810160405280929190818152602001828054801561093957602002820191906000526020600020905b815481526020019060010190808311610925575b505050505081526020016003820160009054906101000a900473ffffffffffffffffffffffffffffffffffffffff1673ffffffffffffffffffffffffffffffffffffffff1673ffffffffffffffffffffffffffffffffffffffff16815260200160048201805480602002602001604051908101604052809291908181526020018280548015610a1d57602002820191906000526020600020905b8160009054906101000a900473ffffffffffffffffffffffffffffffffffffffff1673ffffffffffffffffffffffffffffffffffffffff16815260200190600101908083116109d3575b50505050508152602001600582018054610a369061202e565b80601f0160208091040260200160405190810160405280929190818152602001828054610a629061202e565b8015610aaf5780601f10610a8457610100808354040283529160200191610aaf565b820191906000526020600020905b815481529060010190602001808311610a9257829003601f168201915b50505050508152602001600682018054610ac89061202e565b80601f0160208091040260200160405190810160405280929190818152602001828054610af49061202e565b8015610b415780601f10610b1657610100808354040283529160200191610b41565b820191906000526020600020905b815481529060010190602001808311610b2457829003601f168201915b505050505081525050905090565b6000803373ffffffffffffffffffffffffffffffffffffffff16600160030160009054906101000a900473ffffffffffffffffffffffffffffffffffffffff1673ffffffffffffffffffffffffffffffffffffffff161415610bb45760019050610c7e565b60005b600160040180549050811015610c7c573373ffffffffffffffffffffffffffffffffffffffff1660016004018281548110610c1b577f4e487b7100000000000000000000000000000000000000000000000000000000600052603260045260246000fd5b9060005260206000200160009054906101000a900473ffffffffffffffffffffffffffffffffffffffff1673ffffffffffffffffffffffffffffffffffffffff161415610c6b5760019150610c7c565b80610c759061207c565b9050610bb7565b505b80610cbe576040517f08c379a0000000000000000000000000000000000000000000000000000000008152600401610cb5906118f8565b60405180910390fd5b60008054906101000a900460ff166004811115610d04577f4e487b7100000000000000000000000000000000000000000000000000000000600052602160045260246000fd5b91505090565b6000610d1530611334565b15905090565b6002600160008054906101000a900460ff166004811115610d65577f4e487b7100000000000000000000000000000000000000000000000000000000600052602160045260246000fd5b610d6f9190611bcd565b1115610db0576040517f08c379a0000000000000000000000000000000000000000000000000000000008152600401610da790611858565b60405180910390fd5b600160008054906101000a900460ff166004811115610df8577f4e487b7100000000000000000000000000000000000000000000000000000000600052602160045260246000fd5b610e029190611bcd565b6004811115610e3a577f4e487b7100000000000000000000000000000000000000000000000000000000600052602160045260246000fd5b6000806101000a81548160ff02191690836004811115610e83577f4e487b7100000000000000000000000000000000000000000000000000000000600052602160045260246000fd5b0217905550565b600480811115610ec3577f4e487b7100000000000000000000000000000000000000000000000000000000600052602160045260246000fd5b6000806101000a81548160ff02191690836004811115610f0c577f4e487b7100000000000000000000000000000000000000000000000000000000600052602160045260246000fd5b0217905550565b806004811115610f4c577f4e487b7100000000000000000000000000000000000000000000000000000000600052602160045260246000fd5b60008054906101000a900460ff166004811115610f92577f4e487b7100000000000000000000000000000000000000000000000000000000600052602160045260246000fd5b14610fd2576040517f08c379a0000000000000000000000000000000000000000000000000000000008152600401610fc990611918565b60405180910390fd5b50565b6000806001905060005b6001600401805490508110156110cb57600015156009600060016004018481548110611034577f4e487b7100000000000000000000000000000000000000000000000000000000600052603260045260246000fd5b9060005260206000200160009054906101000a900473ffffffffffffffffffffffffffffffffffffffff1673ffffffffffffffffffffffffffffffffffffffff1673ffffffffffffffffffffffffffffffffffffffff16815260200190815260200160002060009054906101000a900460ff16151514156110b857600091506110cb565b80806110c39061207c565b915050610fdf565b508091505090565b60005b6001600401805490508110156112fa576000600860009054906101000a900473ffffffffffffffffffffffffffffffffffffffff1673ffffffffffffffffffffffffffffffffffffffff1663a9059cbb60016004018481548110611163577f4e487b7100000000000000000000000000000000000000000000000000000000600052603260045260246000fd5b9060005260206000200160009054906101000a900473ffffffffffffffffffffffffffffffffffffffff16600a6000600160040187815481106111cf577f4e487b7100000000000000000000000000000000000000000000000000000000600052603260045260246000fd5b9060005260206000200160009054906101000a900473ffffffffffffffffffffffffffffffffffffffff1673ffffffffffffffffffffffffffffffffffffffff1673ffffffffffffffffffffffffffffffffffffffff168152602001908152602001600020546040518363ffffffff1660e01b815260040161125292919061182f565b602060405180830381600087803b15801561126c57600080fd5b505af1158015611280573d6000803e3d6000fd5b505050506040513d601f19601f820116820180604052508101906112a49190611458565b9050806112e6576040517f08c379a00000000000000000000000000000000000000000000000000000000081526004016112dd906118b8565b60405180910390fd5b5080806112f29061207c565b9150506110d6565b507fdf8d8efd852d6ee5e48dcbe2ab0f55b5413c5d2c3839ee3aed11adab642d0c3e3060405161132a91906117eb565b60405180910390a1565b6000808273ffffffffffffffffffffffffffffffffffffffff163b119050919050565b6040518060e001604052806000151581526020016000815260200160608152602001600073ffffffffffffffffffffffffffffffffffffffff1681526020016060815260200160608152602001606081525090565b6000813590506113bb81612651565b92915050565b6000813590506113d081612668565b92915050565b6000815190506113e581612668565b92915050565b600060e082840312156113fd57600080fd5b81905092915050565b60006020828403121561141857600080fd5b6000611426848285016113ac565b91505092915050565b60006020828403121561144157600080fd5b600061144f848285016113c1565b91505092915050565b60006020828403121561146a57600080fd5b6000611478848285016113d6565b91505092915050565b6000806040838503121561149457600080fd5b600083013567ffffffffffffffff8111156114ae57600080fd5b6114ba858286016113eb565b92505060206114cb858286016113ac565b9150509250929050565b60006114e18383611505565b60208301905092915050565b60006114f983836117cd565b60208301905092915050565b61150e81611c23565b82525050565b61151d81611c23565b82525050565b600061152e82611b22565b6115388185611b89565b935061154383611aae565b8060005b8381101561157457815161155b88826114d5565b975061156683611b6f565b925050600181019050611547565b5085935050505092915050565b600061158c82611b43565b6115968185611b9a565b93506115a183611add565b8060005b838110156115d25781516115b988826114ed565b97506115c483611b7c565b9250506001810190506115a5565b5085935050505092915050565b6115e881611c35565b82525050565b60006115f982611b64565b6116038185611bab565b9350611613818560208601611f10565b61161c81612298565b840191505092915050565b6000611634600d83611bbc565b915061163f826122e8565b602082019050919050565b6000611657601d83611bbc565b915061166282612311565b602082019050919050565b600061167a601483611bbc565b91506116858261233a565b602082019050919050565b600061169d601383611bbc565b91506116a882612363565b602082019050919050565b60006116c0602e83611bbc565b91506116cb8261238c565b604082019050919050565b60006116e3601b83611bbc565b91506116ee826123db565b602082019050919050565b6000611706601583611bbc565b915061171182612404565b602082019050919050565b600060e08301600083015161173460008601826115df565b50602083015161174760208601826117cd565b506040830151848203604086015261175f8282611581565b91505060608301516117746060860182611505565b506080830151848203608086015261178c8282611523565b91505060a083015184820360a08601526117a682826115ee565b91505060c083015184820360c08601526117c082826115ee565b9150508091505092915050565b6117d681611c61565b82525050565b6117e581611c61565b82525050565b60006020820190506118006000830184611514565b92915050565b600060408201905061181b6000830185611514565b6118286020830184611514565b9392505050565b60006040820190506118446000830185611514565b61185160208301846117dc565b9392505050565b6000602082019050818103600083015261187181611627565b9050919050565b600060208201905081810360008301526118918161164a565b9050919050565b600060208201905081810360008301526118b18161166d565b9050919050565b600060208201905081810360008301526118d181611690565b9050919050565b600060208201905081810360008301526118f1816116b3565b9050919050565b60006020820190508181036000830152611911816116d6565b9050919050565b60006020820190508181036000830152611931816116f9565b9050919050565b60006020820190508181036000830152611952818461171c565b905092915050565b600060208201905061196f60008301846117dc565b92915050565b6000808335600160200384360303811261198e57600080fd5b80840192508235915067ffffffffffffffff8211156119ac57600080fd5b6020830192506020820236038313156119c457600080fd5b509250929050565b600080833560016020038436030381126119e557600080fd5b80840192508235915067ffffffffffffffff821115611a0357600080fd5b602083019250602082023603831315611a1b57600080fd5b509250929050565b60008083356001602003843603038112611a3c57600080fd5b80840192508235915067ffffffffffffffff821115611a5a57600080fd5b602083019250600182023603831315611a7257600080fd5b509250929050565b60008190506001806001038301049050919050565b60008190506001806001038301049050919050565b6000819050919050565b6000819050602082019050919050565b60008190508160005260206000209050919050565b6000819050919050565b6000819050602082019050919050565b60008190508160005260206000209050919050565b60008190508160005260206000209050919050565b600082905092915050565b600081519050919050565b600081549050919050565b600082905092915050565b600081519050919050565b600081549050919050565b600082905092915050565b600081519050919050565b6000602082019050919050565b6000602082019050919050565b600082825260208201905092915050565b600082825260208201905092915050565b600082825260208201905092915050565b600082825260208201905092915050565b6000611bd882611c61565b9150611be383611c61565b9250827fffffffffffffffffffffffffffffffffffffffffffffffffffffffffffffffff03821115611c1857611c176120e3565b5b828201905092915050565b6000611c2e82611c41565b9050919050565b60008115159050919050565b600073ffffffffffffffffffffffffffffffffffffffff82169050919050565b6000819050919050565b5b81811015611c8a57611c7f6000826122d0565b600181019050611c6c565b5050565b5b81811015611cad57611ca26000826122d0565b600181019050611c8f565b5050565b5b81811015611cd057611cc56000826122d0565b600181019050611cb2565b5050565b6000611cdf82611cf8565b9050919050565b6000611cf182611c35565b9050919050565b6000611d0382611d0a565b9050919050565b6000611d1582611c41565b9050919050565b6000611d2782611c61565b9050919050565b611d388383611b17565b611d4281836121d0565b611d4b83611aa4565b611d5483611abe565b6000805b84811015611d8f5783611d6a8161218e565b9050611d77818486612607565b60208501945060018401935050600181019050611d58565b5050505050505050565b611da38383611b38565b611dad8183612234565b611db683611ad3565b611dbf83611aed565b6000805b84811015611dfa5783611dd5816121ba565b9050611de281848661262c565b60208501945060018401935050600181019050611dc3565b5050505050505050565b611e0e8383611b59565b67ffffffffffffffff811115611e2757611e26612141565b5b611e31825461202e565b600080601f8411601f84111715611e4e57611e4b85611b02565b90505b601f831115611e81576020601f85010481016020851015611e6d578190505b611e7f6020601f860104830182611c8e565b505b601f841160018114611eae5760008515611e9c578388013590505b611ea68682612060565b875550611f06565b601f1985168260005b82811015611edc57858a01358255600182019150602086019550602081019050611eb7565b87831015611ef957858a0135611ef5601f8a16826120c5565b8355505b6001600289020189555050505b5050505050505050565b60005b83811015611f2e578082015181840152602081019050611f13565b83811115611f3d576000848401525b50505050565b600081016000830180611f55816121a4565b9050611f6181846125a3565b505050600181016020830180611f76816121ba565b9050611f8281846125e4565b5050506002810160408301611f9781856119cc565b611fa2818386612593565b50505050600381016060830180611fb88161218e565b9050611fc48184612560565b5050506004810160808301611fd98185611975565b611fe4818386612583565b505050506005810160a08301611ffa8185611a23565b6120058183866125c6565b505050506006810160c0830161201b8185611a23565b6120268183866125c6565b505050505050565b6000600282049050600182168061204657607f821691505b6020821081141561205a57612059612112565b5b50919050565b600061206c83836120c5565b9150826002028217905092915050565b600061208782611c61565b91507fffffffffffffffffffffffffffffffffffffffffffffffffffffffffffffffff8214156120ba576120b96120e3565b5b600182019050919050565b60006120d6600019846008026122c3565b1980831691505092915050565b7f4e487b7100000000000000000000000000000000000000000000000000000000600052601160045260246000fd5b7f4e487b7100000000000000000000000000000000000000000000000000000000600052602260045260246000fd5b7f4e487b7100000000000000000000000000000000000000000000000000000000600052604160045260246000fd5b6000819050919050565b6000819050919050565b6000819050919050565b6000813561219b81612651565b80915050919050565b600081356121b181612668565b80915050919050565b600081356121c78161267f565b80915050919050565b680100000000000000008211156121ea576121e9612141565b5b6121f381611b2d565b8282558083101561222f5761220781611a7a565b61221084611a7a565b61221984611abe565b8181018382016122298183611c6b565b50505050505b505050565b6801000000000000000082111561224e5761224d612141565b5b61225781611b4e565b828255808310156122935761226b81611a8f565b61227484611a8f565b61227d84611aed565b81810183820161228d8183611cb1565b50505050505b505050565b6000601f19601f8301169050919050565b60008160001b9050919050565b600082821b905092915050565b600082821c905092915050565b6122d8612696565b6122e381848461262c565b505050565b7f496e76616c696420737461676500000000000000000000000000000000000000600082015250565b7f416c6c20706172746965732068617665206e6f7420617070726f766564000000600082015250565b7f4e6f7420696e6974696174696e67207061727479000000000000000000000000600082015250565b7f444149207472616e73666572206661696c656400000000000000000000000000600082015250565b7f496e697469616c697a61626c653a20636f6e747261637420697320616c72656160008201527f647920696e697469616c697a6564000000000000000000000000000000000000602082015250565b7f4e6f74206120706172747920746f2074686520636f6e74726163740000000000600082015250565b7f4e6f7420696e2065787065637465642073746167650000000000000000000000600082015250565b600060ff61243a846122a9565b9350801983169250808416831791505092915050565b600073ffffffffffffffffffffffffffffffffffffffff612470846122a9565b9350801983169250808416831791505092915050565b60007fffffffffffffffffffffffffffffffffffffffffffffffffffffffffffffffff6124b2846122a9565b9350801983169250808416831791505092915050565b6000600883026124ec73ffffffffffffffffffffffffffffffffffffffff826122b6565b6124f686836122b6565b95508019841693508086168417925050509392505050565b60006008830261253e7fffffffffffffffffffffffffffffffffffffffffffffffffffffffffffffffff826122b6565b61254886836122b6565b95508019841693508086168417925050509392505050565b61256982611cd4565b61257c61257582612170565b8354612450565b8255505050565b61258e838383611d2e565b505050565b61259e838383611d99565b505050565b6125ac82611ce6565b6125bf6125b88261217a565b835461242d565b8255505050565b6125d1838383611e04565b505050565b6125e08282611f43565b5050565b6125ed82611d1c565b6126006125f982612184565b8354612486565b8255505050565b61261083611cd4565b61262461261c82612170565b8484546124c8565b825550505050565b61263583611d1c565b61264961264182612184565b84845461250e565b825550505050565b61265a81611c23565b811461266557600080fd5b50565b61267181611c35565b811461267c57600080fd5b50565b61268881611c61565b811461269357600080fd5b50565b60009056fea2646970667358221220d664a65005dd6ade18eb86eefc6660e4915f81624e70b829ea31723250a8a61a64736f6c63430008020033",
  "immutableReferences": {},
  "source": "// SPDX-License-Identifier: MIT\r\npragma solidity ^0.8.2;\r\n\r\nimport \"@openzeppelin/contracts/token/ERC20/IERC20.sol\";\r\nimport \"@openzeppelin/contracts/proxy/utils/Initializable.sol\";\r\nimport \"./interfaces/IContractInit.sol\";\r\nimport \"./ContractStages.sol\";\r\n\r\ncontract ContractController is IContractInit, ContractStages, Initializable {\r\n    CompleteContractData contractData;\r\n    address daiTokenAddress;\r\n    bool isFinalApprovalCompleted;\r\n\r\n    mapping(address => bool) hasPartyApproved;\r\n    mapping(address => uint) fundDistribution;\r\n\r\n    event contractInitialized(address contractAddress);\r\n    event partyApproved(address party, address contractAddress);\r\n    event finalApprovalCompleted(address contractAddress);\r\n    event paymentExecuted(address contractAddress);\r\n    event contractRejectedByParty(address party, address contractAddress);\r\n\r\n    modifier onlyInitiator() {\r\n        require(msg.sender == contractData.initiatingParty, \"Not initiating party\");\r\n        _;\r\n    }\r\n\r\n    modifier onlyParty() {\r\n        bool isParty;\r\n        if (contractData.initiatingParty == msg.sender) {\r\n            isParty = true;\r\n        } else {\r\n            for (uint i = 0; i < contractData.parties.length; ++i) {\r\n                if (contractData.parties[i] == msg.sender) {\r\n                    isParty = true;\r\n                    break;\r\n                }\r\n            }\r\n        }\r\n        require(isParty, \"Not a party to the contract\");\r\n        _;\r\n    }\r\n\r\n    function allPartiesApproved() private view returns(bool) {\r\n        bool approved = true ;\r\n        for(uint i=0;i<contractData.parties.length;i++){\r\n            if(hasPartyApproved[contractData.parties[i]]==false){\r\n                approved = false;\r\n                break;\r\n            }            \r\n        }\r\n        return approved;\r\n    }\r\n\r\n    function getContractStage() external view onlyParty returns (uint) {\r\n        return uint(currentStage);\r\n    }\r\n\r\n    function viewContractData() external view returns (CompleteContractData memory) {\r\n        return contractData;\r\n    }\r\n\r\n    function makePayment() private {\r\n        for (uint i=0; i < contractData.parties.length; i++) {\r\n            bool success = IERC20(daiTokenAddress).transfer(\r\n                contractData.parties[i],\r\n                fundDistribution[contractData.parties[i]]\r\n            );\r\n            require(success, \"DAI transfer failed\");\r\n        }\r\n        emit paymentExecuted(address(this));\r\n    }\r\n\r\n    function initialize(\r\n        CompleteContractData calldata _contractData,\r\n        address _daiTokenAddress\r\n    )\r\n        external \r\n        initializer\r\n    {\r\n        contractData = _contractData;\r\n        daiTokenAddress = _daiTokenAddress;\r\n        if (_contractData.isPayable) {\r\n            for (uint i=0; i < _contractData.fundDistribution.length; i++) {\r\n                fundDistribution[_contractData.parties[i]] = _contractData.fundDistribution[i];\r\n            }\r\n        }\r\n        _nextStage();\r\n        emit contractInitialized(address(this));\r\n    }\r\n    function approveContract() external onlyParty {\r\n        hasPartyApproved[msg.sender] = true;\r\n        emit partyApproved(msg.sender, address(this));  \r\n    } \r\n\r\n    function rejectContract() external onlyParty {\r\n        _goToRejected();\r\n        emit contractRejectedByParty(msg.sender, address(this));\r\n    }\r\n\r\n    function finalApproval() external onlyInitiator {\r\n        _atStage(ContractManagementStages.FinalApprovalPending);\r\n        require(allPartiesApproved() == true, \"All parties have not approved\");\r\n        isFinalApprovalCompleted = true;\r\n        if (contractData.isPayable == true) {\r\n            makePayment();\r\n        }\r\n        _nextStage();\r\n        emit finalApprovalCompleted(address(this));\r\n    } \r\n}",
  "sourcePath": "D:\\git\\Contract-Management-System-using-Blockchain\\truffle\\contracts\\ContractController.sol",
  "compiler": {
    "name": "solc",
    "version": "0.8.2+commit.661d1103.Emscripten.clang"
  },
  "schemaVersion": "3.4.1",
  "updatedAt": "2022-03-13T13:36:48.064Z",
  "devdoc": {
    "kind": "dev",
    "methods": {},
    "version": 1
  },
  "userdoc": {
    "kind": "user",
    "methods": {},
    "version": 1
  }
}