{
  "contractName": "ContractFactory",
  "abi": [
    {
      "inputs": [],
      "stateMutability": "nonpayable",
      "type": "constructor"
    },
    {
      "anonymous": false,
      "inputs": [
        {
          "indexed": false,
          "internalType": "uint256",
          "name": "",
          "type": "uint256"
        }
      ],
      "name": "createdNewDraftContract",
      "type": "event"
    },
    {
      "inputs": [],
      "name": "baseContract",
      "outputs": [
        {
          "internalType": "address",
          "name": "",
          "type": "address"
        }
      ],
      "stateMutability": "view",
      "type": "function"
    },
    {
      "inputs": [
        {
          "internalType": "uint256",
          "name": "",
          "type": "uint256"
        }
      ],
      "name": "contractsList",
      "outputs": [
        {
          "internalType": "uint256",
          "name": "id",
          "type": "uint256"
        },
        {
          "internalType": "address",
          "name": "contractAddress",
          "type": "address"
        },
        {
          "internalType": "address",
          "name": "initiatingParty",
          "type": "address"
        }
      ],
      "stateMutability": "view",
      "type": "function"
    },
    {
      "inputs": [],
      "name": "getContractsCount",
      "outputs": [
        {
          "internalType": "uint256",
          "name": "",
          "type": "uint256"
        }
      ],
      "stateMutability": "view",
      "type": "function"
    },
    {
      "inputs": [
        {
          "components": [
            {
              "internalType": "bool",
              "name": "isPayable",
              "type": "bool"
            },
            {
              "internalType": "uint256",
              "name": "expiryTime",
              "type": "uint256"
            },
            {
              "internalType": "uint256[]",
              "name": "fundDistribution",
              "type": "uint256[]"
            },
            {
              "internalType": "address",
              "name": "initiatingParty",
              "type": "address"
            },
            {
              "internalType": "address[]",
              "name": "parties",
              "type": "address[]"
            },
            {
              "internalType": "string",
              "name": "contractName",
              "type": "string"
            },
            {
              "internalType": "string",
              "name": "document",
              "type": "string"
            }
          ],
          "internalType": "struct IContractInit.CompleteContractData",
          "name": "_contractData",
          "type": "tuple"
        }
      ],
      "name": "initiateContract",
      "outputs": [],
      "stateMutability": "nonpayable",
      "type": "function"
    }
  ],
  "bytecode": "0x60a060405234801561001057600080fd5b5060405161001d90610075565b604051809103906000f080158015610039573d6000803e3d6000fd5b5073ffffffffffffffffffffffffffffffffffffffff1660808173ffffffffffffffffffffffffffffffffffffffff1660601b81525050610082565b6119d680610d4583390190565b60805160601c610c9f6100a66000396000818160e201526103440152610c9f6000f3fe608060405234801561001057600080fd5b506004361061004c5760003560e01c80634a43fc7d146100515780635b32619c1461006d5780639683584f1461008b578063f8079052146100a9575b600080fd5b61006b600480360381019061006691906105c2565b6100db565b005b610075610342565b6040516100829190610885565b60405180910390f35b610093610366565b6040516100a091906108e2565b60405180910390f35b6100c360048036038101906100be9190610603565b610372565b6040516100d2939291906108fd565b60405180910390f35b60006101067f00000000000000000000000000000000000000000000000000000000000000006103ec565b90506000604051806080016040528060008054905081526020018373ffffffffffffffffffffffffffffffffffffffff1681526020013373ffffffffffffffffffffffffffffffffffffffff1681526020018480608001906101689190610934565b80806020026020016040519081016040528093929190818152602001838360200280828437600081840152601f19601f8201169050808301925050505050505081525090806001815401808255809150506001900390600052602060002090600402016000909190919091506000820151816000015560208201518160010160006101000a81548173ffffffffffffffffffffffffffffffffffffffff021916908373ffffffffffffffffffffffffffffffffffffffff16021790555060408201518160020160006101000a81548173ffffffffffffffffffffffffffffffffffffffff021916908373ffffffffffffffffffffffffffffffffffffffff16021790555060608201518160030190805190602001906102889291906104c1565b5050508073ffffffffffffffffffffffffffffffffffffffff1663031e7999836040518263ffffffff1660e01b81526004016102c491906108c0565b600060405180830381600087803b1580156102de57600080fd5b505af11580156102f2573d6000803e3d6000fd5b505050507f4c9f2cb57a212dfc6f0c1077b5a129c78ad19ce9f28d69de66cede182e9f03aa60016000805490506103299190610b30565b60405161033691906108e2565b60405180910390a15050565b7f000000000000000000000000000000000000000000000000000000000000000081565b60008080549050905090565b6000818154811061038257600080fd5b90600052602060002090600402016000915090508060000154908060010160009054906101000a900473ffffffffffffffffffffffffffffffffffffffff16908060020160009054906101000a900473ffffffffffffffffffffffffffffffffffffffff16905083565b60006040517f3d602d80600a3d3981f3363d3d373d3d3d363d7300000000000000000000000081528260601b60148201527f5af43d82803e903d91602b57fd5bf3000000000000000000000000000000000060288201526037816000f0915050600073ffffffffffffffffffffffffffffffffffffffff168173ffffffffffffffffffffffffffffffffffffffff1614156104bc576040517f08c379a00000000000000000000000000000000000000000000000000000000081526004016104b3906108a0565b60405180910390fd5b919050565b82805482825590600052602060002090810192821561053a579160200282015b828111156105395782518260006101000a81548173ffffffffffffffffffffffffffffffffffffffff021916908373ffffffffffffffffffffffffffffffffffffffff160217905550916020019190600101906104e1565b5b509050610547919061054b565b5090565b5b8082111561056457600081600090555060010161054c565b5090565b60008135905061057781610c24565b92915050565b60008135905061058c81610c3b565b92915050565b600060e082840312156105a457600080fd5b81905092915050565b6000813590506105bc81610c52565b92915050565b6000602082840312156105d457600080fd5b600082013567ffffffffffffffff8111156105ee57600080fd5b6105fa84828501610592565b91505092915050565b60006020828403121561061557600080fd5b6000610623848285016105ad565b91505092915050565b60006106388383610644565b60208301905092915050565b61064d81610b64565b82525050565b61065c81610b64565b82525050565b600061066e83856109a2565b93506106798261098b565b8060005b858110156106b25761068f82846109e6565b610699888261062c565b97506106a483610995565b92505060018101905061067d565b5085925050509392505050565b60006106cb83856109b3565b93507f07ffffffffffffffffffffffffffffffffffffffffffffffffffffffffffffff8311156106fa57600080fd5b60208302925061070b838584610bac565b82840190509392505050565b61072081610b76565b82525050565b600061073283856109c4565b935061073f838584610bac565b61074883610bea565b840190509392505050565b60006107606016836109d5565b915061076b82610bfb565b602082019050919050565b600060e083016107896000840184610aab565b6107966000860182610717565b506107a46020840184610b19565b6107b16020860182610867565b506107bf6040840184610a54565b85830360408701526107d28382846106bf565b925050506107e360608401846109e6565b6107f06060860182610644565b506107fe60808401846109fd565b8583036080870152610811838284610662565b9250505061082260a0840184610ac2565b85830360a0870152610835838284610726565b9250505061084660c0840184610ac2565b85830360c0870152610859838284610726565b925050508091505092915050565b61087081610ba2565b82525050565b61087f81610ba2565b82525050565b600060208201905061089a6000830184610653565b92915050565b600060208201905081810360008301526108b981610753565b9050919050565b600060208201905081810360008301526108da8184610776565b905092915050565b60006020820190506108f76000830184610876565b92915050565b60006060820190506109126000830186610876565b61091f6020830185610653565b61092c6040830184610653565b949350505050565b6000808335600160200384360303811261094d57600080fd5b80840192508235915067ffffffffffffffff82111561096b57600080fd5b60208301925060208202360383131561098357600080fd5b509250929050565b6000819050919050565b6000602082019050919050565b600082825260208201905092915050565b600082825260208201905092915050565b600082825260208201905092915050565b600082825260208201905092915050565b60006109f56020840184610568565b905092915050565b60008083356001602003843603038112610a1657600080fd5b83810192508235915060208301925067ffffffffffffffff821115610a3a57600080fd5b602082023603841315610a4c57600080fd5b509250929050565b60008083356001602003843603038112610a6d57600080fd5b83810192508235915060208301925067ffffffffffffffff821115610a9157600080fd5b602082023603841315610aa357600080fd5b509250929050565b6000610aba602084018461057d565b905092915050565b60008083356001602003843603038112610adb57600080fd5b83810192508235915060208301925067ffffffffffffffff821115610aff57600080fd5b600182023603841315610b1157600080fd5b509250929050565b6000610b2860208401846105ad565b905092915050565b6000610b3b82610ba2565b9150610b4683610ba2565b925082821015610b5957610b58610bbb565b5b828203905092915050565b6000610b6f82610b82565b9050919050565b60008115159050919050565b600073ffffffffffffffffffffffffffffffffffffffff82169050919050565b6000819050919050565b82818337600083830152505050565b7f4e487b7100000000000000000000000000000000000000000000000000000000600052601160045260246000fd5b6000601f19601f8301169050919050565b7f455243313136373a20637265617465206661696c656400000000000000000000600082015250565b610c2d81610b64565b8114610c3857600080fd5b50565b610c4481610b76565b8114610c4f57600080fd5b50565b610c5b81610ba2565b8114610c6657600080fd5b5056fea264697066735822122072e6beb87ee0b4a330405871de26dcd429cb0fe6aea067e30b898b77a189b6e264736f6c63430008020033608060405260008060006101000a81548160ff0219169083600481111561004f577f4e487b7100000000000000000000000000000000000000000000000000000000600052602160045260246000fd5b021790555034801561006057600080fd5b50611966806100706000396000f3fe608060405234801561001057600080fd5b50600436106100415760003560e01c8063031e7999146100465780638f96e85014610062578063f10746f414610080575b600080fd5b610060600480360381019061005b91906109ed565b61009e565b005b61006a610304565b6040516100779190610cf0565b60405180910390f35b610088610712565b6040516100959190610d12565b60405180910390f35b600060029054906101000a900460ff166100c857600060019054906101000a900460ff16156100d1565b6100d06108cd565b5b610110576040517f08c379a000000000000000000000000000000000000000000000000000000000815260040161010790610cb0565b60405180910390fd5b60008060029054906101000a900460ff161590508015610161576001600060026101000a81548160ff0219169083151502179055506001600060016101000a81548160ff0219169083151502179055505b8160018181610170919061186b565b90505081600001602081019061018691906109c4565b156102a85760005b82806040019061019e9190610d84565b90508110156102a6578280604001906101b79190610d84565b828181106101ee577f4e487b7100000000000000000000000000000000000000000000000000000000600052603260045260246000fd5b90506020020135600960008580608001906102099190610d2d565b85818110610240577f4e487b7100000000000000000000000000000000000000000000000000000000600052603260045260246000fd5b9050602002016020810190610255919061099b565b73ffffffffffffffffffffffffffffffffffffffff1673ffffffffffffffffffffffffffffffffffffffff16815260200190815260200160002081905550808061029e906113de565b91505061018e565b505b7f3862dd748e1ca79fcd6f7cfb2a40db495da62a25761b04bdddbb073b0e548cd6306040516102d79190610c95565b60405180910390a180156103005760008060026101000a81548160ff0219169083151502179055505b5050565b61030c610901565b60003373ffffffffffffffffffffffffffffffffffffffff16600160030160009054906101000a900473ffffffffffffffffffffffffffffffffffffffff1673ffffffffffffffffffffffffffffffffffffffff161415610370576001905061043a565b60005b600160040180549050811015610438573373ffffffffffffffffffffffffffffffffffffffff16600160040182815481106103d7577f4e487b7100000000000000000000000000000000000000000000000000000000600052603260045260246000fd5b9060005260206000200160009054906101000a900473ffffffffffffffffffffffffffffffffffffffff1673ffffffffffffffffffffffffffffffffffffffff1614156104275760019150610438565b80610431906113de565b9050610373565b505b8061047a576040517f08c379a000000000000000000000000000000000000000000000000000000000815260040161047190610cd0565b60405180910390fd5b60016040518060e00160405290816000820160009054906101000a900460ff1615151515815260200160018201548152602001600282018054806020026020016040519081016040528092919081815260200182805480156104fb57602002820191906000526020600020905b8154815260200190600101908083116104e7575b505050505081526020016003820160009054906101000a900473ffffffffffffffffffffffffffffffffffffffff1673ffffffffffffffffffffffffffffffffffffffff1673ffffffffffffffffffffffffffffffffffffffff168152602001600482018054806020026020016040519081016040528092919081815260200182805480156105df57602002820191906000526020600020905b8160009054906101000a900473ffffffffffffffffffffffffffffffffffffffff1673ffffffffffffffffffffffffffffffffffffffff1681526020019060010190808311610595575b505050505081526020016005820180546105f890611390565b80601f016020809104026020016040519081016040528092919081815260200182805461062490611390565b80156106715780601f1061064657610100808354040283529160200191610671565b820191906000526020600020905b81548152906001019060200180831161065457829003601f168201915b5050505050815260200160068201805461068a90611390565b80601f01602080910402602001604051908101604052809291908181526020018280546106b690611390565b80156107035780601f106106d857610100808354040283529160200191610703565b820191906000526020600020905b8154815290600101906020018083116106e657829003601f168201915b50505050508152505091505090565b6000803373ffffffffffffffffffffffffffffffffffffffff16600160030160009054906101000a900473ffffffffffffffffffffffffffffffffffffffff1673ffffffffffffffffffffffffffffffffffffffff1614156107775760019050610841565b60005b60016004018054905081101561083f573373ffffffffffffffffffffffffffffffffffffffff16600160040182815481106107de577f4e487b7100000000000000000000000000000000000000000000000000000000600052603260045260246000fd5b9060005260206000200160009054906101000a900473ffffffffffffffffffffffffffffffffffffffff1673ffffffffffffffffffffffffffffffffffffffff16141561082e576001915061083f565b80610838906113de565b905061077a565b505b80610881576040517f08c379a000000000000000000000000000000000000000000000000000000000815260040161087890610cd0565b60405180910390fd5b60008054906101000a900460ff1660048111156108c7577f4e487b7100000000000000000000000000000000000000000000000000000000600052602160045260246000fd5b91505090565b60006108d8306108de565b15905090565b6000808273ffffffffffffffffffffffffffffffffffffffff163b119050919050565b6040518060e001604052806000151581526020016000815260200160608152602001600073ffffffffffffffffffffffffffffffffffffffff1681526020016060815260200160608152602001606081525090565b600081359050610965816118e6565b92915050565b60008135905061097a816118fd565b92915050565b600060e0828403121561099257600080fd5b81905092915050565b6000602082840312156109ad57600080fd5b60006109bb84828501610956565b91505092915050565b6000602082840312156109d657600080fd5b60006109e48482850161096b565b91505092915050565b6000602082840312156109ff57600080fd5b600082013567ffffffffffffffff811115610a1957600080fd5b610a2584828501610980565b91505092915050565b6000610a3a8383610a5e565b60208301905092915050565b6000610a528383610c77565b60208301905092915050565b610a6781610f85565b82525050565b610a7681610f85565b82525050565b6000610a8782610eda565b610a918185610f41565b9350610a9c83610e66565b8060005b83811015610acd578151610ab48882610a2e565b9750610abf83610f27565b925050600181019050610aa0565b5085935050505092915050565b6000610ae582610efb565b610aef8185610f52565b9350610afa83610e95565b8060005b83811015610b2b578151610b128882610a46565b9750610b1d83610f34565b925050600181019050610afe565b5085935050505092915050565b610b4181610f97565b82525050565b6000610b5282610f1c565b610b5c8185610f63565b9350610b6c818560208601611272565b610b75816115fa565b840191505092915050565b6000610b8d602e83610f74565b9150610b988261164a565b604082019050919050565b6000610bb0601b83610f74565b9150610bbb82611699565b602082019050919050565b600060e083016000830151610bde6000860182610b38565b506020830151610bf16020860182610c77565b5060408301518482036040860152610c098282610ada565b9150506060830151610c1e6060860182610a5e565b5060808301518482036080860152610c368282610a7c565b91505060a083015184820360a0860152610c508282610b47565b91505060c083015184820360c0860152610c6a8282610b47565b9150508091505092915050565b610c8081610fc3565b82525050565b610c8f81610fc3565b82525050565b6000602082019050610caa6000830184610a6d565b92915050565b60006020820190508181036000830152610cc981610b80565b9050919050565b60006020820190508181036000830152610ce981610ba3565b9050919050565b60006020820190508181036000830152610d0a8184610bc6565b905092915050565b6000602082019050610d276000830184610c86565b92915050565b60008083356001602003843603038112610d4657600080fd5b80840192508235915067ffffffffffffffff821115610d6457600080fd5b602083019250602082023603831315610d7c57600080fd5b509250929050565b60008083356001602003843603038112610d9d57600080fd5b80840192508235915067ffffffffffffffff821115610dbb57600080fd5b602083019250602082023603831315610dd357600080fd5b509250929050565b60008083356001602003843603038112610df457600080fd5b80840192508235915067ffffffffffffffff821115610e1257600080fd5b602083019250600182023603831315610e2a57600080fd5b509250929050565b60008190506001806001038301049050919050565b60008190506001806001038301049050919050565b6000819050919050565b6000819050602082019050919050565b60008190508160005260206000209050919050565b6000819050919050565b6000819050602082019050919050565b60008190508160005260206000209050919050565b60008190508160005260206000209050919050565b600082905092915050565b600081519050919050565b600081549050919050565b600082905092915050565b600081519050919050565b600081549050919050565b600082905092915050565b600081519050919050565b6000602082019050919050565b6000602082019050919050565b600082825260208201905092915050565b600082825260208201905092915050565b600082825260208201905092915050565b600082825260208201905092915050565b6000610f9082610fa3565b9050919050565b60008115159050919050565b600073ffffffffffffffffffffffffffffffffffffffff82169050919050565b6000819050919050565b5b81811015610fec57610fe1600082611632565b600181019050610fce565b5050565b5b8181101561100f57611004600082611632565b600181019050610ff1565b5050565b5b8181101561103257611027600082611632565b600181019050611014565b5050565b60006110418261105a565b9050919050565b600061105382610f97565b9050919050565b60006110658261106c565b9050919050565b600061107782610fa3565b9050919050565b600061108982610fc3565b9050919050565b61109a8383610ecf565b6110a48183611532565b6110ad83610e5c565b6110b683610e76565b6000805b848110156110f157836110cc816114f0565b90506110d981848661189c565b602085019450600184019350506001810190506110ba565b5050505050505050565b6111058383610ef0565b61110f8183611596565b61111883610e8b565b61112183610ea5565b6000805b8481101561115c57836111378161151c565b90506111448184866118c1565b60208501945060018401935050600181019050611125565b5050505050505050565b6111708383610f11565b67ffffffffffffffff811115611189576111886114a3565b5b6111938254611390565b600080601f8411601f841117156111b0576111ad85610eba565b90505b601f8311156111e3576020601f850104810160208510156111cf578190505b6111e16020601f860104830182610ff0565b505b601f84116001811461121057600085156111fe578388013590505b61120886826113c2565b875550611268565b601f1985168260005b8281101561123e57858a01358255600182019150602086019550602081019050611219565b8783101561125b57858a0135611257601f8a1682611427565b8355505b6001600289020189555050505b5050505050505050565b60005b83811015611290578082015181840152602081019050611275565b8381111561129f576000848401525b50505050565b6000810160008301806112b781611506565b90506112c38184611838565b5050506001810160208301806112d88161151c565b90506112e48184611879565b50505060028101604083016112f98185610d84565b611304818386611828565b5050505060038101606083018061131a816114f0565b905061132681846117f5565b505050600481016080830161133b8185610d2d565b611346818386611818565b505050506005810160a0830161135c8185610ddb565b61136781838661185b565b505050506006810160c0830161137d8185610ddb565b61138881838661185b565b505050505050565b600060028204905060018216806113a857607f821691505b602082108114156113bc576113bb611474565b5b50919050565b60006113ce8383611427565b9150826002028217905092915050565b60006113e982610fc3565b91507fffffffffffffffffffffffffffffffffffffffffffffffffffffffffffffffff82141561141c5761141b611445565b5b600182019050919050565b600061143860001984600802611625565b1980831691505092915050565b7f4e487b7100000000000000000000000000000000000000000000000000000000600052601160045260246000fd5b7f4e487b7100000000000000000000000000000000000000000000000000000000600052602260045260246000fd5b7f4e487b7100000000000000000000000000000000000000000000000000000000600052604160045260246000fd5b6000819050919050565b6000819050919050565b6000819050919050565b600081356114fd816118e6565b80915050919050565b60008135611513816118fd565b80915050919050565b6000813561152981611914565b80915050919050565b6801000000000000000082111561154c5761154b6114a3565b5b61155581610ee5565b828255808310156115915761156981610e32565b61157284610e32565b61157b84610e76565b81810183820161158b8183610fcd565b50505050505b505050565b680100000000000000008211156115b0576115af6114a3565b5b6115b981610f06565b828255808310156115f5576115cd81610e47565b6115d684610e47565b6115df84610ea5565b8181018382016115ef8183611013565b50505050505b505050565b6000601f19601f8301169050919050565b60008160001b9050919050565b600082821b905092915050565b600082821c905092915050565b61163a61192b565b6116458184846118c1565b505050565b7f496e697469616c697a61626c653a20636f6e747261637420697320616c72656160008201527f647920696e697469616c697a6564000000000000000000000000000000000000602082015250565b7f4e6f74206120706172747920746f2074686520636f6e74726163740000000000600082015250565b600060ff6116cf8461160b565b9350801983169250808416831791505092915050565b600073ffffffffffffffffffffffffffffffffffffffff6117058461160b565b9350801983169250808416831791505092915050565b60007fffffffffffffffffffffffffffffffffffffffffffffffffffffffffffffffff6117478461160b565b9350801983169250808416831791505092915050565b60006008830261178173ffffffffffffffffffffffffffffffffffffffff82611618565b61178b8683611618565b95508019841693508086168417925050509392505050565b6000600883026117d37fffffffffffffffffffffffffffffffffffffffffffffffffffffffffffffffff82611618565b6117dd8683611618565b95508019841693508086168417925050509392505050565b6117fe82611036565b61181161180a826114d2565b83546116e5565b8255505050565b611823838383611090565b505050565b6118338383836110fb565b505050565b61184182611048565b61185461184d826114dc565b83546116c2565b8255505050565b611866838383611166565b505050565b61187582826112a5565b5050565b6118828261107e565b61189561188e826114e6565b835461171b565b8255505050565b6118a583611036565b6118b96118b1826114d2565b84845461175d565b825550505050565b6118ca8361107e565b6118de6118d6826114e6565b8484546117a3565b825550505050565b6118ef81610f85565b81146118fa57600080fd5b50565b61190681610f97565b811461191157600080fd5b50565b61191d81610fc3565b811461192857600080fd5b50565b60009056fea2646970667358221220e04ce3d9ba090664d99c5bd63a263ccff4fc642fb2c4b02aa4d1c232d60fdfd464736f6c63430008020033",
  "immutableReferences": {
    "644": [
      {
        "length": 32,
        "start": 226
      },
      {
        "length": 32,
        "start": 836
      }
    ]
  },
  "source": "// SPDX-License-Identifier: MIT\r\npragma solidity ^0.8.2;\r\n\r\nimport \"@openzeppelin/contracts/proxy/Clones.sol\";\r\nimport \"./interfaces/IContractInit.sol\";\r\nimport \"./ContractController.sol\";\r\n\r\n/**\r\n * @title CMSB Contract Factory\r\n * @dev Create and view draft contracts\r\n */\r\n\r\ncontract ContractFactory is IContractInit {\r\n\r\n    address public immutable baseContract;\r\n\r\n    constructor() {\r\n        baseContract = address(new ContractController());\r\n    }\r\n\r\n    BaseContractData[] public contractsList;\r\n\r\n    event createdNewDraftContract(uint);    \r\n\r\n    function getContractsCount() external view returns (uint) {\r\n        return contractsList.length;\r\n    }\r\n\r\n    function initiateContract(\r\n        CompleteContractData calldata _contractData\r\n    ) \r\n        external \r\n    {\r\n        address newContract = Clones.clone(baseContract);\r\n        contractsList.push(BaseContractData(contractsList.length, newContract, msg.sender, _contractData.parties));\r\n        ContractController(newContract).initialize(_contractData);\r\n        emit createdNewDraftContract(contractsList.length-1);\r\n    }\r\n}",
  "sourcePath": "E:\\SOE CUSAT\\S6\\Mini-project\\Code\\CMSB\\truffle\\contracts\\ContractFactory.sol",
  "compiler": {
    "name": "solc",
    "version": "0.8.2+commit.661d1103.Emscripten.clang"
  },
  "schemaVersion": "3.4.5",
  "updatedAt": "2022-03-01T09:44:32.830Z",
  "devdoc": {
    "details": "Create and view draft contracts",
    "kind": "dev",
    "methods": {},
    "title": "CMSB Contract Factory",
    "version": 1
  },
  "userdoc": {
    "kind": "user",
    "methods": {},
    "version": 1
  }
}