{
  "contractName": "ContractController",
  "abi": [
    {
      "anonymous": false,
      "inputs": [
        {
          "indexed": false,
          "internalType": "address",
          "name": "contractAddress",
          "type": "address"
        }
      ],
      "name": "contractInitialized",
      "type": "event"
    },
    {
      "anonymous": false,
      "inputs": [
        {
          "indexed": false,
          "internalType": "address",
          "name": "party",
          "type": "address"
        },
        {
          "indexed": false,
          "internalType": "address",
          "name": "contractAddress",
          "type": "address"
        }
      ],
      "name": "contractRejectedByParty",
      "type": "event"
    },
    {
      "anonymous": false,
      "inputs": [
        {
          "indexed": false,
          "internalType": "address",
          "name": "contractAddress",
          "type": "address"
        }
      ],
      "name": "finalApprovalCompleted",
      "type": "event"
    },
    {
      "anonymous": false,
      "inputs": [
        {
          "indexed": false,
          "internalType": "address",
          "name": "party",
          "type": "address"
        },
        {
          "indexed": false,
          "internalType": "address",
          "name": "contractAddress",
          "type": "address"
        }
      ],
      "name": "partyApproved",
      "type": "event"
    },
    {
      "anonymous": false,
      "inputs": [
        {
          "indexed": false,
          "internalType": "address",
          "name": "contractAddress",
          "type": "address"
        }
      ],
      "name": "paymentExecuted",
      "type": "event"
    },
    {
      "inputs": [],
      "name": "getContractStage",
      "outputs": [
        {
          "internalType": "uint256",
          "name": "",
          "type": "uint256"
        }
      ],
      "stateMutability": "view",
      "type": "function"
    },
    {
      "inputs": [],
      "name": "viewContractData",
      "outputs": [
        {
          "components": [
            {
              "internalType": "bool",
              "name": "isPayable",
              "type": "bool"
            },
            {
              "internalType": "uint256",
              "name": "expiryTime",
              "type": "uint256"
            },
            {
              "internalType": "uint256[]",
              "name": "fundDistribution",
              "type": "uint256[]"
            },
            {
              "internalType": "address",
              "name": "initiatingParty",
              "type": "address"
            },
            {
              "internalType": "address[]",
              "name": "parties",
              "type": "address[]"
            },
            {
              "internalType": "string",
              "name": "contractName",
              "type": "string"
            },
            {
              "internalType": "string",
              "name": "document",
              "type": "string"
            }
          ],
          "internalType": "struct IContractInit.CompleteContractData",
          "name": "",
          "type": "tuple"
        }
      ],
      "stateMutability": "view",
      "type": "function"
    },
    {
      "inputs": [
        {
          "components": [
            {
              "internalType": "bool",
              "name": "isPayable",
              "type": "bool"
            },
            {
              "internalType": "uint256",
              "name": "expiryTime",
              "type": "uint256"
            },
            {
              "internalType": "uint256[]",
              "name": "fundDistribution",
              "type": "uint256[]"
            },
            {
              "internalType": "address",
              "name": "initiatingParty",
              "type": "address"
            },
            {
              "internalType": "address[]",
              "name": "parties",
              "type": "address[]"
            },
            {
              "internalType": "string",
              "name": "contractName",
              "type": "string"
            },
            {
              "internalType": "string",
              "name": "document",
              "type": "string"
            }
          ],
          "internalType": "struct IContractInit.CompleteContractData",
          "name": "_contractData",
          "type": "tuple"
        },
        {
          "internalType": "address",
          "name": "_daiTokenAddress",
          "type": "address"
        }
      ],
      "name": "initialize",
      "outputs": [],
      "stateMutability": "nonpayable",
      "type": "function"
    }
  ],
  "bytecode": "0x608060405260008060006101000a81548160ff0219169083600481111561004f577f4e487b7100000000000000000000000000000000000000000000000000000000600052602160045260246000fd5b021790555034801561006057600080fd5b506119bb806100706000396000f3fe608060405234801561001057600080fd5b50600436106100415760003560e01c806319ffb960146100465780638f96e85014610062578063f10746f414610080575b600080fd5b610060600480360381019061005b9190610a2f565b61009e565b005b61006a610346565b6040516100779190610d45565b60405180910390f35b610088610754565b6040516100959190610d67565b60405180910390f35b600060029054906101000a900460ff166100c857600060019054906101000a900460ff16156100d1565b6100d061090f565b5b610110576040517f08c379a000000000000000000000000000000000000000000000000000000000815260040161010790610d05565b60405180910390fd5b60008060029054906101000a900460ff161590508015610161576001600060026101000a81548160ff0219169083151502179055506001600060016101000a81548160ff0219169083151502179055505b826001818161017091906118c0565b90505081600860006101000a81548173ffffffffffffffffffffffffffffffffffffffff021916908373ffffffffffffffffffffffffffffffffffffffff1602179055508260000160208101906101c79190610a06565b156102e95760005b8380604001906101df9190610dd9565b90508110156102e7578380604001906101f89190610dd9565b8281811061022f577f4e487b7100000000000000000000000000000000000000000000000000000000600052603260045260246000fd5b90506020020135600a600086806080019061024a9190610d82565b85818110610281577f4e487b7100000000000000000000000000000000000000000000000000000000600052603260045260246000fd5b905060200201602081019061029691906109dd565b73ffffffffffffffffffffffffffffffffffffffff1673ffffffffffffffffffffffffffffffffffffffff1681526020019081526020016000208190555080806102df90611433565b9150506101cf565b505b7f3862dd748e1ca79fcd6f7cfb2a40db495da62a25761b04bdddbb073b0e548cd6306040516103189190610cea565b60405180910390a180156103415760008060026101000a81548160ff0219169083151502179055505b505050565b61034e610943565b60003373ffffffffffffffffffffffffffffffffffffffff16600160030160009054906101000a900473ffffffffffffffffffffffffffffffffffffffff1673ffffffffffffffffffffffffffffffffffffffff1614156103b2576001905061047c565b60005b60016004018054905081101561047a573373ffffffffffffffffffffffffffffffffffffffff1660016004018281548110610419577f4e487b7100000000000000000000000000000000000000000000000000000000600052603260045260246000fd5b9060005260206000200160009054906101000a900473ffffffffffffffffffffffffffffffffffffffff1673ffffffffffffffffffffffffffffffffffffffff161415610469576001915061047a565b8061047390611433565b90506103b5565b505b806104bc576040517f08c379a00000000000000000000000000000000000000000000000000000000081526004016104b390610d25565b60405180910390fd5b60016040518060e00160405290816000820160009054906101000a900460ff16151515158152602001600182015481526020016002820180548060200260200160405190810160405280929190818152602001828054801561053d57602002820191906000526020600020905b815481526020019060010190808311610529575b505050505081526020016003820160009054906101000a900473ffffffffffffffffffffffffffffffffffffffff1673ffffffffffffffffffffffffffffffffffffffff1673ffffffffffffffffffffffffffffffffffffffff1681526020016004820180548060200260200160405190810160405280929190818152602001828054801561062157602002820191906000526020600020905b8160009054906101000a900473ffffffffffffffffffffffffffffffffffffffff1673ffffffffffffffffffffffffffffffffffffffff16815260200190600101908083116105d7575b5050505050815260200160058201805461063a906113e5565b80601f0160208091040260200160405190810160405280929190818152602001828054610666906113e5565b80156106b35780601f10610688576101008083540402835291602001916106b3565b820191906000526020600020905b81548152906001019060200180831161069657829003601f168201915b505050505081526020016006820180546106cc906113e5565b80601f01602080910402602001604051908101604052809291908181526020018280546106f8906113e5565b80156107455780601f1061071a57610100808354040283529160200191610745565b820191906000526020600020905b81548152906001019060200180831161072857829003601f168201915b50505050508152505091505090565b6000803373ffffffffffffffffffffffffffffffffffffffff16600160030160009054906101000a900473ffffffffffffffffffffffffffffffffffffffff1673ffffffffffffffffffffffffffffffffffffffff1614156107b95760019050610883565b60005b600160040180549050811015610881573373ffffffffffffffffffffffffffffffffffffffff1660016004018281548110610820577f4e487b7100000000000000000000000000000000000000000000000000000000600052603260045260246000fd5b9060005260206000200160009054906101000a900473ffffffffffffffffffffffffffffffffffffffff1673ffffffffffffffffffffffffffffffffffffffff1614156108705760019150610881565b8061087a90611433565b90506107bc565b505b806108c3576040517f08c379a00000000000000000000000000000000000000000000000000000000081526004016108ba90610d25565b60405180910390fd5b60008054906101000a900460ff166004811115610909577f4e487b7100000000000000000000000000000000000000000000000000000000600052602160045260246000fd5b91505090565b600061091a30610920565b15905090565b6000808273ffffffffffffffffffffffffffffffffffffffff163b119050919050565b6040518060e001604052806000151581526020016000815260200160608152602001600073ffffffffffffffffffffffffffffffffffffffff1681526020016060815260200160608152602001606081525090565b6000813590506109a78161193b565b92915050565b6000813590506109bc81611952565b92915050565b600060e082840312156109d457600080fd5b81905092915050565b6000602082840312156109ef57600080fd5b60006109fd84828501610998565b91505092915050565b600060208284031215610a1857600080fd5b6000610a26848285016109ad565b91505092915050565b60008060408385031215610a4257600080fd5b600083013567ffffffffffffffff811115610a5c57600080fd5b610a68858286016109c2565b9250506020610a7985828601610998565b9150509250929050565b6000610a8f8383610ab3565b60208301905092915050565b6000610aa78383610ccc565b60208301905092915050565b610abc81610fda565b82525050565b610acb81610fda565b82525050565b6000610adc82610f2f565b610ae68185610f96565b9350610af183610ebb565b8060005b83811015610b22578151610b098882610a83565b9750610b1483610f7c565b925050600181019050610af5565b5085935050505092915050565b6000610b3a82610f50565b610b448185610fa7565b9350610b4f83610eea565b8060005b83811015610b80578151610b678882610a9b565b9750610b7283610f89565b925050600181019050610b53565b5085935050505092915050565b610b9681610fec565b82525050565b6000610ba782610f71565b610bb18185610fb8565b9350610bc18185602086016112c7565b610bca8161164f565b840191505092915050565b6000610be2602e83610fc9565b9150610bed8261169f565b604082019050919050565b6000610c05601b83610fc9565b9150610c10826116ee565b602082019050919050565b600060e083016000830151610c336000860182610b8d565b506020830151610c466020860182610ccc565b5060408301518482036040860152610c5e8282610b2f565b9150506060830151610c736060860182610ab3565b5060808301518482036080860152610c8b8282610ad1565b91505060a083015184820360a0860152610ca58282610b9c565b91505060c083015184820360c0860152610cbf8282610b9c565b9150508091505092915050565b610cd581611018565b82525050565b610ce481611018565b82525050565b6000602082019050610cff6000830184610ac2565b92915050565b60006020820190508181036000830152610d1e81610bd5565b9050919050565b60006020820190508181036000830152610d3e81610bf8565b9050919050565b60006020820190508181036000830152610d5f8184610c1b565b905092915050565b6000602082019050610d7c6000830184610cdb565b92915050565b60008083356001602003843603038112610d9b57600080fd5b80840192508235915067ffffffffffffffff821115610db957600080fd5b602083019250602082023603831315610dd157600080fd5b509250929050565b60008083356001602003843603038112610df257600080fd5b80840192508235915067ffffffffffffffff821115610e1057600080fd5b602083019250602082023603831315610e2857600080fd5b509250929050565b60008083356001602003843603038112610e4957600080fd5b80840192508235915067ffffffffffffffff821115610e6757600080fd5b602083019250600182023603831315610e7f57600080fd5b509250929050565b60008190506001806001038301049050919050565b60008190506001806001038301049050919050565b6000819050919050565b6000819050602082019050919050565b60008190508160005260206000209050919050565b6000819050919050565b6000819050602082019050919050565b60008190508160005260206000209050919050565b60008190508160005260206000209050919050565b600082905092915050565b600081519050919050565b600081549050919050565b600082905092915050565b600081519050919050565b600081549050919050565b600082905092915050565b600081519050919050565b6000602082019050919050565b6000602082019050919050565b600082825260208201905092915050565b600082825260208201905092915050565b600082825260208201905092915050565b600082825260208201905092915050565b6000610fe582610ff8565b9050919050565b60008115159050919050565b600073ffffffffffffffffffffffffffffffffffffffff82169050919050565b6000819050919050565b5b8181101561104157611036600082611687565b600181019050611023565b5050565b5b8181101561106457611059600082611687565b600181019050611046565b5050565b5b818110156110875761107c600082611687565b600181019050611069565b5050565b6000611096826110af565b9050919050565b60006110a882610fec565b9050919050565b60006110ba826110c1565b9050919050565b60006110cc82610ff8565b9050919050565b60006110de82611018565b9050919050565b6110ef8383610f24565b6110f98183611587565b61110283610eb1565b61110b83610ecb565b6000805b84811015611146578361112181611545565b905061112e8184866118f1565b6020850194506001840193505060018101905061110f565b5050505050505050565b61115a8383610f45565b61116481836115eb565b61116d83610ee0565b61117683610efa565b6000805b848110156111b1578361118c81611571565b9050611199818486611916565b6020850194506001840193505060018101905061117a565b5050505050505050565b6111c58383610f66565b67ffffffffffffffff8111156111de576111dd6114f8565b5b6111e882546113e5565b600080601f8411601f841117156112055761120285610f0f565b90505b601f831115611238576020601f85010481016020851015611224578190505b6112366020601f860104830182611045565b505b601f8411600181146112655760008515611253578388013590505b61125d8682611417565b8755506112bd565b601f1985168260005b8281101561129357858a0135825560018201915060208601955060208101905061126e565b878310156112b057858a01356112ac601f8a168261147c565b8355505b6001600289020189555050505b5050505050505050565b60005b838110156112e55780820151818401526020810190506112ca565b838111156112f4576000848401525b50505050565b60008101600083018061130c8161155b565b9050611318818461188d565b50505060018101602083018061132d81611571565b905061133981846118ce565b505050600281016040830161134e8185610dd9565b61135981838661187d565b5050505060038101606083018061136f81611545565b905061137b818461184a565b50505060048101608083016113908185610d82565b61139b81838661186d565b505050506005810160a083016113b18185610e30565b6113bc8183866118b0565b505050506006810160c083016113d28185610e30565b6113dd8183866118b0565b505050505050565b600060028204905060018216806113fd57607f821691505b60208210811415611411576114106114c9565b5b50919050565b6000611423838361147c565b9150826002028217905092915050565b600061143e82611018565b91507fffffffffffffffffffffffffffffffffffffffffffffffffffffffffffffffff8214156114715761147061149a565b5b600182019050919050565b600061148d6000198460080261167a565b1980831691505092915050565b7f4e487b7100000000000000000000000000000000000000000000000000000000600052601160045260246000fd5b7f4e487b7100000000000000000000000000000000000000000000000000000000600052602260045260246000fd5b7f4e487b7100000000000000000000000000000000000000000000000000000000600052604160045260246000fd5b6000819050919050565b6000819050919050565b6000819050919050565b600081356115528161193b565b80915050919050565b6000813561156881611952565b80915050919050565b6000813561157e81611969565b80915050919050565b680100000000000000008211156115a1576115a06114f8565b5b6115aa81610f3a565b828255808310156115e6576115be81610e87565b6115c784610e87565b6115d084610ecb565b8181018382016115e08183611022565b50505050505b505050565b68010000000000000000821115611605576116046114f8565b5b61160e81610f5b565b8282558083101561164a5761162281610e9c565b61162b84610e9c565b61163484610efa565b8181018382016116448183611068565b50505050505b505050565b6000601f19601f8301169050919050565b60008160001b9050919050565b600082821b905092915050565b600082821c905092915050565b61168f611980565b61169a818484611916565b505050565b7f496e697469616c697a61626c653a20636f6e747261637420697320616c72656160008201527f647920696e697469616c697a6564000000000000000000000000000000000000602082015250565b7f4e6f74206120706172747920746f2074686520636f6e74726163740000000000600082015250565b600060ff61172484611660565b9350801983169250808416831791505092915050565b600073ffffffffffffffffffffffffffffffffffffffff61175a84611660565b9350801983169250808416831791505092915050565b60007fffffffffffffffffffffffffffffffffffffffffffffffffffffffffffffffff61179c84611660565b9350801983169250808416831791505092915050565b6000600883026117d673ffffffffffffffffffffffffffffffffffffffff8261166d565b6117e0868361166d565b95508019841693508086168417925050509392505050565b6000600883026118287fffffffffffffffffffffffffffffffffffffffffffffffffffffffffffffffff8261166d565b611832868361166d565b95508019841693508086168417925050509392505050565b6118538261108b565b61186661185f82611527565b835461173a565b8255505050565b6118788383836110e5565b505050565b611888838383611150565b505050565b6118968261109d565b6118a96118a282611531565b8354611717565b8255505050565b6118bb8383836111bb565b505050565b6118ca82826112fa565b5050565b6118d7826110d3565b6118ea6118e38261153b565b8354611770565b8255505050565b6118fa8361108b565b61190e61190682611527565b8484546117b2565b825550505050565b61191f836110d3565b61193361192b8261153b565b8484546117f8565b825550505050565b61194481610fda565b811461194f57600080fd5b50565b61195b81610fec565b811461196657600080fd5b50565b61197281611018565b811461197d57600080fd5b50565b60009056fea26469706673582212208abe598d64365483dc0c0d5454f172faa420e84f0368cfe0ed1af3085c50ddba64736f6c63430008020033",
  "immutableReferences": {},
  "source": "// SPDX-License-Identifier: MIT\r\npragma solidity ^0.8.2;\r\n\r\nimport \"@openzeppelin/contracts/token/ERC20/IERC20.sol\";\r\nimport \"@openzeppelin/contracts/proxy/utils/Initializable.sol\";\r\nimport \"./interfaces/IContractInit.sol\";\r\nimport \"./ContractStages.sol\";\r\n\r\ncontract ContractController is IContractInit, ContractStages, Initializable {\r\n    CompleteContractData contractData;\r\n    address daiTokenAddress;\r\n\r\n    mapping(address => bool) hasPartyApproved;\r\n    mapping(address => uint) fundDistribution;\r\n\r\n    event contractInitialized(address contractAddress);\r\n    event partyApproved(address party, address contractAddress);\r\n    event finalApprovalCompleted(address contractAddress);\r\n    event paymentExecuted(address contractAddress);\r\n    event contractRejectedByParty(address party, address contractAddress);\r\n\r\n    modifier onlyInitiator() {\r\n        require(msg.sender == contractData.initiatingParty, \"Not initiating party\");\r\n        _;\r\n    }\r\n\r\n    modifier onlyParty() {\r\n        bool isParty;\r\n        if (contractData.initiatingParty == msg.sender) {\r\n            isParty = true;\r\n        } else {\r\n            for (uint i = 0; i < contractData.parties.length; ++i) {\r\n                if (contractData.parties[i] == msg.sender) {\r\n                    isParty = true;\r\n                    break;\r\n                }\r\n            }\r\n        }\r\n        require(isParty, \"Not a party to the contract\");\r\n        _;\r\n    }\r\n\r\n    function getContractStage() external view onlyParty returns (uint) {\r\n        return uint(currentStage);\r\n    }\r\n\r\n    function viewContractData() external view onlyParty returns (CompleteContractData memory) {\r\n        return contractData;\r\n    }\r\n\r\n    function initialize(\r\n        CompleteContractData calldata _contractData,\r\n        address _daiTokenAddress\r\n    )\r\n        external \r\n        initializer\r\n    {\r\n        contractData = _contractData;\r\n        daiTokenAddress = _daiTokenAddress;\r\n        if (_contractData.isPayable) {\r\n            for (uint i=0; i < _contractData.fundDistribution.length; i++) {\r\n                fundDistribution[_contractData.parties[i]] = _contractData.fundDistribution[i];\r\n            }\r\n        }\r\n        emit contractInitialized(address(this));\r\n    }\r\n}",
  "sourcePath": "E:\\SOE CUSAT\\S6\\Mini-project\\Code\\CMSB\\truffle\\contracts\\ContractController.sol",
  "compiler": {
    "name": "solc",
    "version": "0.8.2+commit.661d1103.Emscripten.clang"
  },
  "schemaVersion": "3.4.5",
  "updatedAt": "2022-03-06T14:21:33.345Z",
  "devdoc": {
    "kind": "dev",
    "methods": {},
    "version": 1
  },
  "userdoc": {
    "kind": "user",
    "methods": {},
    "version": 1
  }
}