{
  "contractName": "ContractFactory",
  "abi": [
    {
      "anonymous": false,
      "inputs": [
        {
          "indexed": false,
          "internalType": "uint256",
          "name": "",
          "type": "uint256"
        }
      ],
      "name": "createdContract",
      "type": "event"
    },
    {
      "inputs": [
        {
          "internalType": "uint256",
          "name": "",
          "type": "uint256"
        }
      ],
      "name": "initiatingParty",
      "outputs": [
        {
          "internalType": "address",
          "name": "",
          "type": "address"
        }
      ],
      "stateMutability": "view",
      "type": "function"
    },
    {
      "inputs": [],
      "name": "getContractsCount",
      "outputs": [
        {
          "internalType": "uint256",
          "name": "",
          "type": "uint256"
        }
      ],
      "stateMutability": "view",
      "type": "function"
    },
    {
      "inputs": [
        {
          "internalType": "uint256",
          "name": "_contractId",
          "type": "uint256"
        }
      ],
      "name": "viewContract",
      "outputs": [
        {
          "components": [
            {
              "internalType": "uint256",
              "name": "id",
              "type": "uint256"
            },
            {
              "internalType": "uint256",
              "name": "amount",
              "type": "uint256"
            },
            {
              "internalType": "bool",
              "name": "isValid",
              "type": "bool"
            },
            {
              "internalType": "address",
              "name": "initiatingParty",
              "type": "address"
            },
            {
              "internalType": "address[]",
              "name": "parties",
              "type": "address[]"
            },
            {
              "internalType": "string",
              "name": "contractName",
              "type": "string"
            },
            {
              "internalType": "string",
              "name": "document",
              "type": "string"
            }
          ],
          "internalType": "struct IContractInit.Contract",
          "name": "",
          "type": "tuple"
        }
      ],
      "stateMutability": "view",
      "type": "function"
    },
    {
      "inputs": [
        {
          "internalType": "uint256",
          "name": "_amount",
          "type": "uint256"
        },
        {
          "internalType": "address[]",
          "name": "_parties",
          "type": "address[]"
        },
        {
          "internalType": "string",
          "name": "_contractName",
          "type": "string"
        },
        {
          "internalType": "string",
          "name": "_document",
          "type": "string"
        }
      ],
      "name": "initiateContract",
      "outputs": [],
      "stateMutability": "nonpayable",
      "type": "function"
    },
    {
      "inputs": [
        {
          "internalType": "uint256",
          "name": "_contractId",
          "type": "uint256"
        }
      ],
      "name": "validateContract",
      "outputs": [],
      "stateMutability": "payable",
      "type": "function"
    }
  ],
  "bytecode": "0x608060405234801561001057600080fd5b506112fc806100206000396000f3fe60806040526004361061004a5760003560e01c80630dbfdeee1461004f5780635880eaac1461006b5780639683584f14610094578063a715ad02146100bf578063dfff2920146100fc575b600080fd5b61006960048036038101906100649190610c3e565b610139565b005b34801561007757600080fd5b50610092600480360381019061008d9190610c67565b6102d2565b005b3480156100a057600080fd5b506100a961051b565b6040516100b69190610f7e565b60405180910390f35b3480156100cb57600080fd5b506100e660048036038101906100e19190610c3e565b610527565b6040516100f39190610f01565b60405180910390f35b34801561010857600080fd5b50610123600480360381019061011e9190610c3e565b61055a565b6040516101309190610f5c565b60405180910390f35b8060008181548110610174577f4e487b7100000000000000000000000000000000000000000000000000000000600052603260045260246000fd5b906000526020600020906006020160020160019054906101000a900473ffffffffffffffffffffffffffffffffffffffff1673ffffffffffffffffffffffffffffffffffffffff163373ffffffffffffffffffffffffffffffffffffffff1614610213576040517f08c379a000000000000000000000000000000000000000000000000000000000815260040161020a90610f1c565b60405180910390fd5b6000828154811061024d577f4e487b7100000000000000000000000000000000000000000000000000000000600052603260045260246000fd5b906000526020600020906006020160010154341461026a57600080fd5b6001600083815481106102a6577f4e487b7100000000000000000000000000000000000000000000000000000000600052603260045260246000fd5b906000526020600020906006020160020160006101000a81548160ff0219169083151502179055505050565b60006040518060e0016040528060008054905081526020018781526020016000151581526020013373ffffffffffffffffffffffffffffffffffffffff168152602001868680806020026020016040519081016040528093929190818152602001838360200280828437600081840152601f19601f8201169050808301925050505050505081526020018481526020018381525090506000819080600181540180825580915050600190039060005260206000209060060201600090919091909150600082015181600001556020820151816001015560408201518160020160006101000a81548160ff02191690831515021790555060608201518160020160016101000a81548173ffffffffffffffffffffffffffffffffffffffff021916908373ffffffffffffffffffffffffffffffffffffffff160217905550608082015181600301908051906020019061042b9291906109f5565b5060a0820151816004019080519060200190610448929190610a7f565b5060c0820151816005019080519060200190610465929190610a7f565b5050503360016000600160008054905061047f9190611055565b815260200190815260200160002060006101000a81548173ffffffffffffffffffffffffffffffffffffffff021916908373ffffffffffffffffffffffffffffffffffffffff1602179055507f6494c1a5ad7a5e981ff94a35abed0166ef0630f799036cfe7d57d4c444d4d42860016000805490506104fe9190611055565b60405161050b9190610f7e565b60405180910390a1505050505050565b60008080549050905090565b60016020528060005260406000206000915054906101000a900473ffffffffffffffffffffffffffffffffffffffff1681565b610562610b05565b8160003373ffffffffffffffffffffffffffffffffffffffff166001600084815260200190815260200160002060009054906101000a900473ffffffffffffffffffffffffffffffffffffffff1673ffffffffffffffffffffffffffffffffffffffff1614156105d157600190505b60005b6000838154811061060e577f4e487b7100000000000000000000000000000000000000000000000000000000600052603260045260246000fd5b906000526020600020906006020160030180549050811015610721573373ffffffffffffffffffffffffffffffffffffffff166000848154811061067b577f4e487b7100000000000000000000000000000000000000000000000000000000600052603260045260246000fd5b906000526020600020906006020160030182815481106106c4577f4e487b7100000000000000000000000000000000000000000000000000000000600052603260045260246000fd5b9060005260206000200160009054906101000a900473ffffffffffffffffffffffffffffffffffffffff1673ffffffffffffffffffffffffffffffffffffffff16141561071057600191505b8061071a90611176565b90506105d4565b5080610762576040517f08c379a000000000000000000000000000000000000000000000000000000000815260040161075990610f3c565b60405180910390fd5b6000848154811061079c577f4e487b7100000000000000000000000000000000000000000000000000000000600052603260045260246000fd5b90600052602060002090600602016040518060e001604052908160008201548152602001600182015481526020016002820160009054906101000a900460ff161515151581526020016002820160019054906101000a900473ffffffffffffffffffffffffffffffffffffffff1673ffffffffffffffffffffffffffffffffffffffff1673ffffffffffffffffffffffffffffffffffffffff168152602001600382018054806020026020016040519081016040528092919081815260200182805480156108bf57602002820191906000526020600020905b8160009054906101000a900473ffffffffffffffffffffffffffffffffffffffff1673ffffffffffffffffffffffffffffffffffffffff1681526020019060010190808311610875575b505050505081526020016004820180546108d890611113565b80601f016020809104026020016040519081016040528092919081815260200182805461090490611113565b80156109515780601f1061092657610100808354040283529160200191610951565b820191906000526020600020905b81548152906001019060200180831161093457829003601f168201915b5050505050815260200160058201805461096a90611113565b80601f016020809104026020016040519081016040528092919081815260200182805461099690611113565b80156109e35780601f106109b8576101008083540402835291602001916109e3565b820191906000526020600020905b8154815290600101906020018083116109c657829003601f168201915b50505050508152505092505050919050565b828054828255906000526020600020908101928215610a6e579160200282015b82811115610a6d5782518260006101000a81548173ffffffffffffffffffffffffffffffffffffffff021916908373ffffffffffffffffffffffffffffffffffffffff16021790555091602001919060010190610a15565b5b509050610a7b9190610b5a565b5090565b828054610a8b90611113565b90600052602060002090601f016020900481019282610aad5760008555610af4565b82601f10610ac657805160ff1916838001178555610af4565b82800160010185558215610af4579182015b82811115610af3578251825591602001919060010190610ad8565b5b509050610b019190610b5a565b5090565b6040518060e001604052806000815260200160008152602001600015158152602001600073ffffffffffffffffffffffffffffffffffffffff1681526020016060815260200160608152602001606081525090565b5b80821115610b73576000816000905550600101610b5b565b5090565b6000610b8a610b8584610fbe565b610f99565b905082815260208101848484011115610ba257600080fd5b610bad8482856110d1565b509392505050565b60008083601f840112610bc757600080fd5b8235905067ffffffffffffffff811115610be057600080fd5b602083019150836020820283011115610bf857600080fd5b9250929050565b600082601f830112610c1057600080fd5b8135610c20848260208601610b77565b91505092915050565b600081359050610c38816112af565b92915050565b600060208284031215610c5057600080fd5b6000610c5e84828501610c29565b91505092915050565b600080600080600060808688031215610c7f57600080fd5b6000610c8d88828901610c29565b955050602086013567ffffffffffffffff811115610caa57600080fd5b610cb688828901610bb5565b9450945050604086013567ffffffffffffffff811115610cd557600080fd5b610ce188828901610bff565b925050606086013567ffffffffffffffff811115610cfe57600080fd5b610d0a88828901610bff565b9150509295509295909350565b6000610d238383610d2f565b60208301905092915050565b610d3881611089565b82525050565b610d4781611089565b82525050565b6000610d5882610fff565b610d628185611022565b9350610d6d83610fef565b8060005b83811015610d9e578151610d858882610d17565b9750610d9083611015565b925050600181019050610d71565b5085935050505092915050565b610db48161109b565b82525050565b6000610dc58261100a565b610dcf8185611033565b9350610ddf8185602086016110e0565b610de88161124c565b840191505092915050565b6000610e00601183611044565b9150610e0b8261125d565b602082019050919050565b6000610e23601b83611044565b9150610e2e82611286565b602082019050919050565b600060e083016000830151610e516000860182610ee3565b506020830151610e646020860182610ee3565b506040830151610e776040860182610dab565b506060830151610e8a6060860182610d2f565b5060808301518482036080860152610ea28282610d4d565b91505060a083015184820360a0860152610ebc8282610dba565b91505060c083015184820360c0860152610ed68282610dba565b9150508091505092915050565b610eec816110c7565b82525050565b610efb816110c7565b82525050565b6000602082019050610f166000830184610d3e565b92915050565b60006020820190508181036000830152610f3581610df3565b9050919050565b60006020820190508181036000830152610f5581610e16565b9050919050565b60006020820190508181036000830152610f768184610e39565b905092915050565b6000602082019050610f936000830184610ef2565b92915050565b6000610fa3610fb4565b9050610faf8282611145565b919050565b6000604051905090565b600067ffffffffffffffff821115610fd957610fd861121d565b5b610fe28261124c565b9050602081019050919050565b6000819050602082019050919050565b600081519050919050565b600081519050919050565b6000602082019050919050565b600082825260208201905092915050565b600082825260208201905092915050565b600082825260208201905092915050565b6000611060826110c7565b915061106b836110c7565b92508282101561107e5761107d6111bf565b5b828203905092915050565b6000611094826110a7565b9050919050565b60008115159050919050565b600073ffffffffffffffffffffffffffffffffffffffff82169050919050565b6000819050919050565b82818337600083830152505050565b60005b838110156110fe5780820151818401526020810190506110e3565b8381111561110d576000848401525b50505050565b6000600282049050600182168061112b57607f821691505b6020821081141561113f5761113e6111ee565b5b50919050565b61114e8261124c565b810181811067ffffffffffffffff8211171561116d5761116c61121d565b5b80604052505050565b6000611181826110c7565b91507fffffffffffffffffffffffffffffffffffffffffffffffffffffffffffffffff8214156111b4576111b36111bf565b5b600182019050919050565b7f4e487b7100000000000000000000000000000000000000000000000000000000600052601160045260246000fd5b7f4e487b7100000000000000000000000000000000000000000000000000000000600052602260045260246000fd5b7f4e487b7100000000000000000000000000000000000000000000000000000000600052604160045260246000fd5b6000601f19601f8301169050919050565b7f4e6f742074686520696e69746961746f72000000000000000000000000000000600082015250565b7f4e6f74206120706172747920746f2074686520636f6e74726163740000000000600082015250565b6112b8816110c7565b81146112c357600080fd5b5056fea26469706673582212201f83df0db03c160a7e4222e8a4516a00c5d8ae374e06dadcc733a7b6e5b7a28064736f6c63430008020033",
  "immutableReferences": {},
  "source": "// SPDX-License-Identifier: MIT\r\npragma solidity ^0.8.2;\r\n\r\nimport \"./interfaces/IContractInit.sol\";\r\n\r\n/**\r\n * @title Contract Factory\r\n * @dev Create & retrieve contracts\r\n */\r\n\r\ncontract ContractFactory is IContractInit {\r\n\r\n    Contract[] draftContracts;\r\n    mapping(uint => address) public initiatingParty;\r\n\r\n    event createdContract(uint);\r\n\r\n    //Modifier to check whether msg.sender is the initiating party of the contract\r\n    modifier onlyInitiator(uint _contractId) {\r\n        require(msg.sender == draftContracts[_contractId].initiatingParty, \"Not the initiator\");\r\n        _;\r\n    }\r\n\r\n    //Modifier to check whether msg.sender is a party to the contract\r\n    modifier onlyParty(uint _contractId) {\r\n        bool isParty;\r\n\r\n        if (initiatingParty[_contractId] == msg.sender) {\r\n            isParty = true;\r\n        }\r\n\r\n        for (uint i = 0; i < draftContracts[_contractId].parties.length; ++i) {\r\n            if (draftContracts[_contractId].parties[i] == msg.sender) {\r\n                isParty = true;\r\n            }\r\n        }\r\n        require(isParty, \"Not a party to the contract\");\r\n        _;\r\n    }\r\n\r\n    function getContractsCount() external view returns (uint) {\r\n        return draftContracts.length;\r\n    }\r\n\r\n    function viewContract(uint _contractId) external view onlyParty(_contractId) returns (Contract memory) {\r\n        return draftContracts[_contractId];\r\n    }\r\n\r\n    function initiateContract(\r\n        uint _amount, \r\n        address[] calldata _parties, \r\n        string memory _contractName, \r\n        string memory _document\r\n    ) \r\n        external \r\n    {\r\n        Contract memory newContract = Contract(draftContracts.length, _amount, false, msg.sender, _parties, _contractName, _document);\r\n        draftContracts.push(newContract);\r\n        initiatingParty[draftContracts.length-1] = msg.sender;\r\n        emit createdContract(draftContracts.length-1);\r\n    }\r\n\r\n    function validateContract(uint _contractId) external payable onlyInitiator(_contractId) {\r\n        require(msg.value == draftContracts[_contractId].amount);\r\n        draftContracts[_contractId].isValid = true;\r\n    }\r\n}",
  "sourcePath": "E:\\SOE CUSAT\\S6\\Mini-project\\Code\\CMSB\\truffle\\contracts\\ContractFactory.sol",
  "compiler": {
    "name": "solc",
    "version": "0.8.2+commit.661d1103.Emscripten.clang"
  },
  "schemaVersion": "3.4.5",
  "updatedAt": "2022-02-25T03:48:49.481Z",
  "devdoc": {
    "details": "Create & retrieve contracts",
    "kind": "dev",
    "methods": {},
    "title": "Contract Factory",
    "version": 1
  },
  "userdoc": {
    "kind": "user",
    "methods": {},
    "version": 1
  }
}