{
  "contractName": "ContractController",
  "abi": [
    {
      "anonymous": false,
      "inputs": [
        {
          "indexed": false,
          "internalType": "address",
          "name": "contractAddress",
          "type": "address"
        }
      ],
      "name": "contractInitialized",
      "type": "event"
    },
    {
      "anonymous": false,
      "inputs": [
        {
          "indexed": false,
          "internalType": "address",
          "name": "party",
          "type": "address"
        },
        {
          "indexed": false,
          "internalType": "address",
          "name": "contractAddress",
          "type": "address"
        }
      ],
      "name": "contractRejectedByParty",
      "type": "event"
    },
    {
      "anonymous": false,
      "inputs": [
        {
          "indexed": false,
          "internalType": "address",
          "name": "contractAddress",
          "type": "address"
        }
      ],
      "name": "finalApprovalCompleted",
      "type": "event"
    },
    {
      "anonymous": false,
      "inputs": [
        {
          "indexed": false,
          "internalType": "address",
          "name": "party",
          "type": "address"
        },
        {
          "indexed": false,
          "internalType": "address",
          "name": "contractAddress",
          "type": "address"
        }
      ],
      "name": "partyApproved",
      "type": "event"
    },
    {
      "anonymous": false,
      "inputs": [
        {
          "indexed": false,
          "internalType": "address",
          "name": "contractAddress",
          "type": "address"
        }
      ],
      "name": "paymentExecuted",
      "type": "event"
    },
    {
      "inputs": [],
      "name": "getContractStage",
      "outputs": [
        {
          "internalType": "uint256",
          "name": "",
          "type": "uint256"
        }
      ],
      "stateMutability": "view",
      "type": "function"
    },
    {
      "inputs": [],
      "name": "viewContractData",
      "outputs": [
        {
          "components": [
            {
              "internalType": "bool",
              "name": "isPayable",
              "type": "bool"
            },
            {
              "internalType": "uint256",
              "name": "expiryTime",
              "type": "uint256"
            },
            {
              "internalType": "uint256[]",
              "name": "fundDistribution",
              "type": "uint256[]"
            },
            {
              "internalType": "address",
              "name": "initiatingParty",
              "type": "address"
            },
            {
              "internalType": "address[]",
              "name": "parties",
              "type": "address[]"
            },
            {
              "internalType": "string",
              "name": "contractName",
              "type": "string"
            },
            {
              "internalType": "string",
              "name": "document",
              "type": "string"
            }
          ],
          "internalType": "struct IContractInit.CompleteContractData",
          "name": "",
          "type": "tuple"
        }
      ],
      "stateMutability": "view",
      "type": "function"
    },
    {
      "inputs": [
        {
          "components": [
            {
              "internalType": "bool",
              "name": "isPayable",
              "type": "bool"
            },
            {
              "internalType": "uint256",
              "name": "expiryTime",
              "type": "uint256"
            },
            {
              "internalType": "uint256[]",
              "name": "fundDistribution",
              "type": "uint256[]"
            },
            {
              "internalType": "address",
              "name": "initiatingParty",
              "type": "address"
            },
            {
              "internalType": "address[]",
              "name": "parties",
              "type": "address[]"
            },
            {
              "internalType": "string",
              "name": "contractName",
              "type": "string"
            },
            {
              "internalType": "string",
              "name": "document",
              "type": "string"
            }
          ],
          "internalType": "struct IContractInit.CompleteContractData",
          "name": "_contractData",
          "type": "tuple"
        },
        {
          "internalType": "address",
          "name": "_daiTokenAddress",
          "type": "address"
        }
      ],
      "name": "initialize",
      "outputs": [],
      "stateMutability": "nonpayable",
      "type": "function"
    },
    {
      "inputs": [],
      "name": "approveContract",
      "outputs": [],
      "stateMutability": "nonpayable",
      "type": "function"
    },
    {
      "inputs": [],
      "name": "rejectContract",
      "outputs": [],
      "stateMutability": "nonpayable",
      "type": "function"
    },
    {
      "inputs": [],
      "name": "finalApproval",
      "outputs": [],
      "stateMutability": "nonpayable",
      "type": "function"
    },
    {
      "inputs": [
        {
          "internalType": "uint256",
          "name": "extendedTime",
          "type": "uint256"
        }
      ],
      "name": "renewContract",
      "outputs": [],
      "stateMutability": "nonpayable",
      "type": "function"
    },
    {
      "inputs": [],
      "name": "checkExpired",
      "outputs": [],
      "stateMutability": "nonpayable",
      "type": "function"
    }
  ],
  "bytecode": "0x608060405260008060006101000a81548160ff0219169083600481111561004f577f4e487b7100000000000000000000000000000000000000000000000000000000600052602160045260246000fd5b021790555034801561006057600080fd5b50612894806100706000396000f3fe608060405234801561001057600080fd5b50600436106100885760003560e01c806343d00d041161005b57806343d00d04146100c75780638f96e850146100d1578063d5252dcf146100ef578063f10746f41461010b57610088565b806319ffb9601461008d57806325ace2a7146100a957806331c84ea6146100b357806334516203146100bd575b600080fd5b6100a760048036038101906100a2919061161b565b610129565b005b6100b16103d9565b005b6100bb6103f1565b005b6100c56105ad565b005b6100cf61071c565b005b6100d9610928565b6040516100e69190611afb565b60405180910390f35b6101096004803603810190610104919061166f565b610bc7565b005b610113610c82565b6040516101209190611b1d565b60405180910390f35b600060029054906101000a900460ff1661015357600060019054906101000a900460ff161561015c565b61015b610e3d565b5b61019b576040517f08c379a000000000000000000000000000000000000000000000000000000000815260040161019290611a9b565b60405180910390fd5b60008060029054906101000a900460ff1615905080156101ec576001600060026101000a81548160ff0219169083151502179055506001600060016101000a81548160ff0219169083151502179055505b82600181816101fb9190612799565b90505081600860006101000a81548173ffffffffffffffffffffffffffffffffffffffff021916908373ffffffffffffffffffffffffffffffffffffffff16021790555082600001602081019061025291906115c9565b156103745760005b83806040019061026a9190611b8f565b9050811015610372578380604001906102839190611b8f565b828181106102ba577f4e487b7100000000000000000000000000000000000000000000000000000000600052603260045260246000fd5b90506020020135600a60008680608001906102d59190611b38565b8581811061030c577f4e487b7100000000000000000000000000000000000000000000000000000000600052603260045260246000fd5b905060200201602081019061032191906115a0565b73ffffffffffffffffffffffffffffffffffffffff1673ffffffffffffffffffffffffffffffffffffffff16815260200190815260200160002081905550808061036a9061223f565b91505061025a565b505b61037c610e4e565b7f3862dd748e1ca79fcd6f7cfb2a40db495da62a25761b04bdddbb073b0e548cd6306040516103ab91906119ae565b60405180910390a180156103d45760008060026101000a81548160ff0219169083151502179055505b505050565b600180015442106103ef576103ee6003610fbd565b5b565b60003373ffffffffffffffffffffffffffffffffffffffff16600160030160009054906101000a900473ffffffffffffffffffffffffffffffffffffffff1673ffffffffffffffffffffffffffffffffffffffff161415610455576001905061051f565b60005b60016004018054905081101561051d573373ffffffffffffffffffffffffffffffffffffffff16600160040182815481106104bc577f4e487b7100000000000000000000000000000000000000000000000000000000600052603260045260246000fd5b9060005260206000200160009054906101000a900473ffffffffffffffffffffffffffffffffffffffff1673ffffffffffffffffffffffffffffffffffffffff16141561050c576001915061051d565b806105169061223f565b9050610458565b505b8061055f576040517f08c379a000000000000000000000000000000000000000000000000000000000815260040161055690611abb565b60405180910390fd5b610569600061100f565b6105716110d1565b7fbae8547f50c16c22426d683b8d9d608d52e192e6acbf7bc7b8f6889fcd1fbb6d33306040516105a29291906119c9565b60405180910390a150565b600160030160009054906101000a900473ffffffffffffffffffffffffffffffffffffffff1673ffffffffffffffffffffffffffffffffffffffff163373ffffffffffffffffffffffffffffffffffffffff1614610640576040517f08c379a000000000000000000000000000000000000000000000000000000000815260040161063790611a5b565b60405180910390fd5b61064a600161100f565b6001151561065661115a565b151514610698576040517f08c379a000000000000000000000000000000000000000000000000000000000815260040161068f90611a3b565b60405180910390fd5b6001600860146101000a81548160ff02191690831515021790555060011515600160000160009054906101000a900460ff16151514156106db576106da611258565b5b6106e3610e4e565b7f652558422eb93dbb1c6760141371fc8419f87938d1fa47dec3e6614ce07f72a53060405161071291906119ae565b60405180910390a1565b60003373ffffffffffffffffffffffffffffffffffffffff16600160030160009054906101000a900473ffffffffffffffffffffffffffffffffffffffff1673ffffffffffffffffffffffffffffffffffffffff161415610780576001905061084a565b60005b600160040180549050811015610848573373ffffffffffffffffffffffffffffffffffffffff16600160040182815481106107e7577f4e487b7100000000000000000000000000000000000000000000000000000000600052603260045260246000fd5b9060005260206000200160009054906101000a900473ffffffffffffffffffffffffffffffffffffffff1673ffffffffffffffffffffffffffffffffffffffff1614156108375760019150610848565b806108419061223f565b9050610783565b505b8061088a576040517f08c379a000000000000000000000000000000000000000000000000000000000815260040161088190611abb565b60405180910390fd5b610894600061100f565b6001600960003373ffffffffffffffffffffffffffffffffffffffff1673ffffffffffffffffffffffffffffffffffffffff16815260200190815260200160002060006101000a81548160ff0219169083151502179055507f13a17564c18f94d8dc8dad308b368ddecc4b5869143a7e491b1eb6748ea7e67f333060405161091d9291906119c9565b60405180910390a150565b6109306114dc565b60016040518060e00160405290816000820160009054906101000a900460ff1615151515815260200160018201548152602001600282018054806020026020016040519081016040528092919081815260200182805480156109b157602002820191906000526020600020905b81548152602001906001019080831161099d575b505050505081526020016003820160009054906101000a900473ffffffffffffffffffffffffffffffffffffffff1673ffffffffffffffffffffffffffffffffffffffff1673ffffffffffffffffffffffffffffffffffffffff16815260200160048201805480602002602001604051908101604052809291908181526020018280548015610a9557602002820191906000526020600020905b8160009054906101000a900473ffffffffffffffffffffffffffffffffffffffff1673ffffffffffffffffffffffffffffffffffffffff1681526020019060010190808311610a4b575b50505050508152602001600582018054610aae906121f1565b80601f0160208091040260200160405190810160405280929190818152602001828054610ada906121f1565b8015610b275780601f10610afc57610100808354040283529160200191610b27565b820191906000526020600020905b815481529060010190602001808311610b0a57829003601f168201915b50505050508152602001600682018054610b40906121f1565b80601f0160208091040260200160405190810160405280929190818152602001828054610b6c906121f1565b8015610bb95780601f10610b8e57610100808354040283529160200191610bb9565b820191906000526020600020905b815481529060010190602001808311610b9c57829003601f168201915b505050505081525050905090565b600160030160009054906101000a900473ffffffffffffffffffffffffffffffffffffffff1673ffffffffffffffffffffffffffffffffffffffff163373ffffffffffffffffffffffffffffffffffffffff1614610c5a576040517f08c379a0000000000000000000000000000000000000000000000000000000008152600401610c5190611a5b565b60405180910390fd5b610c64600361100f565b80600180016000828254610c789190611d90565b9250508190555050565b6000803373ffffffffffffffffffffffffffffffffffffffff16600160030160009054906101000a900473ffffffffffffffffffffffffffffffffffffffff1673ffffffffffffffffffffffffffffffffffffffff161415610ce75760019050610db1565b60005b600160040180549050811015610daf573373ffffffffffffffffffffffffffffffffffffffff1660016004018281548110610d4e577f4e487b7100000000000000000000000000000000000000000000000000000000600052603260045260246000fd5b9060005260206000200160009054906101000a900473ffffffffffffffffffffffffffffffffffffffff1673ffffffffffffffffffffffffffffffffffffffff161415610d9e5760019150610daf565b80610da89061223f565b9050610cea565b505b80610df1576040517f08c379a0000000000000000000000000000000000000000000000000000000008152600401610de890611abb565b60405180910390fd5b60008054906101000a900460ff166004811115610e37577f4e487b7100000000000000000000000000000000000000000000000000000000600052602160045260246000fd5b91505090565b6000610e48306114b9565b15905090565b6002600160008054906101000a900460ff166004811115610e98577f4e487b7100000000000000000000000000000000000000000000000000000000600052602160045260246000fd5b610ea29190611d90565b1115610ee3576040517f08c379a0000000000000000000000000000000000000000000000000000000008152600401610eda90611a1b565b60405180910390fd5b600160008054906101000a900460ff166004811115610f2b577f4e487b7100000000000000000000000000000000000000000000000000000000600052602160045260246000fd5b610f359190611d90565b6004811115610f6d577f4e487b7100000000000000000000000000000000000000000000000000000000600052602160045260246000fd5b6000806101000a81548160ff02191690836004811115610fb6577f4e487b7100000000000000000000000000000000000000000000000000000000600052602160045260246000fd5b0217905550565b806000806101000a81548160ff02191690836004811115611007577f4e487b7100000000000000000000000000000000000000000000000000000000600052602160045260246000fd5b021790555050565b806004811115611048577f4e487b7100000000000000000000000000000000000000000000000000000000600052602160045260246000fd5b60008054906101000a900460ff16600481111561108e577f4e487b7100000000000000000000000000000000000000000000000000000000600052602160045260246000fd5b146110ce576040517f08c379a00000000000000000000000000000000000000000000000000000000081526004016110c590611adb565b60405180910390fd5b50565b60048081111561110a577f4e487b7100000000000000000000000000000000000000000000000000000000600052602160045260246000fd5b6000806101000a81548160ff02191690836004811115611153577f4e487b7100000000000000000000000000000000000000000000000000000000600052602160045260246000fd5b0217905550565b6000806001905060005b600160040180549050811015611250576000151560096000600160040184815481106111b9577f4e487b7100000000000000000000000000000000000000000000000000000000600052603260045260246000fd5b9060005260206000200160009054906101000a900473ffffffffffffffffffffffffffffffffffffffff1673ffffffffffffffffffffffffffffffffffffffff1673ffffffffffffffffffffffffffffffffffffffff16815260200190815260200160002060009054906101000a900460ff161515141561123d5760009150611250565b80806112489061223f565b915050611164565b508091505090565b60005b60016004018054905081101561147f576000600860009054906101000a900473ffffffffffffffffffffffffffffffffffffffff1673ffffffffffffffffffffffffffffffffffffffff1663a9059cbb600160040184815481106112e8577f4e487b7100000000000000000000000000000000000000000000000000000000600052603260045260246000fd5b9060005260206000200160009054906101000a900473ffffffffffffffffffffffffffffffffffffffff16600a600060016004018781548110611354577f4e487b7100000000000000000000000000000000000000000000000000000000600052603260045260246000fd5b9060005260206000200160009054906101000a900473ffffffffffffffffffffffffffffffffffffffff1673ffffffffffffffffffffffffffffffffffffffff1673ffffffffffffffffffffffffffffffffffffffff168152602001908152602001600020546040518363ffffffff1660e01b81526004016113d79291906119f2565b602060405180830381600087803b1580156113f157600080fd5b505af1158015611405573d6000803e3d6000fd5b505050506040513d601f19601f8201168201806040525081019061142991906115f2565b90508061146b576040517f08c379a000000000000000000000000000000000000000000000000000000000815260040161146290611a7b565b60405180910390fd5b5080806114779061223f565b91505061125b565b507fdf8d8efd852d6ee5e48dcbe2ab0f55b5413c5d2c3839ee3aed11adab642d0c3e306040516114af91906119ae565b60405180910390a1565b6000808273ffffffffffffffffffffffffffffffffffffffff163b119050919050565b6040518060e001604052806000151581526020016000815260200160608152602001600073ffffffffffffffffffffffffffffffffffffffff1681526020016060815260200160608152602001606081525090565b60008135905061154081612814565b92915050565b6000813590506115558161282b565b92915050565b60008151905061156a8161282b565b92915050565b600060e0828403121561158257600080fd5b81905092915050565b60008135905061159a81612842565b92915050565b6000602082840312156115b257600080fd5b60006115c084828501611531565b91505092915050565b6000602082840312156115db57600080fd5b60006115e984828501611546565b91505092915050565b60006020828403121561160457600080fd5b60006116128482850161155b565b91505092915050565b6000806040838503121561162e57600080fd5b600083013567ffffffffffffffff81111561164857600080fd5b61165485828601611570565b925050602061166585828601611531565b9150509250929050565b60006020828403121561168157600080fd5b600061168f8482850161158b565b91505092915050565b60006116a483836116c8565b60208301905092915050565b60006116bc8383611990565b60208301905092915050565b6116d181611de6565b82525050565b6116e081611de6565b82525050565b60006116f182611ce5565b6116fb8185611d4c565b935061170683611c71565b8060005b8381101561173757815161171e8882611698565b975061172983611d32565b92505060018101905061170a565b5085935050505092915050565b600061174f82611d06565b6117598185611d5d565b935061176483611ca0565b8060005b8381101561179557815161177c88826116b0565b975061178783611d3f565b925050600181019050611768565b5085935050505092915050565b6117ab81611df8565b82525050565b60006117bc82611d27565b6117c68185611d6e565b93506117d68185602086016120d3565b6117df8161245b565b840191505092915050565b60006117f7600d83611d7f565b9150611802826124ab565b602082019050919050565b600061181a601d83611d7f565b9150611825826124d4565b602082019050919050565b600061183d601483611d7f565b9150611848826124fd565b602082019050919050565b6000611860601383611d7f565b915061186b82612526565b602082019050919050565b6000611883602e83611d7f565b915061188e8261254f565b604082019050919050565b60006118a6601b83611d7f565b91506118b18261259e565b602082019050919050565b60006118c9601583611d7f565b91506118d4826125c7565b602082019050919050565b600060e0830160008301516118f760008601826117a2565b50602083015161190a6020860182611990565b50604083015184820360408601526119228282611744565b915050606083015161193760608601826116c8565b506080830151848203608086015261194f82826116e6565b91505060a083015184820360a086015261196982826117b1565b91505060c083015184820360c086015261198382826117b1565b9150508091505092915050565b61199981611e24565b82525050565b6119a881611e24565b82525050565b60006020820190506119c360008301846116d7565b92915050565b60006040820190506119de60008301856116d7565b6119eb60208301846116d7565b9392505050565b6000604082019050611a0760008301856116d7565b611a14602083018461199f565b9392505050565b60006020820190508181036000830152611a34816117ea565b9050919050565b60006020820190508181036000830152611a548161180d565b9050919050565b60006020820190508181036000830152611a7481611830565b9050919050565b60006020820190508181036000830152611a9481611853565b9050919050565b60006020820190508181036000830152611ab481611876565b9050919050565b60006020820190508181036000830152611ad481611899565b9050919050565b60006020820190508181036000830152611af4816118bc565b9050919050565b60006020820190508181036000830152611b1581846118df565b905092915050565b6000602082019050611b32600083018461199f565b92915050565b60008083356001602003843603038112611b5157600080fd5b80840192508235915067ffffffffffffffff821115611b6f57600080fd5b602083019250602082023603831315611b8757600080fd5b509250929050565b60008083356001602003843603038112611ba857600080fd5b80840192508235915067ffffffffffffffff821115611bc657600080fd5b602083019250602082023603831315611bde57600080fd5b509250929050565b60008083356001602003843603038112611bff57600080fd5b80840192508235915067ffffffffffffffff821115611c1d57600080fd5b602083019250600182023603831315611c3557600080fd5b509250929050565b60008190506001806001038301049050919050565b60008190506001806001038301049050919050565b6000819050919050565b6000819050602082019050919050565b60008190508160005260206000209050919050565b6000819050919050565b6000819050602082019050919050565b60008190508160005260206000209050919050565b60008190508160005260206000209050919050565b600082905092915050565b600081519050919050565b600081549050919050565b600082905092915050565b600081519050919050565b600081549050919050565b600082905092915050565b600081519050919050565b6000602082019050919050565b6000602082019050919050565b600082825260208201905092915050565b600082825260208201905092915050565b600082825260208201905092915050565b600082825260208201905092915050565b6000611d9b82611e24565b9150611da683611e24565b9250827fffffffffffffffffffffffffffffffffffffffffffffffffffffffffffffffff03821115611ddb57611dda6122a6565b5b828201905092915050565b6000611df182611e04565b9050919050565b60008115159050919050565b600073ffffffffffffffffffffffffffffffffffffffff82169050919050565b6000819050919050565b5b81811015611e4d57611e42600082612493565b600181019050611e2f565b5050565b5b81811015611e7057611e65600082612493565b600181019050611e52565b5050565b5b81811015611e9357611e88600082612493565b600181019050611e75565b5050565b6000611ea282611ebb565b9050919050565b6000611eb482611df8565b9050919050565b6000611ec682611ecd565b9050919050565b6000611ed882611e04565b9050919050565b6000611eea82611e24565b9050919050565b611efb8383611cda565b611f058183612393565b611f0e83611c67565b611f1783611c81565b6000805b84811015611f525783611f2d81612351565b9050611f3a8184866127ca565b60208501945060018401935050600181019050611f1b565b5050505050505050565b611f668383611cfb565b611f7081836123f7565b611f7983611c96565b611f8283611cb0565b6000805b84811015611fbd5783611f988161237d565b9050611fa58184866127ef565b60208501945060018401935050600181019050611f86565b5050505050505050565b611fd18383611d1c565b67ffffffffffffffff811115611fea57611fe9612304565b5b611ff482546121f1565b600080601f8411601f841117156120115761200e85611cc5565b90505b601f831115612044576020601f85010481016020851015612030578190505b6120426020601f860104830182611e51565b505b601f841160018114612071576000851561205f578388013590505b6120698682612223565b8755506120c9565b601f1985168260005b8281101561209f57858a0135825560018201915060208601955060208101905061207a565b878310156120bc57858a01356120b8601f8a1682612288565b8355505b6001600289020189555050505b5050505050505050565b60005b838110156120f15780820151818401526020810190506120d6565b83811115612100576000848401525b50505050565b60008101600083018061211881612367565b90506121248184612766565b5050506001810160208301806121398161237d565b905061214581846127a7565b505050600281016040830161215a8185611b8f565b612165818386612756565b5050505060038101606083018061217b81612351565b90506121878184612723565b505050600481016080830161219c8185611b38565b6121a7818386612746565b505050506005810160a083016121bd8185611be6565b6121c8818386612789565b505050506006810160c083016121de8185611be6565b6121e9818386612789565b505050505050565b6000600282049050600182168061220957607f821691505b6020821081141561221d5761221c6122d5565b5b50919050565b600061222f8383612288565b9150826002028217905092915050565b600061224a82611e24565b91507fffffffffffffffffffffffffffffffffffffffffffffffffffffffffffffffff82141561227d5761227c6122a6565b5b600182019050919050565b600061229960001984600802612486565b1980831691505092915050565b7f4e487b7100000000000000000000000000000000000000000000000000000000600052601160045260246000fd5b7f4e487b7100000000000000000000000000000000000000000000000000000000600052602260045260246000fd5b7f4e487b7100000000000000000000000000000000000000000000000000000000600052604160045260246000fd5b6000819050919050565b6000819050919050565b6000819050919050565b6000813561235e81612814565b80915050919050565b600081356123748161282b565b80915050919050565b6000813561238a81612842565b80915050919050565b680100000000000000008211156123ad576123ac612304565b5b6123b681611cf0565b828255808310156123f2576123ca81611c3d565b6123d384611c3d565b6123dc84611c81565b8181018382016123ec8183611e2e565b50505050505b505050565b6801000000000000000082111561241157612410612304565b5b61241a81611d11565b828255808310156124565761242e81611c52565b61243784611c52565b61244084611cb0565b8181018382016124508183611e74565b50505050505b505050565b6000601f19601f8301169050919050565b60008160001b9050919050565b600082821b905092915050565b600082821c905092915050565b61249b612859565b6124a68184846127ef565b505050565b7f496e76616c696420737461676500000000000000000000000000000000000000600082015250565b7f416c6c20706172746965732068617665206e6f7420617070726f766564000000600082015250565b7f4e6f7420696e6974696174696e67207061727479000000000000000000000000600082015250565b7f444149207472616e73666572206661696c656400000000000000000000000000600082015250565b7f496e697469616c697a61626c653a20636f6e747261637420697320616c72656160008201527f647920696e697469616c697a6564000000000000000000000000000000000000602082015250565b7f4e6f74206120706172747920746f2074686520636f6e74726163740000000000600082015250565b7f4e6f7420696e2065787065637465642073746167650000000000000000000000600082015250565b600060ff6125fd8461246c565b9350801983169250808416831791505092915050565b600073ffffffffffffffffffffffffffffffffffffffff6126338461246c565b9350801983169250808416831791505092915050565b60007fffffffffffffffffffffffffffffffffffffffffffffffffffffffffffffffff6126758461246c565b9350801983169250808416831791505092915050565b6000600883026126af73ffffffffffffffffffffffffffffffffffffffff82612479565b6126b98683612479565b95508019841693508086168417925050509392505050565b6000600883026127017fffffffffffffffffffffffffffffffffffffffffffffffffffffffffffffffff82612479565b61270b8683612479565b95508019841693508086168417925050509392505050565b61272c82611e97565b61273f61273882612333565b8354612613565b8255505050565b612751838383611ef1565b505050565b612761838383611f5c565b505050565b61276f82611ea9565b61278261277b8261233d565b83546125f0565b8255505050565b612794838383611fc7565b505050565b6127a38282612106565b5050565b6127b082611edf565b6127c36127bc82612347565b8354612649565b8255505050565b6127d383611e97565b6127e76127df82612333565b84845461268b565b825550505050565b6127f883611edf565b61280c61280482612347565b8484546126d1565b825550505050565b61281d81611de6565b811461282857600080fd5b50565b61283481611df8565b811461283f57600080fd5b50565b61284b81611e24565b811461285657600080fd5b50565b60009056fea26469706673582212206fbc376118b8b0ba02d0fca4da0a24696dffb9dca958c09e2bcdd1e49aac220164736f6c63430008020033",
  "immutableReferences": {},
  "source": "// SPDX-License-Identifier: MIT\r\npragma solidity ^0.8.2;\r\n\r\nimport \"@openzeppelin/contracts/token/ERC20/IERC20.sol\";\r\nimport \"@openzeppelin/contracts/proxy/utils/Initializable.sol\";\r\nimport \"./interfaces/IContractInit.sol\";\r\nimport \"./ContractStages.sol\";\r\n\r\ncontract ContractController is IContractInit, ContractStages, Initializable {\r\n    CompleteContractData contractData;\r\n    address daiTokenAddress;\r\n    bool isFinalApprovalCompleted;\r\n\r\n    mapping(address => bool) hasPartyApproved;\r\n    mapping(address => uint) fundDistribution;\r\n\r\n    event contractInitialized(address contractAddress);\r\n    event partyApproved(address party, address contractAddress);\r\n    event finalApprovalCompleted(address contractAddress);\r\n    event paymentExecuted(address contractAddress);\r\n    event contractRejectedByParty(address party, address contractAddress);\r\n\r\n    modifier onlyInitiator() {\r\n        require(msg.sender == contractData.initiatingParty, \"Not initiating party\");\r\n        _;\r\n    }\r\n\r\n    modifier onlyParty() {\r\n        bool isParty;\r\n        if (contractData.initiatingParty == msg.sender) {\r\n            isParty = true;\r\n        } else {\r\n            for (uint i = 0; i < contractData.parties.length; ++i) {\r\n                if (contractData.parties[i] == msg.sender) {\r\n                    isParty = true;\r\n                    break;\r\n                }\r\n            }\r\n        }\r\n        require(isParty, \"Not a party to the contract\");\r\n        _;\r\n    }\r\n\r\n    function allPartiesApproved() private view returns(bool) {\r\n        bool approved = true ;\r\n        for(uint i=0;i<contractData.parties.length;i++){\r\n            if(hasPartyApproved[contractData.parties[i]]==false){\r\n                approved = false;\r\n                break;\r\n            }            \r\n        }\r\n        return approved;\r\n    }\r\n\r\n    function getContractStage() external view onlyParty returns (uint) {\r\n        return uint(currentStage);\r\n    }\r\n\r\n    function viewContractData() external view returns (CompleteContractData memory) {\r\n        return contractData;\r\n    }\r\n\r\n    function makePayment() private {\r\n        for (uint i=0; i < contractData.parties.length; i++) {\r\n            bool success = IERC20(daiTokenAddress).transfer(\r\n                contractData.parties[i],\r\n                fundDistribution[contractData.parties[i]]\r\n            );\r\n            require(success, \"DAI transfer failed\");\r\n        }\r\n        emit paymentExecuted(address(this));\r\n    }\r\n\r\n    function initialize(\r\n        CompleteContractData calldata _contractData,\r\n        address _daiTokenAddress\r\n    )\r\n        external \r\n        initializer\r\n    {\r\n        contractData = _contractData;\r\n        daiTokenAddress = _daiTokenAddress;\r\n        if (_contractData.isPayable) {\r\n            for (uint i=0; i < _contractData.fundDistribution.length; i++) {\r\n                fundDistribution[_contractData.parties[i]] = _contractData.fundDistribution[i];\r\n            }\r\n        }\r\n        _nextStage();\r\n        emit contractInitialized(address(this));\r\n    }\r\n    function approveContract() external onlyParty {\r\n        _atStage(ContractManagementStages.PartyApprovalPending);\r\n        hasPartyApproved[msg.sender] = true;\r\n        emit partyApproved(msg.sender, address(this));  \r\n    } \r\n\r\n    function rejectContract() external onlyParty {\r\n        _atStage(ContractManagementStages.PartyApprovalPending);\r\n        _goToRejected();\r\n        emit contractRejectedByParty(msg.sender, address(this));\r\n    }\r\n\r\n    function finalApproval() external onlyInitiator {\r\n        _atStage(ContractManagementStages.FinalApprovalPending);\r\n        require(allPartiesApproved() == true, \"All parties have not approved\");\r\n        isFinalApprovalCompleted = true;\r\n        if (contractData.isPayable == true) {\r\n            makePayment();\r\n        }\r\n        _nextStage();\r\n        emit finalApprovalCompleted(address(this));\r\n    } \r\n\r\n    function renewContract(uint extendedTime) external onlyInitiator {\r\n        _atStage(ContractManagementStages.Expired);\r\n        contractData.expiryTime += extendedTime;\r\n    }\r\n\r\n    function checkExpired() external {\r\n        if(block.timestamp >= contractData.expiryTime){\r\n            _jumpToStage(ContractManagementStages.Expired);\r\n        }\r\n    }\r\n}\r\n",
  "sourcePath": "C:\\Users\\asus\\Documents\\Contract-Management-System-using-Blockchain\\truffle\\contracts\\ContractController.sol",
  "compiler": {
    "name": "solc",
    "version": "0.8.2+commit.661d1103.Emscripten.clang"
  },
  "schemaVersion": "3.4.6",
  "updatedAt": "2022-04-05T16:13:30.991Z",
  "devdoc": {
    "kind": "dev",
    "methods": {},
    "version": 1
  },
  "userdoc": {
    "kind": "user",
    "methods": {},
    "version": 1
  }
}