{
  "contractName": "ContractController",
  "abi": [
    {
      "anonymous": false,
      "inputs": [
        {
          "indexed": false,
          "internalType": "address",
          "name": "contractAddress",
          "type": "address"
        }
      ],
      "name": "contractInitialized",
      "type": "event"
    },
    {
      "anonymous": false,
      "inputs": [
        {
          "indexed": false,
          "internalType": "address",
          "name": "party",
          "type": "address"
        },
        {
          "indexed": false,
          "internalType": "address",
          "name": "contractAddress",
          "type": "address"
        }
      ],
      "name": "contractRejectedByParty",
      "type": "event"
    },
    {
      "anonymous": false,
      "inputs": [
        {
          "indexed": false,
          "internalType": "address",
          "name": "contractAddress",
          "type": "address"
        }
      ],
      "name": "finalApprovalCompleted",
      "type": "event"
    },
    {
      "anonymous": false,
      "inputs": [
        {
          "indexed": false,
          "internalType": "address",
          "name": "party",
          "type": "address"
        },
        {
          "indexed": false,
          "internalType": "address",
          "name": "contractAddress",
          "type": "address"
        }
      ],
      "name": "partyApproved",
      "type": "event"
    },
    {
      "anonymous": false,
      "inputs": [
        {
          "indexed": false,
          "internalType": "address",
          "name": "contractAddress",
          "type": "address"
        }
      ],
      "name": "paymentExecuted",
      "type": "event"
    },
    {
      "inputs": [],
      "name": "getContractStage",
      "outputs": [
        {
          "internalType": "uint256",
          "name": "",
          "type": "uint256"
        }
      ],
      "stateMutability": "view",
      "type": "function"
    },
    {
      "inputs": [],
      "name": "viewContractData",
      "outputs": [
        {
          "components": [
            {
              "internalType": "bool",
              "name": "isPayable",
              "type": "bool"
            },
            {
              "internalType": "uint256",
              "name": "expiryTime",
              "type": "uint256"
            },
            {
              "internalType": "uint256[]",
              "name": "fundDistribution",
              "type": "uint256[]"
            },
            {
              "internalType": "address",
              "name": "initiatingParty",
              "type": "address"
            },
            {
              "internalType": "address[]",
              "name": "parties",
              "type": "address[]"
            },
            {
              "internalType": "string",
              "name": "contractName",
              "type": "string"
            },
            {
              "internalType": "string",
              "name": "document",
              "type": "string"
            }
          ],
          "internalType": "struct IContractInit.CompleteContractData",
          "name": "",
          "type": "tuple"
        }
      ],
      "stateMutability": "view",
      "type": "function"
    },
    {
      "inputs": [
        {
          "components": [
            {
              "internalType": "bool",
              "name": "isPayable",
              "type": "bool"
            },
            {
              "internalType": "uint256",
              "name": "expiryTime",
              "type": "uint256"
            },
            {
              "internalType": "uint256[]",
              "name": "fundDistribution",
              "type": "uint256[]"
            },
            {
              "internalType": "address",
              "name": "initiatingParty",
              "type": "address"
            },
            {
              "internalType": "address[]",
              "name": "parties",
              "type": "address[]"
            },
            {
              "internalType": "string",
              "name": "contractName",
              "type": "string"
            },
            {
              "internalType": "string",
              "name": "document",
              "type": "string"
            }
          ],
          "internalType": "struct IContractInit.CompleteContractData",
          "name": "_contractData",
          "type": "tuple"
        },
        {
          "internalType": "address",
          "name": "_daiTokenAddress",
          "type": "address"
        }
      ],
      "name": "initialize",
      "outputs": [],
      "stateMutability": "nonpayable",
      "type": "function"
    },
    {
      "inputs": [],
      "name": "finalApproval",
      "outputs": [],
      "stateMutability": "nonpayable",
      "type": "function"
    }
  ],
  "bytecode": "0x608060405260008060006101000a81548160ff0219169083600481111561004f577f4e487b7100000000000000000000000000000000000000000000000000000000600052602160045260246000fd5b021790555034801561006057600080fd5b50612241806100706000396000f3fe608060405234801561001057600080fd5b506004361061004c5760003560e01c806319ffb96014610051578063345162031461006d5780638f96e85014610077578063f10746f414610095575b600080fd5b61006b6004803603810190610066919061101a565b6100b3565b005b610075610363565b005b61007f6104d2565b60405161008c91906114a8565b60405180910390f35b61009d610771565b6040516100aa91906114ca565b60405180910390f35b600060029054906101000a900460ff166100dd57600060019054906101000a900460ff16156100e6565b6100e561092c565b5b610125576040517f08c379a000000000000000000000000000000000000000000000000000000000815260040161011c90611448565b60405180910390fd5b60008060029054906101000a900460ff161590508015610176576001600060026101000a81548160ff0219169083151502179055506001600060016101000a81548160ff0219169083151502179055505b82600181816101859190612146565b90505081600860006101000a81548173ffffffffffffffffffffffffffffffffffffffff021916908373ffffffffffffffffffffffffffffffffffffffff1602179055508260000160208101906101dc9190610fc8565b156102fe5760005b8380604001906101f4919061153c565b90508110156102fc5783806040019061020d919061153c565b82818110610244577f4e487b7100000000000000000000000000000000000000000000000000000000600052603260045260246000fd5b90506020020135600a600086806080019061025f91906114e5565b85818110610296577f4e487b7100000000000000000000000000000000000000000000000000000000600052603260045260246000fd5b90506020020160208101906102ab9190610f9f565b73ffffffffffffffffffffffffffffffffffffffff1673ffffffffffffffffffffffffffffffffffffffff1681526020019081526020016000208190555080806102f490611bec565b9150506101e4565b505b61030661093d565b7f3862dd748e1ca79fcd6f7cfb2a40db495da62a25761b04bdddbb073b0e548cd6306040516103359190611384565b60405180910390a1801561035e5760008060026101000a81548160ff0219169083151502179055505b505050565b600160030160009054906101000a900473ffffffffffffffffffffffffffffffffffffffff1673ffffffffffffffffffffffffffffffffffffffff163373ffffffffffffffffffffffffffffffffffffffff16146103f6576040517f08c379a00000000000000000000000000000000000000000000000000000000081526004016103ed90611408565b60405180910390fd5b6104006001610aac565b6001151561040c610b6e565b15151461044e576040517f08c379a0000000000000000000000000000000000000000000000000000000008152600401610445906113e8565b60405180910390fd5b6001600860146101000a81548160ff02191690831515021790555060011515600160000160009054906101000a900460ff161515141561049157610490610c6c565b5b61049961093d565b7f652558422eb93dbb1c6760141371fc8419f87938d1fa47dec3e6614ce07f72a5306040516104c89190611384565b60405180910390a1565b6104da610ef0565b60016040518060e00160405290816000820160009054906101000a900460ff16151515158152602001600182015481526020016002820180548060200260200160405190810160405280929190818152602001828054801561055b57602002820191906000526020600020905b815481526020019060010190808311610547575b505050505081526020016003820160009054906101000a900473ffffffffffffffffffffffffffffffffffffffff1673ffffffffffffffffffffffffffffffffffffffff1673ffffffffffffffffffffffffffffffffffffffff1681526020016004820180548060200260200160405190810160405280929190818152602001828054801561063f57602002820191906000526020600020905b8160009054906101000a900473ffffffffffffffffffffffffffffffffffffffff1673ffffffffffffffffffffffffffffffffffffffff16815260200190600101908083116105f5575b5050505050815260200160058201805461065890611b9e565b80601f016020809104026020016040519081016040528092919081815260200182805461068490611b9e565b80156106d15780601f106106a6576101008083540402835291602001916106d1565b820191906000526020600020905b8154815290600101906020018083116106b457829003601f168201915b505050505081526020016006820180546106ea90611b9e565b80601f016020809104026020016040519081016040528092919081815260200182805461071690611b9e565b80156107635780601f1061073857610100808354040283529160200191610763565b820191906000526020600020905b81548152906001019060200180831161074657829003601f168201915b505050505081525050905090565b6000803373ffffffffffffffffffffffffffffffffffffffff16600160030160009054906101000a900473ffffffffffffffffffffffffffffffffffffffff1673ffffffffffffffffffffffffffffffffffffffff1614156107d657600190506108a0565b60005b60016004018054905081101561089e573373ffffffffffffffffffffffffffffffffffffffff166001600401828154811061083d577f4e487b7100000000000000000000000000000000000000000000000000000000600052603260045260246000fd5b9060005260206000200160009054906101000a900473ffffffffffffffffffffffffffffffffffffffff1673ffffffffffffffffffffffffffffffffffffffff16141561088d576001915061089e565b8061089790611bec565b90506107d9565b505b806108e0576040517f08c379a00000000000000000000000000000000000000000000000000000000081526004016108d790611468565b60405180910390fd5b60008054906101000a900460ff166004811115610926577f4e487b7100000000000000000000000000000000000000000000000000000000600052602160045260246000fd5b91505090565b600061093730610ecd565b15905090565b6002600160008054906101000a900460ff166004811115610987577f4e487b7100000000000000000000000000000000000000000000000000000000600052602160045260246000fd5b610991919061173d565b11156109d2576040517f08c379a00000000000000000000000000000000000000000000000000000000081526004016109c9906113c8565b60405180910390fd5b600160008054906101000a900460ff166004811115610a1a577f4e487b7100000000000000000000000000000000000000000000000000000000600052602160045260246000fd5b610a24919061173d565b6004811115610a5c577f4e487b7100000000000000000000000000000000000000000000000000000000600052602160045260246000fd5b6000806101000a81548160ff02191690836004811115610aa5577f4e487b7100000000000000000000000000000000000000000000000000000000600052602160045260246000fd5b0217905550565b806004811115610ae5577f4e487b7100000000000000000000000000000000000000000000000000000000600052602160045260246000fd5b60008054906101000a900460ff166004811115610b2b577f4e487b7100000000000000000000000000000000000000000000000000000000600052602160045260246000fd5b14610b6b576040517f08c379a0000000000000000000000000000000000000000000000000000000008152600401610b6290611488565b60405180910390fd5b50565b6000806001905060005b600160040180549050811015610c6457600015156009600060016004018481548110610bcd577f4e487b7100000000000000000000000000000000000000000000000000000000600052603260045260246000fd5b9060005260206000200160009054906101000a900473ffffffffffffffffffffffffffffffffffffffff1673ffffffffffffffffffffffffffffffffffffffff1673ffffffffffffffffffffffffffffffffffffffff16815260200190815260200160002060009054906101000a900460ff1615151415610c515760009150610c64565b8080610c5c90611bec565b915050610b78565b508091505090565b60005b600160040180549050811015610e93576000600860009054906101000a900473ffffffffffffffffffffffffffffffffffffffff1673ffffffffffffffffffffffffffffffffffffffff1663a9059cbb60016004018481548110610cfc577f4e487b7100000000000000000000000000000000000000000000000000000000600052603260045260246000fd5b9060005260206000200160009054906101000a900473ffffffffffffffffffffffffffffffffffffffff16600a600060016004018781548110610d68577f4e487b7100000000000000000000000000000000000000000000000000000000600052603260045260246000fd5b9060005260206000200160009054906101000a900473ffffffffffffffffffffffffffffffffffffffff1673ffffffffffffffffffffffffffffffffffffffff1673ffffffffffffffffffffffffffffffffffffffff168152602001908152602001600020546040518363ffffffff1660e01b8152600401610deb92919061139f565b602060405180830381600087803b158015610e0557600080fd5b505af1158015610e19573d6000803e3d6000fd5b505050506040513d601f19601f82011682018060405250810190610e3d9190610ff1565b905080610e7f576040517f08c379a0000000000000000000000000000000000000000000000000000000008152600401610e7690611428565b60405180910390fd5b508080610e8b90611bec565b915050610c6f565b507fdf8d8efd852d6ee5e48dcbe2ab0f55b5413c5d2c3839ee3aed11adab642d0c3e30604051610ec39190611384565b60405180910390a1565b6000808273ffffffffffffffffffffffffffffffffffffffff163b119050919050565b6040518060e001604052806000151581526020016000815260200160608152602001600073ffffffffffffffffffffffffffffffffffffffff1681526020016060815260200160608152602001606081525090565b600081359050610f54816121c1565b92915050565b600081359050610f69816121d8565b92915050565b600081519050610f7e816121d8565b92915050565b600060e08284031215610f9657600080fd5b81905092915050565b600060208284031215610fb157600080fd5b6000610fbf84828501610f45565b91505092915050565b600060208284031215610fda57600080fd5b6000610fe884828501610f5a565b91505092915050565b60006020828403121561100357600080fd5b600061101184828501610f6f565b91505092915050565b6000806040838503121561102d57600080fd5b600083013567ffffffffffffffff81111561104757600080fd5b61105385828601610f84565b925050602061106485828601610f45565b9150509250929050565b600061107a838361109e565b60208301905092915050565b60006110928383611366565b60208301905092915050565b6110a781611793565b82525050565b6110b681611793565b82525050565b60006110c782611692565b6110d181856116f9565b93506110dc8361161e565b8060005b8381101561110d5781516110f4888261106e565b97506110ff836116df565b9250506001810190506110e0565b5085935050505092915050565b6000611125826116b3565b61112f818561170a565b935061113a8361164d565b8060005b8381101561116b5781516111528882611086565b975061115d836116ec565b92505060018101905061113e565b5085935050505092915050565b611181816117a5565b82525050565b6000611192826116d4565b61119c818561171b565b93506111ac818560208601611a80565b6111b581611e08565b840191505092915050565b60006111cd600d8361172c565b91506111d882611e58565b602082019050919050565b60006111f0601d8361172c565b91506111fb82611e81565b602082019050919050565b600061121360148361172c565b915061121e82611eaa565b602082019050919050565b600061123660138361172c565b915061124182611ed3565b602082019050919050565b6000611259602e8361172c565b915061126482611efc565b604082019050919050565b600061127c601b8361172c565b915061128782611f4b565b602082019050919050565b600061129f60158361172c565b91506112aa82611f74565b602082019050919050565b600060e0830160008301516112cd6000860182611178565b5060208301516112e06020860182611366565b50604083015184820360408601526112f8828261111a565b915050606083015161130d606086018261109e565b506080830151848203608086015261132582826110bc565b91505060a083015184820360a086015261133f8282611187565b91505060c083015184820360c08601526113598282611187565b9150508091505092915050565b61136f816117d1565b82525050565b61137e816117d1565b82525050565b600060208201905061139960008301846110ad565b92915050565b60006040820190506113b460008301856110ad565b6113c16020830184611375565b9392505050565b600060208201905081810360008301526113e1816111c0565b9050919050565b60006020820190508181036000830152611401816111e3565b9050919050565b6000602082019050818103600083015261142181611206565b9050919050565b6000602082019050818103600083015261144181611229565b9050919050565b600060208201905081810360008301526114618161124c565b9050919050565b600060208201905081810360008301526114818161126f565b9050919050565b600060208201905081810360008301526114a181611292565b9050919050565b600060208201905081810360008301526114c281846112b5565b905092915050565b60006020820190506114df6000830184611375565b92915050565b600080833560016020038436030381126114fe57600080fd5b80840192508235915067ffffffffffffffff82111561151c57600080fd5b60208301925060208202360383131561153457600080fd5b509250929050565b6000808335600160200384360303811261155557600080fd5b80840192508235915067ffffffffffffffff82111561157357600080fd5b60208301925060208202360383131561158b57600080fd5b509250929050565b600080833560016020038436030381126115ac57600080fd5b80840192508235915067ffffffffffffffff8211156115ca57600080fd5b6020830192506001820236038313156115e257600080fd5b509250929050565b60008190506001806001038301049050919050565b60008190506001806001038301049050919050565b6000819050919050565b6000819050602082019050919050565b60008190508160005260206000209050919050565b6000819050919050565b6000819050602082019050919050565b60008190508160005260206000209050919050565b60008190508160005260206000209050919050565b600082905092915050565b600081519050919050565b600081549050919050565b600082905092915050565b600081519050919050565b600081549050919050565b600082905092915050565b600081519050919050565b6000602082019050919050565b6000602082019050919050565b600082825260208201905092915050565b600082825260208201905092915050565b600082825260208201905092915050565b600082825260208201905092915050565b6000611748826117d1565b9150611753836117d1565b9250827fffffffffffffffffffffffffffffffffffffffffffffffffffffffffffffffff0382111561178857611787611c53565b5b828201905092915050565b600061179e826117b1565b9050919050565b60008115159050919050565b600073ffffffffffffffffffffffffffffffffffffffff82169050919050565b6000819050919050565b5b818110156117fa576117ef600082611e40565b6001810190506117dc565b5050565b5b8181101561181d57611812600082611e40565b6001810190506117ff565b5050565b5b8181101561184057611835600082611e40565b600181019050611822565b5050565b600061184f82611868565b9050919050565b6000611861826117a5565b9050919050565b60006118738261187a565b9050919050565b6000611885826117b1565b9050919050565b6000611897826117d1565b9050919050565b6118a88383611687565b6118b28183611d40565b6118bb83611614565b6118c48361162e565b6000805b848110156118ff57836118da81611cfe565b90506118e7818486612177565b602085019450600184019350506001810190506118c8565b5050505050505050565b61191383836116a8565b61191d8183611da4565b61192683611643565b61192f8361165d565b6000805b8481101561196a578361194581611d2a565b905061195281848661219c565b60208501945060018401935050600181019050611933565b5050505050505050565b61197e83836116c9565b67ffffffffffffffff81111561199757611996611cb1565b5b6119a18254611b9e565b600080601f8411601f841117156119be576119bb85611672565b90505b601f8311156119f1576020601f850104810160208510156119dd578190505b6119ef6020601f8601048301826117fe565b505b601f841160018114611a1e5760008515611a0c578388013590505b611a168682611bd0565b875550611a76565b601f1985168260005b82811015611a4c57858a01358255600182019150602086019550602081019050611a27565b87831015611a6957858a0135611a65601f8a1682611c35565b8355505b6001600289020189555050505b5050505050505050565b60005b83811015611a9e578082015181840152602081019050611a83565b83811115611aad576000848401525b50505050565b600081016000830180611ac581611d14565b9050611ad18184612113565b505050600181016020830180611ae681611d2a565b9050611af28184612154565b5050506002810160408301611b07818561153c565b611b12818386612103565b50505050600381016060830180611b2881611cfe565b9050611b3481846120d0565b5050506004810160808301611b4981856114e5565b611b548183866120f3565b505050506005810160a08301611b6a8185611593565b611b75818386612136565b505050506006810160c08301611b8b8185611593565b611b96818386612136565b505050505050565b60006002820490506001821680611bb657607f821691505b60208210811415611bca57611bc9611c82565b5b50919050565b6000611bdc8383611c35565b9150826002028217905092915050565b6000611bf7826117d1565b91507fffffffffffffffffffffffffffffffffffffffffffffffffffffffffffffffff821415611c2a57611c29611c53565b5b600182019050919050565b6000611c4660001984600802611e33565b1980831691505092915050565b7f4e487b7100000000000000000000000000000000000000000000000000000000600052601160045260246000fd5b7f4e487b7100000000000000000000000000000000000000000000000000000000600052602260045260246000fd5b7f4e487b7100000000000000000000000000000000000000000000000000000000600052604160045260246000fd5b6000819050919050565b6000819050919050565b6000819050919050565b60008135611d0b816121c1565b80915050919050565b60008135611d21816121d8565b80915050919050565b60008135611d37816121ef565b80915050919050565b68010000000000000000821115611d5a57611d59611cb1565b5b611d638161169d565b82825580831015611d9f57611d77816115ea565b611d80846115ea565b611d898461162e565b818101838201611d9981836117db565b50505050505b505050565b68010000000000000000821115611dbe57611dbd611cb1565b5b611dc7816116be565b82825580831015611e0357611ddb816115ff565b611de4846115ff565b611ded8461165d565b818101838201611dfd8183611821565b50505050505b505050565b6000601f19601f8301169050919050565b60008160001b9050919050565b600082821b905092915050565b600082821c905092915050565b611e48612206565b611e5381848461219c565b505050565b7f496e76616c696420737461676500000000000000000000000000000000000000600082015250565b7f416c6c20706172746965732068617665206e6f7420617070726f766564000000600082015250565b7f4e6f7420696e6974696174696e67207061727479000000000000000000000000600082015250565b7f444149207472616e73666572206661696c656400000000000000000000000000600082015250565b7f496e697469616c697a61626c653a20636f6e747261637420697320616c72656160008201527f647920696e697469616c697a6564000000000000000000000000000000000000602082015250565b7f4e6f74206120706172747920746f2074686520636f6e74726163740000000000600082015250565b7f4e6f7420696e2065787065637465642073746167650000000000000000000000600082015250565b600060ff611faa84611e19565b9350801983169250808416831791505092915050565b600073ffffffffffffffffffffffffffffffffffffffff611fe084611e19565b9350801983169250808416831791505092915050565b60007fffffffffffffffffffffffffffffffffffffffffffffffffffffffffffffffff61202284611e19565b9350801983169250808416831791505092915050565b60006008830261205c73ffffffffffffffffffffffffffffffffffffffff82611e26565b6120668683611e26565b95508019841693508086168417925050509392505050565b6000600883026120ae7fffffffffffffffffffffffffffffffffffffffffffffffffffffffffffffffff82611e26565b6120b88683611e26565b95508019841693508086168417925050509392505050565b6120d982611844565b6120ec6120e582611ce0565b8354611fc0565b8255505050565b6120fe83838361189e565b505050565b61210e838383611909565b505050565b61211c82611856565b61212f61212882611cea565b8354611f9d565b8255505050565b612141838383611974565b505050565b6121508282611ab3565b5050565b61215d8261188c565b61217061216982611cf4565b8354611ff6565b8255505050565b61218083611844565b61219461218c82611ce0565b848454612038565b825550505050565b6121a58361188c565b6121b96121b182611cf4565b84845461207e565b825550505050565b6121ca81611793565b81146121d557600080fd5b50565b6121e1816117a5565b81146121ec57600080fd5b50565b6121f8816117d1565b811461220357600080fd5b50565b60009056fea2646970667358221220b35b6ce64f97234818faf130cb278bd6a42fb166f4b2ccf59f1787861785569564736f6c63430008020033",
  "immutableReferences": {},
  "source": "// SPDX-License-Identifier: MIT\r\npragma solidity ^0.8.2;\r\n\r\nimport \"@openzeppelin/contracts/token/ERC20/IERC20.sol\";\r\nimport \"@openzeppelin/contracts/proxy/utils/Initializable.sol\";\r\nimport \"./interfaces/IContractInit.sol\";\r\nimport \"./ContractStages.sol\";\r\n\r\ncontract ContractController is IContractInit, ContractStages, Initializable {\r\n    CompleteContractData contractData;\r\n    address daiTokenAddress;\r\n    bool isFinalApprovalCompleted;\r\n\r\n    mapping(address => bool) hasPartyApproved;\r\n    mapping(address => uint) fundDistribution;\r\n\r\n    event contractInitialized(address contractAddress);\r\n    event partyApproved(address party, address contractAddress);\r\n    event finalApprovalCompleted(address contractAddress);\r\n    event paymentExecuted(address contractAddress);\r\n    event contractRejectedByParty(address party, address contractAddress);\r\n\r\n    modifier onlyInitiator() {\r\n        require(msg.sender == contractData.initiatingParty, \"Not initiating party\");\r\n        _;\r\n    }\r\n\r\n    modifier onlyParty() {\r\n        bool isParty;\r\n        if (contractData.initiatingParty == msg.sender) {\r\n            isParty = true;\r\n        } else {\r\n            for (uint i = 0; i < contractData.parties.length; ++i) {\r\n                if (contractData.parties[i] == msg.sender) {\r\n                    isParty = true;\r\n                    break;\r\n                }\r\n            }\r\n        }\r\n        require(isParty, \"Not a party to the contract\");\r\n        _;\r\n    }\r\n\r\n    function allPartiesApproved() private view returns(bool) {\r\n        bool approved = true ;\r\n        for(uint i=0;i<contractData.parties.length;i++){\r\n            if(hasPartyApproved[contractData.parties[i]]==false){\r\n                approved = false;\r\n                break;\r\n            }            \r\n        }\r\n        return approved;\r\n    }\r\n\r\n    function getContractStage() external view onlyParty returns (uint) {\r\n        return uint(currentStage);\r\n    }\r\n\r\n    function viewContractData() external view returns (CompleteContractData memory) {\r\n        return contractData;\r\n    }\r\n\r\n    function makePayment() private {\r\n        for (uint i=0; i < contractData.parties.length; i++) {\r\n            bool success = IERC20(daiTokenAddress).transfer(\r\n                contractData.parties[i],\r\n                fundDistribution[contractData.parties[i]]\r\n            );\r\n            require(success, \"DAI transfer failed\");\r\n        }\r\n        emit paymentExecuted(address(this));\r\n    }\r\n\r\n    function initialize(\r\n        CompleteContractData calldata _contractData,\r\n        address _daiTokenAddress\r\n    )\r\n        external \r\n        initializer\r\n    {\r\n        contractData = _contractData;\r\n        daiTokenAddress = _daiTokenAddress;\r\n        if (_contractData.isPayable) {\r\n            for (uint i=0; i < _contractData.fundDistribution.length; i++) {\r\n                fundDistribution[_contractData.parties[i]] = _contractData.fundDistribution[i];\r\n            }\r\n        }\r\n        _nextStage();\r\n        emit contractInitialized(address(this));\r\n    }\r\n\r\n    function finalApproval() external onlyInitiator {\r\n        _atStage(ContractManagementStages.FinalApprovalPending);\r\n        require(allPartiesApproved() == true, \"All parties have not approved\");\r\n        isFinalApprovalCompleted = true;\r\n        if (contractData.isPayable == true) {\r\n            makePayment();\r\n        }\r\n        _nextStage();\r\n        emit finalApprovalCompleted(address(this));\r\n    } \r\n}",
  "sourcePath": "E:\\SOE CUSAT\\S6\\Mini-project\\Code\\CMSB\\truffle\\contracts\\ContractController.sol",
  "compiler": {
    "name": "solc",
    "version": "0.8.2+commit.661d1103.Emscripten.clang"
  },
  "schemaVersion": "3.4.5",
  "updatedAt": "2022-03-12T09:01:49.100Z",
  "devdoc": {
    "kind": "dev",
    "methods": {},
    "version": 1
  },
  "userdoc": {
    "kind": "user",
    "methods": {},
    "version": 1
  }
}