{
  "contractName": "ContractStages",
  "abi": [
    {
      "inputs": [],
      "name": "getStage",
      "outputs": [
        {
          "internalType": "uint256",
          "name": "",
          "type": "uint256"
        }
      ],
      "stateMutability": "view",
      "type": "function"
    },
    {
      "inputs": [
        {
          "internalType": "uint8",
          "name": "_offset",
          "type": "uint8"
        }
      ],
      "name": "jumpStage",
      "outputs": [],
      "stateMutability": "nonpayable",
      "type": "function"
    }
  ],
  "bytecode": "0x608060405260008060006101000a81548160ff0219169083600581111561004f577f4e487b7100000000000000000000000000000000000000000000000000000000600052602160045260246000fd5b021790555034801561006057600080fd5b506102f1806100706000396000f3fe608060405234801561001057600080fd5b50600436106100365760003560e01c8063c7986f4d1461003b578063fcaa766414610057575b600080fd5b610055600480360381019061005091906101b5565b610075565b005b61005f610152565b60405161006c91906101ed565b60405180910390f35b8060ff1660008054906101000a900460ff1660058111156100bf577f4e487b7100000000000000000000000000000000000000000000000000000000600052602160045260246000fd5b6100c99190610208565b6005811115610101577f4e487b7100000000000000000000000000000000000000000000000000000000600052602160045260246000fd5b6000806101000a81548160ff0219169083600581111561014a577f4e487b7100000000000000000000000000000000000000000000000000000000600052602160045260246000fd5b021790555050565b60008060009054906101000a900460ff16600581111561019b577f4e487b7100000000000000000000000000000000000000000000000000000000600052602160045260246000fd5b905090565b6000813590506101af816102a4565b92915050565b6000602082840312156101c757600080fd5b60006101d5848285016101a0565b91505092915050565b6101e78161025e565b82525050565b600060208201905061020260008301846101de565b92915050565b60006102138261025e565b915061021e8361025e565b9250827fffffffffffffffffffffffffffffffffffffffffffffffffffffffffffffffff0382111561025357610252610275565b5b828201905092915050565b6000819050919050565b600060ff82169050919050565b7f4e487b7100000000000000000000000000000000000000000000000000000000600052601160045260246000fd5b6102ad81610268565b81146102b857600080fd5b5056fea2646970667358221220922fa04d74c3421c7199078b003d6ff2f4e53dcb8f2a317f1fa7533bf20b5c9264736f6c63430008020033",
  "immutableReferences": {},
  "source": "// SPDX-License-Identifier: MIT\r\npragma solidity ^0.8.2;\r\n\r\ncontract ContractStages {\r\n\r\n    enum ContractManagementStages {\r\n        Initiation,\r\n        PartiesApproved,\r\n        FinallyApproved,\r\n        Execution,\r\n        Expired,\r\n        Rejected\r\n    }\r\n\r\n    ContractManagementStages internal currentStage = ContractManagementStages.Initiation;\r\n\r\n    function getStage() external view returns (uint) {\r\n        return uint(currentStage);\r\n    }\r\n\r\n    function jumpStage(uint8 _offset) external {\r\n        currentStage = ContractManagementStages(uint(currentStage) + _offset);\r\n    }\r\n}",
  "sourcePath": "E:/SOE CUSAT/S6/Mini-project/Code/CMSB/truffle/contracts/ContractStages.sol",
  "compiler": {
    "name": "solc",
    "version": "0.8.2+commit.661d1103.Emscripten.clang"
  },
  "schemaVersion": "3.4.1",
  "updatedAt": "2022-02-18T09:35:51.506Z",
  "devdoc": {
    "kind": "dev",
    "methods": {},
    "version": 1
  },
  "userdoc": {
    "kind": "user",
    "methods": {},
    "version": 1
  }
}