{
  "contractName": "ContractFactory",
  "abi": [
    {
      "inputs": [
        {
          "internalType": "address",
          "name": "_daiTokenAddress",
          "type": "address"
        }
      ],
      "stateMutability": "nonpayable",
      "type": "constructor"
    },
    {
      "anonymous": false,
      "inputs": [
        {
          "indexed": false,
          "internalType": "uint256",
          "name": "",
          "type": "uint256"
        }
      ],
      "name": "createdNewDraftContract",
      "type": "event"
    },
    {
      "inputs": [],
      "name": "baseContract",
      "outputs": [
        {
          "internalType": "address",
          "name": "",
          "type": "address"
        }
      ],
      "stateMutability": "view",
      "type": "function"
    },
    {
      "inputs": [
        {
          "internalType": "uint256",
          "name": "",
          "type": "uint256"
        }
      ],
      "name": "contractsList",
      "outputs": [
        {
          "internalType": "uint256",
          "name": "id",
          "type": "uint256"
        },
        {
          "internalType": "address",
          "name": "contractAddress",
          "type": "address"
        },
        {
          "internalType": "address",
          "name": "initiatingParty",
          "type": "address"
        }
      ],
      "stateMutability": "view",
      "type": "function"
    },
    {
      "inputs": [],
      "name": "daiTokenAddress",
      "outputs": [
        {
          "internalType": "address",
          "name": "",
          "type": "address"
        }
      ],
      "stateMutability": "view",
      "type": "function"
    },
    {
      "inputs": [],
      "name": "getContractsCount",
      "outputs": [
        {
          "internalType": "uint256",
          "name": "",
          "type": "uint256"
        }
      ],
      "stateMutability": "view",
      "type": "function"
    },
    {
      "inputs": [],
      "name": "getMyContracts",
      "outputs": [
        {
          "internalType": "address[]",
          "name": "",
          "type": "address[]"
        }
      ],
      "stateMutability": "view",
      "type": "function"
    },
    {
      "inputs": [
        {
          "components": [
            {
              "internalType": "bool",
              "name": "isPayable",
              "type": "bool"
            },
            {
              "internalType": "uint256",
              "name": "expiryTime",
              "type": "uint256"
            },
            {
              "internalType": "uint256[]",
              "name": "fundDistribution",
              "type": "uint256[]"
            },
            {
              "internalType": "address",
              "name": "initiatingParty",
              "type": "address"
            },
            {
              "internalType": "address[]",
              "name": "parties",
              "type": "address[]"
            },
            {
              "internalType": "string",
              "name": "contractName",
              "type": "string"
            },
            {
              "internalType": "string",
              "name": "document",
              "type": "string"
            }
          ],
          "internalType": "struct IContractInit.CompleteContractData",
          "name": "_contractData",
          "type": "tuple"
        }
      ],
      "name": "initiateContract",
      "outputs": [],
      "stateMutability": "nonpayable",
      "type": "function"
    }
  ],
  "bytecode": "0x60a06040523480156200001157600080fd5b5060405162003f4338038062003f43833981810160405281019062000037919062000105565b806000806101000a81548173ffffffffffffffffffffffffffffffffffffffff021916908373ffffffffffffffffffffffffffffffffffffffff1602179055506040516200008590620000e0565b604051809103906000f080158015620000a2573d6000803e3d6000fd5b5073ffffffffffffffffffffffffffffffffffffffff1660808173ffffffffffffffffffffffffffffffffffffffff1660601b81525050506200017f565b612741806200180283390190565b600081519050620000ff8162000165565b92915050565b6000602082840312156200011857600080fd5b60006200012884828501620000ee565b91505092915050565b60006200013e8262000145565b9050919050565b600073ffffffffffffffffffffffffffffffffffffffff82169050919050565b620001708162000131565b81146200017c57600080fd5b50565b60805160601c61165d620001a5600039600081816101580152610540015261165d6000f3fe608060405234801561001057600080fd5b50600436106100625760003560e01c80632eaee35e146100675780634a43fc7d146100855780635b32619c146100a15780639683584f146100bf578063c81bde15146100dd578063f8079052146100fb575b600080fd5b61006f61012d565b60405161007c9190611064565b60405180910390f35b61009f600480360381019061009a9190610d20565b610151565b005b6100a961053e565b6040516100b69190611064565b60405180910390f35b6100c7610562565b6040516100d49190611148565b60405180910390f35b6100e561056f565b6040516100f291906110b6565b60405180910390f35b61011560048036038101906101109190610d61565b6107e4565b60405161012493929190611163565b60405180910390f35b60008054906101000a900473ffffffffffffffffffffffffffffffffffffffff1681565b600061017c7f000000000000000000000000000000000000000000000000000000000000000061085e565b90506001604051806080016040528060018054905081526020018373ffffffffffffffffffffffffffffffffffffffff1681526020013373ffffffffffffffffffffffffffffffffffffffff1681526020018480608001906101de919061119a565b80806020026020016040519081016040528093929190818152602001838360200280828437600081840152601f19601f8201169050808301925050505050505081525090806001815401808255809150506001900390600052602060002090600402016000909190919091506000820151816000015560208201518160010160006101000a81548173ffffffffffffffffffffffffffffffffffffffff021916908373ffffffffffffffffffffffffffffffffffffffff16021790555060408201518160020160006101000a81548173ffffffffffffffffffffffffffffffffffffffff021916908373ffffffffffffffffffffffffffffffffffffffff16021790555060608201518160030190805190602001906102fe929190610bb8565b5050508073ffffffffffffffffffffffffffffffffffffffff166319ffb9608360008054906101000a900473ffffffffffffffffffffffffffffffffffffffff166040518363ffffffff1660e01b815260040161035c929190611118565b600060405180830381600087803b15801561037657600080fd5b505af115801561038a573d6000803e3d6000fd5b505050508160000160208101906103a19190610cce565b156104f35760008060009054906101000a900473ffffffffffffffffffffffffffffffffffffffff1673ffffffffffffffffffffffffffffffffffffffff166323b872dd338461043f8780604001906103fa91906111f1565b80806020026020016040519081016040528093929190818152602001838360200280828437600081840152601f19601f82011690508083019250505050505050610933565b6040518463ffffffff1660e01b815260040161045d9392919061107f565b602060405180830381600087803b15801561047757600080fd5b505af115801561048b573d6000803e3d6000fd5b505050506040513d601f19601f820116820180604052508101906104af9190610cf7565b9050806104f1576040517f08c379a00000000000000000000000000000000000000000000000000000000081526004016104e8906110d8565b60405180910390fd5b505b7f4c9f2cb57a212dfc6f0c1077b5a129c78ad19ce9f28d69de66cede182e9f03aa60018080549050610525919061147c565b6040516105329190611148565b60405180910390a15050565b7f000000000000000000000000000000000000000000000000000000000000000081565b6000600180549050905090565b60606000805b6001805490508110156105fc576105d733600183815481106105c0577f4e487b7100000000000000000000000000000000000000000000000000000000600052603260045260246000fd5b9060005260206000209060040201600001546109ab565b156105eb5781806105e790611507565b9250505b806105f590611507565b9050610575565b506000808267ffffffffffffffff811115610640577f4e487b7100000000000000000000000000000000000000000000000000000000600052604160045260246000fd5b60405190808252806020026020018201604052801561066e5781602001602082028036833780820191505090505b50905060005b6001805490508110156107da576106d633600183815481106106bf577f4e487b7100000000000000000000000000000000000000000000000000000000600052603260045260246000fd5b9060005260206000209060040201600001546109ab565b156107c95760018181548110610715577f4e487b7100000000000000000000000000000000000000000000000000000000600052603260045260246000fd5b906000526020600020906004020160010160009054906101000a900473ffffffffffffffffffffffffffffffffffffffff16828481518110610780577f4e487b7100000000000000000000000000000000000000000000000000000000600052603260045260246000fd5b602002602001019073ffffffffffffffffffffffffffffffffffffffff16908173ffffffffffffffffffffffffffffffffffffffff168152505082806107c590611507565b9350505b806107d390611507565b9050610674565b5080935050505090565b600181815481106107f457600080fd5b90600052602060002090600402016000915090508060000154908060010160009054906101000a900473ffffffffffffffffffffffffffffffffffffffff16908060020160009054906101000a900473ffffffffffffffffffffffffffffffffffffffff16905083565b60006040517f3d602d80600a3d3981f3363d3d373d3d3d363d7300000000000000000000000081528260601b60148201527f5af43d82803e903d91602b57fd5bf3000000000000000000000000000000000060288201526037816000f0915050600073ffffffffffffffffffffffffffffffffffffffff168173ffffffffffffffffffffffffffffffffffffffff16141561092e576040517f08c379a0000000000000000000000000000000000000000000000000000000008152600401610925906110f8565b60405180910390fd5b919050565b60008060005b83518110156109a15783818151811061097b577f4e487b7100000000000000000000000000000000000000000000000000000000600052603260045260246000fd5b60200260200101518261098e9190611426565b91508061099a90611507565b9050610939565b5080915050919050565b6000808373ffffffffffffffffffffffffffffffffffffffff16600184815481106109ff577f4e487b7100000000000000000000000000000000000000000000000000000000600052603260045260246000fd5b906000526020600020906004020160020160009054906101000a900473ffffffffffffffffffffffffffffffffffffffff1673ffffffffffffffffffffffffffffffffffffffff161415610a565760019050610bae565b60005b60018481548110610a93577f4e487b7100000000000000000000000000000000000000000000000000000000600052603260045260246000fd5b906000526020600020906004020160030180549050811015610bac578473ffffffffffffffffffffffffffffffffffffffff1660018581548110610b00577f4e487b7100000000000000000000000000000000000000000000000000000000600052603260045260246000fd5b90600052602060002090600402016003018281548110610b49577f4e487b7100000000000000000000000000000000000000000000000000000000600052603260045260246000fd5b9060005260206000200160009054906101000a900473ffffffffffffffffffffffffffffffffffffffff1673ffffffffffffffffffffffffffffffffffffffff161415610b995760019150610bac565b8080610ba490611507565b915050610a59565b505b8091505092915050565b828054828255906000526020600020908101928215610c31579160200282015b82811115610c305782518260006101000a81548173ffffffffffffffffffffffffffffffffffffffff021916908373ffffffffffffffffffffffffffffffffffffffff16021790555091602001919060010190610bd8565b5b509050610c3e9190610c42565b5090565b5b80821115610c5b576000816000905550600101610c43565b5090565b600081359050610c6e816115e2565b92915050565b600081359050610c83816115f9565b92915050565b600081519050610c98816115f9565b92915050565b600060e08284031215610cb057600080fd5b81905092915050565b600081359050610cc881611610565b92915050565b600060208284031215610ce057600080fd5b6000610cee84828501610c74565b91505092915050565b600060208284031215610d0957600080fd5b6000610d1784828501610c89565b91505092915050565b600060208284031215610d3257600080fd5b600082013567ffffffffffffffff811115610d4c57600080fd5b610d5884828501610c9e565b91505092915050565b600060208284031215610d7357600080fd5b6000610d8184828501610cb9565b91505092915050565b6000610d968383610da2565b60208301905092915050565b610dab816114b0565b82525050565b610dba816114b0565b82525050565b6000610dcc8385611287565b9350610dd782611248565b8060005b85811015610e1057610ded82846112dc565b610df78882610d8a565b9750610e028361126d565b925050600181019050610ddb565b5085925050509392505050565b6000610e2882611262565b610e328185611298565b9350610e3d83611252565b8060005b83811015610e6e578151610e558882610d8a565b9750610e608361127a565b925050600181019050610e41565b5085935050505092915050565b6000610e8783856112a9565b93507f07ffffffffffffffffffffffffffffffffffffffffffffffffffffffffffffff831115610eb657600080fd5b602083029250610ec78385846114f8565b82840190509392505050565b610edc816114c2565b82525050565b6000610eee83856112ba565b9350610efb8385846114f8565b610f048361157f565b840190509392505050565b6000610f1c6013836112cb565b9150610f2782611590565b602082019050919050565b6000610f3f6016836112cb565b9150610f4a826115b9565b602082019050919050565b600060e08301610f6860008401846113a1565b610f756000860182610ed3565b50610f83602084018461140f565b610f906020860182611046565b50610f9e604084018461134a565b8583036040870152610fb1838284610e7b565b92505050610fc260608401846112dc565b610fcf6060860182610da2565b50610fdd60808401846112f3565b8583036080870152610ff0838284610dc0565b9250505061100160a08401846113b8565b85830360a0870152611014838284610ee2565b9250505061102560c08401846113b8565b85830360c0870152611038838284610ee2565b925050508091505092915050565b61104f816114ee565b82525050565b61105e816114ee565b82525050565b60006020820190506110796000830184610db1565b92915050565b60006060820190506110946000830186610db1565b6110a16020830185610db1565b6110ae6040830184611055565b949350505050565b600060208201905081810360008301526110d08184610e1d565b905092915050565b600060208201905081810360008301526110f181610f0f565b9050919050565b6000602082019050818103600083015261111181610f32565b9050919050565b600060408201905081810360008301526111328185610f55565b90506111416020830184610db1565b9392505050565b600060208201905061115d6000830184611055565b92915050565b60006060820190506111786000830186611055565b6111856020830185610db1565b6111926040830184610db1565b949350505050565b600080833560016020038436030381126111b357600080fd5b80840192508235915067ffffffffffffffff8211156111d157600080fd5b6020830192506020820236038313156111e957600080fd5b509250929050565b6000808335600160200384360303811261120a57600080fd5b80840192508235915067ffffffffffffffff82111561122857600080fd5b60208301925060208202360383131561124057600080fd5b509250929050565b6000819050919050565b6000819050602082019050919050565b600081519050919050565b6000602082019050919050565b6000602082019050919050565b600082825260208201905092915050565b600082825260208201905092915050565b600082825260208201905092915050565b600082825260208201905092915050565b600082825260208201905092915050565b60006112eb6020840184610c5f565b905092915050565b6000808335600160200384360303811261130c57600080fd5b83810192508235915060208301925067ffffffffffffffff82111561133057600080fd5b60208202360384131561134257600080fd5b509250929050565b6000808335600160200384360303811261136357600080fd5b83810192508235915060208301925067ffffffffffffffff82111561138757600080fd5b60208202360384131561139957600080fd5b509250929050565b60006113b06020840184610c74565b905092915050565b600080833560016020038436030381126113d157600080fd5b83810192508235915060208301925067ffffffffffffffff8211156113f557600080fd5b60018202360384131561140757600080fd5b509250929050565b600061141e6020840184610cb9565b905092915050565b6000611431826114ee565b915061143c836114ee565b9250827fffffffffffffffffffffffffffffffffffffffffffffffffffffffffffffffff0382111561147157611470611550565b5b828201905092915050565b6000611487826114ee565b9150611492836114ee565b9250828210156114a5576114a4611550565b5b828203905092915050565b60006114bb826114ce565b9050919050565b60008115159050919050565b600073ffffffffffffffffffffffffffffffffffffffff82169050919050565b6000819050919050565b82818337600083830152505050565b6000611512826114ee565b91507fffffffffffffffffffffffffffffffffffffffffffffffffffffffffffffffff82141561154557611544611550565b5b600182019050919050565b7f4e487b7100000000000000000000000000000000000000000000000000000000600052601160045260246000fd5b6000601f19601f8301169050919050565b7f444149207472616e73666572206661696c656400000000000000000000000000600082015250565b7f455243313136373a20637265617465206661696c656400000000000000000000600082015250565b6115eb816114b0565b81146115f657600080fd5b50565b611602816114c2565b811461160d57600080fd5b50565b611619816114ee565b811461162457600080fd5b5056fea264697066735822122028f25d6b90c42f3efba78ffa0d1baa8aa276c009cff71f769fc7311df68d592964736f6c63430008020033608060405260008060006101000a81548160ff0219169083600481111561004f577f4e487b7100000000000000000000000000000000000000000000000000000000600052602160045260246000fd5b021790555034801561006057600080fd5b506126d1806100706000396000f3fe608060405234801561001057600080fd5b50600436106100625760003560e01c806319ffb9601461006757806331c84ea614610083578063345162031461008d57806343d00d04146100975780638f96e850146100a1578063f10746f4146100bf575b600080fd5b610081600480360381019061007c9190611481565b6100dd565b005b61008b61038d565b005b61009561053f565b005b61009f6106ae565b005b6100a96108b0565b6040516100b69190611938565b60405180910390f35b6100c7610b4f565b6040516100d4919061195a565b60405180910390f35b600060029054906101000a900460ff1661010757600060019054906101000a900460ff1615610110565b61010f610d0a565b5b61014f576040517f08c379a0000000000000000000000000000000000000000000000000000000008152600401610146906118d8565b60405180910390fd5b60008060029054906101000a900460ff1615905080156101a0576001600060026101000a81548160ff0219169083151502179055506001600060016101000a81548160ff0219169083151502179055505b82600181816101af91906125d6565b90505081600860006101000a81548173ffffffffffffffffffffffffffffffffffffffff021916908373ffffffffffffffffffffffffffffffffffffffff160217905550826000016020810190610206919061142f565b156103285760005b83806040019061021e91906119cc565b90508110156103265783806040019061023791906119cc565b8281811061026e577f4e487b7100000000000000000000000000000000000000000000000000000000600052603260045260246000fd5b90506020020135600a60008680608001906102899190611975565b858181106102c0577f4e487b7100000000000000000000000000000000000000000000000000000000600052603260045260246000fd5b90506020020160208101906102d59190611406565b73ffffffffffffffffffffffffffffffffffffffff1673ffffffffffffffffffffffffffffffffffffffff16815260200190815260200160002081905550808061031e9061207c565b91505061020e565b505b610330610d1b565b7f3862dd748e1ca79fcd6f7cfb2a40db495da62a25761b04bdddbb073b0e548cd63060405161035f91906117eb565b60405180910390a180156103885760008060026101000a81548160ff0219169083151502179055505b505050565b60003373ffffffffffffffffffffffffffffffffffffffff16600160030160009054906101000a900473ffffffffffffffffffffffffffffffffffffffff1673ffffffffffffffffffffffffffffffffffffffff1614156103f157600190506104bb565b60005b6001600401805490508110156104b9573373ffffffffffffffffffffffffffffffffffffffff1660016004018281548110610458577f4e487b7100000000000000000000000000000000000000000000000000000000600052603260045260246000fd5b9060005260206000200160009054906101000a900473ffffffffffffffffffffffffffffffffffffffff1673ffffffffffffffffffffffffffffffffffffffff1614156104a857600191506104b9565b806104b29061207c565b90506103f4565b505b806104fb576040517f08c379a00000000000000000000000000000000000000000000000000000000081526004016104f2906118f8565b60405180910390fd5b610503610e8a565b7fbae8547f50c16c22426d683b8d9d608d52e192e6acbf7bc7b8f6889fcd1fbb6d3330604051610534929190611806565b60405180910390a150565b600160030160009054906101000a900473ffffffffffffffffffffffffffffffffffffffff1673ffffffffffffffffffffffffffffffffffffffff163373ffffffffffffffffffffffffffffffffffffffff16146105d2576040517f08c379a00000000000000000000000000000000000000000000000000000000081526004016105c990611898565b60405180910390fd5b6105dc6001610f13565b600115156105e8610fd5565b15151461062a576040517f08c379a000000000000000000000000000000000000000000000000000000000815260040161062190611878565b60405180910390fd5b6001600860146101000a81548160ff02191690831515021790555060011515600160000160009054906101000a900460ff161515141561066d5761066c6110d3565b5b610675610d1b565b7f652558422eb93dbb1c6760141371fc8419f87938d1fa47dec3e6614ce07f72a5306040516106a491906117eb565b60405180910390a1565b60003373ffffffffffffffffffffffffffffffffffffffff16600160030160009054906101000a900473ffffffffffffffffffffffffffffffffffffffff1673ffffffffffffffffffffffffffffffffffffffff16141561071257600190506107dc565b60005b6001600401805490508110156107da573373ffffffffffffffffffffffffffffffffffffffff1660016004018281548110610779577f4e487b7100000000000000000000000000000000000000000000000000000000600052603260045260246000fd5b9060005260206000200160009054906101000a900473ffffffffffffffffffffffffffffffffffffffff1673ffffffffffffffffffffffffffffffffffffffff1614156107c957600191506107da565b806107d39061207c565b9050610715565b505b8061081c576040517f08c379a0000000000000000000000000000000000000000000000000000000008152600401610813906118f8565b60405180910390fd5b6001600960003373ffffffffffffffffffffffffffffffffffffffff1673ffffffffffffffffffffffffffffffffffffffff16815260200190815260200160002060006101000a81548160ff0219169083151502179055507f13a17564c18f94d8dc8dad308b368ddecc4b5869143a7e491b1eb6748ea7e67f33306040516108a5929190611806565b60405180910390a150565b6108b8611357565b60016040518060e00160405290816000820160009054906101000a900460ff16151515158152602001600182015481526020016002820180548060200260200160405190810160405280929190818152602001828054801561093957602002820191906000526020600020905b815481526020019060010190808311610925575b505050505081526020016003820160009054906101000a900473ffffffffffffffffffffffffffffffffffffffff1673ffffffffffffffffffffffffffffffffffffffff1673ffffffffffffffffffffffffffffffffffffffff16815260200160048201805480602002602001604051908101604052809291908181526020018280548015610a1d57602002820191906000526020600020905b8160009054906101000a900473ffffffffffffffffffffffffffffffffffffffff1673ffffffffffffffffffffffffffffffffffffffff16815260200190600101908083116109d3575b50505050508152602001600582018054610a369061202e565b80601f0160208091040260200160405190810160405280929190818152602001828054610a629061202e565b8015610aaf5780601f10610a8457610100808354040283529160200191610aaf565b820191906000526020600020905b815481529060010190602001808311610a9257829003601f168201915b50505050508152602001600682018054610ac89061202e565b80601f0160208091040260200160405190810160405280929190818152602001828054610af49061202e565b8015610b415780601f10610b1657610100808354040283529160200191610b41565b820191906000526020600020905b815481529060010190602001808311610b2457829003601f168201915b505050505081525050905090565b6000803373ffffffffffffffffffffffffffffffffffffffff16600160030160009054906101000a900473ffffffffffffffffffffffffffffffffffffffff1673ffffffffffffffffffffffffffffffffffffffff161415610bb45760019050610c7e565b60005b600160040180549050811015610c7c573373ffffffffffffffffffffffffffffffffffffffff1660016004018281548110610c1b577f4e487b7100000000000000000000000000000000000000000000000000000000600052603260045260246000fd5b9060005260206000200160009054906101000a900473ffffffffffffffffffffffffffffffffffffffff1673ffffffffffffffffffffffffffffffffffffffff161415610c6b5760019150610c7c565b80610c759061207c565b9050610bb7565b505b80610cbe576040517f08c379a0000000000000000000000000000000000000000000000000000000008152600401610cb5906118f8565b60405180910390fd5b60008054906101000a900460ff166004811115610d04577f4e487b7100000000000000000000000000000000000000000000000000000000600052602160045260246000fd5b91505090565b6000610d1530611334565b15905090565b6002600160008054906101000a900460ff166004811115610d65577f4e487b7100000000000000000000000000000000000000000000000000000000600052602160045260246000fd5b610d6f9190611bcd565b1115610db0576040517f08c379a0000000000000000000000000000000000000000000000000000000008152600401610da790611858565b60405180910390fd5b600160008054906101000a900460ff166004811115610df8577f4e487b7100000000000000000000000000000000000000000000000000000000600052602160045260246000fd5b610e029190611bcd565b6004811115610e3a577f4e487b7100000000000000000000000000000000000000000000000000000000600052602160045260246000fd5b6000806101000a81548160ff02191690836004811115610e83577f4e487b7100000000000000000000000000000000000000000000000000000000600052602160045260246000fd5b0217905550565b600480811115610ec3577f4e487b7100000000000000000000000000000000000000000000000000000000600052602160045260246000fd5b6000806101000a81548160ff02191690836004811115610f0c577f4e487b7100000000000000000000000000000000000000000000000000000000600052602160045260246000fd5b0217905550565b806004811115610f4c577f4e487b7100000000000000000000000000000000000000000000000000000000600052602160045260246000fd5b60008054906101000a900460ff166004811115610f92577f4e487b7100000000000000000000000000000000000000000000000000000000600052602160045260246000fd5b14610fd2576040517f08c379a0000000000000000000000000000000000000000000000000000000008152600401610fc990611918565b60405180910390fd5b50565b6000806001905060005b6001600401805490508110156110cb57600015156009600060016004018481548110611034577f4e487b7100000000000000000000000000000000000000000000000000000000600052603260045260246000fd5b9060005260206000200160009054906101000a900473ffffffffffffffffffffffffffffffffffffffff1673ffffffffffffffffffffffffffffffffffffffff1673ffffffffffffffffffffffffffffffffffffffff16815260200190815260200160002060009054906101000a900460ff16151514156110b857600091506110cb565b80806110c39061207c565b915050610fdf565b508091505090565b60005b6001600401805490508110156112fa576000600860009054906101000a900473ffffffffffffffffffffffffffffffffffffffff1673ffffffffffffffffffffffffffffffffffffffff1663a9059cbb60016004018481548110611163577f4e487b7100000000000000000000000000000000000000000000000000000000600052603260045260246000fd5b9060005260206000200160009054906101000a900473ffffffffffffffffffffffffffffffffffffffff16600a6000600160040187815481106111cf577f4e487b7100000000000000000000000000000000000000000000000000000000600052603260045260246000fd5b9060005260206000200160009054906101000a900473ffffffffffffffffffffffffffffffffffffffff1673ffffffffffffffffffffffffffffffffffffffff1673ffffffffffffffffffffffffffffffffffffffff168152602001908152602001600020546040518363ffffffff1660e01b815260040161125292919061182f565b602060405180830381600087803b15801561126c57600080fd5b505af1158015611280573d6000803e3d6000fd5b505050506040513d601f19601f820116820180604052508101906112a49190611458565b9050806112e6576040517f08c379a00000000000000000000000000000000000000000000000000000000081526004016112dd906118b8565b60405180910390fd5b5080806112f29061207c565b9150506110d6565b507fdf8d8efd852d6ee5e48dcbe2ab0f55b5413c5d2c3839ee3aed11adab642d0c3e3060405161132a91906117eb565b60405180910390a1565b6000808273ffffffffffffffffffffffffffffffffffffffff163b119050919050565b6040518060e001604052806000151581526020016000815260200160608152602001600073ffffffffffffffffffffffffffffffffffffffff1681526020016060815260200160608152602001606081525090565b6000813590506113bb81612651565b92915050565b6000813590506113d081612668565b92915050565b6000815190506113e581612668565b92915050565b600060e082840312156113fd57600080fd5b81905092915050565b60006020828403121561141857600080fd5b6000611426848285016113ac565b91505092915050565b60006020828403121561144157600080fd5b600061144f848285016113c1565b91505092915050565b60006020828403121561146a57600080fd5b6000611478848285016113d6565b91505092915050565b6000806040838503121561149457600080fd5b600083013567ffffffffffffffff8111156114ae57600080fd5b6114ba858286016113eb565b92505060206114cb858286016113ac565b9150509250929050565b60006114e18383611505565b60208301905092915050565b60006114f983836117cd565b60208301905092915050565b61150e81611c23565b82525050565b61151d81611c23565b82525050565b600061152e82611b22565b6115388185611b89565b935061154383611aae565b8060005b8381101561157457815161155b88826114d5565b975061156683611b6f565b925050600181019050611547565b5085935050505092915050565b600061158c82611b43565b6115968185611b9a565b93506115a183611add565b8060005b838110156115d25781516115b988826114ed565b97506115c483611b7c565b9250506001810190506115a5565b5085935050505092915050565b6115e881611c35565b82525050565b60006115f982611b64565b6116038185611bab565b9350611613818560208601611f10565b61161c81612298565b840191505092915050565b6000611634600d83611bbc565b915061163f826122e8565b602082019050919050565b6000611657601d83611bbc565b915061166282612311565b602082019050919050565b600061167a601483611bbc565b91506116858261233a565b602082019050919050565b600061169d601383611bbc565b91506116a882612363565b602082019050919050565b60006116c0602e83611bbc565b91506116cb8261238c565b604082019050919050565b60006116e3601b83611bbc565b91506116ee826123db565b602082019050919050565b6000611706601583611bbc565b915061171182612404565b602082019050919050565b600060e08301600083015161173460008601826115df565b50602083015161174760208601826117cd565b506040830151848203604086015261175f8282611581565b91505060608301516117746060860182611505565b506080830151848203608086015261178c8282611523565b91505060a083015184820360a08601526117a682826115ee565b91505060c083015184820360c08601526117c082826115ee565b9150508091505092915050565b6117d681611c61565b82525050565b6117e581611c61565b82525050565b60006020820190506118006000830184611514565b92915050565b600060408201905061181b6000830185611514565b6118286020830184611514565b9392505050565b60006040820190506118446000830185611514565b61185160208301846117dc565b9392505050565b6000602082019050818103600083015261187181611627565b9050919050565b600060208201905081810360008301526118918161164a565b9050919050565b600060208201905081810360008301526118b18161166d565b9050919050565b600060208201905081810360008301526118d181611690565b9050919050565b600060208201905081810360008301526118f1816116b3565b9050919050565b60006020820190508181036000830152611911816116d6565b9050919050565b60006020820190508181036000830152611931816116f9565b9050919050565b60006020820190508181036000830152611952818461171c565b905092915050565b600060208201905061196f60008301846117dc565b92915050565b6000808335600160200384360303811261198e57600080fd5b80840192508235915067ffffffffffffffff8211156119ac57600080fd5b6020830192506020820236038313156119c457600080fd5b509250929050565b600080833560016020038436030381126119e557600080fd5b80840192508235915067ffffffffffffffff821115611a0357600080fd5b602083019250602082023603831315611a1b57600080fd5b509250929050565b60008083356001602003843603038112611a3c57600080fd5b80840192508235915067ffffffffffffffff821115611a5a57600080fd5b602083019250600182023603831315611a7257600080fd5b509250929050565b60008190506001806001038301049050919050565b60008190506001806001038301049050919050565b6000819050919050565b6000819050602082019050919050565b60008190508160005260206000209050919050565b6000819050919050565b6000819050602082019050919050565b60008190508160005260206000209050919050565b60008190508160005260206000209050919050565b600082905092915050565b600081519050919050565b600081549050919050565b600082905092915050565b600081519050919050565b600081549050919050565b600082905092915050565b600081519050919050565b6000602082019050919050565b6000602082019050919050565b600082825260208201905092915050565b600082825260208201905092915050565b600082825260208201905092915050565b600082825260208201905092915050565b6000611bd882611c61565b9150611be383611c61565b9250827fffffffffffffffffffffffffffffffffffffffffffffffffffffffffffffffff03821115611c1857611c176120e3565b5b828201905092915050565b6000611c2e82611c41565b9050919050565b60008115159050919050565b600073ffffffffffffffffffffffffffffffffffffffff82169050919050565b6000819050919050565b5b81811015611c8a57611c7f6000826122d0565b600181019050611c6c565b5050565b5b81811015611cad57611ca26000826122d0565b600181019050611c8f565b5050565b5b81811015611cd057611cc56000826122d0565b600181019050611cb2565b5050565b6000611cdf82611cf8565b9050919050565b6000611cf182611c35565b9050919050565b6000611d0382611d0a565b9050919050565b6000611d1582611c41565b9050919050565b6000611d2782611c61565b9050919050565b611d388383611b17565b611d4281836121d0565b611d4b83611aa4565b611d5483611abe565b6000805b84811015611d8f5783611d6a8161218e565b9050611d77818486612607565b60208501945060018401935050600181019050611d58565b5050505050505050565b611da38383611b38565b611dad8183612234565b611db683611ad3565b611dbf83611aed565b6000805b84811015611dfa5783611dd5816121ba565b9050611de281848661262c565b60208501945060018401935050600181019050611dc3565b5050505050505050565b611e0e8383611b59565b67ffffffffffffffff811115611e2757611e26612141565b5b611e31825461202e565b600080601f8411601f84111715611e4e57611e4b85611b02565b90505b601f831115611e81576020601f85010481016020851015611e6d578190505b611e7f6020601f860104830182611c8e565b505b601f841160018114611eae5760008515611e9c578388013590505b611ea68682612060565b875550611f06565b601f1985168260005b82811015611edc57858a01358255600182019150602086019550602081019050611eb7565b87831015611ef957858a0135611ef5601f8a16826120c5565b8355505b6001600289020189555050505b5050505050505050565b60005b83811015611f2e578082015181840152602081019050611f13565b83811115611f3d576000848401525b50505050565b600081016000830180611f55816121a4565b9050611f6181846125a3565b505050600181016020830180611f76816121ba565b9050611f8281846125e4565b5050506002810160408301611f9781856119cc565b611fa2818386612593565b50505050600381016060830180611fb88161218e565b9050611fc48184612560565b5050506004810160808301611fd98185611975565b611fe4818386612583565b505050506005810160a08301611ffa8185611a23565b6120058183866125c6565b505050506006810160c0830161201b8185611a23565b6120268183866125c6565b505050505050565b6000600282049050600182168061204657607f821691505b6020821081141561205a57612059612112565b5b50919050565b600061206c83836120c5565b9150826002028217905092915050565b600061208782611c61565b91507fffffffffffffffffffffffffffffffffffffffffffffffffffffffffffffffff8214156120ba576120b96120e3565b5b600182019050919050565b60006120d6600019846008026122c3565b1980831691505092915050565b7f4e487b7100000000000000000000000000000000000000000000000000000000600052601160045260246000fd5b7f4e487b7100000000000000000000000000000000000000000000000000000000600052602260045260246000fd5b7f4e487b7100000000000000000000000000000000000000000000000000000000600052604160045260246000fd5b6000819050919050565b6000819050919050565b6000819050919050565b6000813561219b81612651565b80915050919050565b600081356121b181612668565b80915050919050565b600081356121c78161267f565b80915050919050565b680100000000000000008211156121ea576121e9612141565b5b6121f381611b2d565b8282558083101561222f5761220781611a7a565b61221084611a7a565b61221984611abe565b8181018382016122298183611c6b565b50505050505b505050565b6801000000000000000082111561224e5761224d612141565b5b61225781611b4e565b828255808310156122935761226b81611a8f565b61227484611a8f565b61227d84611aed565b81810183820161228d8183611cb1565b50505050505b505050565b6000601f19601f8301169050919050565b60008160001b9050919050565b600082821b905092915050565b600082821c905092915050565b6122d8612696565b6122e381848461262c565b505050565b7f496e76616c696420737461676500000000000000000000000000000000000000600082015250565b7f416c6c20706172746965732068617665206e6f7420617070726f766564000000600082015250565b7f4e6f7420696e6974696174696e67207061727479000000000000000000000000600082015250565b7f444149207472616e73666572206661696c656400000000000000000000000000600082015250565b7f496e697469616c697a61626c653a20636f6e747261637420697320616c72656160008201527f647920696e697469616c697a6564000000000000000000000000000000000000602082015250565b7f4e6f74206120706172747920746f2074686520636f6e74726163740000000000600082015250565b7f4e6f7420696e2065787065637465642073746167650000000000000000000000600082015250565b600060ff61243a846122a9565b9350801983169250808416831791505092915050565b600073ffffffffffffffffffffffffffffffffffffffff612470846122a9565b9350801983169250808416831791505092915050565b60007fffffffffffffffffffffffffffffffffffffffffffffffffffffffffffffffff6124b2846122a9565b9350801983169250808416831791505092915050565b6000600883026124ec73ffffffffffffffffffffffffffffffffffffffff826122b6565b6124f686836122b6565b95508019841693508086168417925050509392505050565b60006008830261253e7fffffffffffffffffffffffffffffffffffffffffffffffffffffffffffffffff826122b6565b61254886836122b6565b95508019841693508086168417925050509392505050565b61256982611cd4565b61257c61257582612170565b8354612450565b8255505050565b61258e838383611d2e565b505050565b61259e838383611d99565b505050565b6125ac82611ce6565b6125bf6125b88261217a565b835461242d565b8255505050565b6125d1838383611e04565b505050565b6125e08282611f43565b5050565b6125ed82611d1c565b6126006125f982612184565b8354612486565b8255505050565b61261083611cd4565b61262461261c82612170565b8484546124c8565b825550505050565b61263583611d1c565b61264961264182612184565b84845461250e565b825550505050565b61265a81611c23565b811461266557600080fd5b50565b61267181611c35565b811461267c57600080fd5b50565b61268881611c61565b811461269357600080fd5b50565b60009056fea2646970667358221220987ff3c042a08664063b3b092b6d0b7cd9592565e842d66c720f37a5c73b9eee64736f6c63430008020033",
  "immutableReferences": {
    "379": [
      {
        "length": 32,
        "start": 344
      },
      {
        "length": 32,
        "start": 1344
      }
    ]
  },
  "source": "// SPDX-License-Identifier: MIT\r\npragma solidity ^0.8.2;\r\n\r\nimport \"@openzeppelin/contracts/token/ERC20/IERC20.sol\";\r\nimport \"@openzeppelin/contracts/proxy/Clones.sol\";\r\nimport \"./interfaces/IContractInit.sol\";\r\nimport \"./ContractController.sol\";\r\n\r\n/**\r\n * @title CMSB Contract Factory\r\n * @dev Create and view draft contracts\r\n */\r\n\r\ncontract ContractFactory is IContractInit {\r\n\r\n    address public immutable baseContract;\r\n    address public daiTokenAddress;\r\n\r\n    constructor(address _daiTokenAddress) {\r\n        daiTokenAddress = _daiTokenAddress;\r\n        baseContract = address(new ContractController());\r\n    }\r\n\r\n    BaseContractData[] public contractsList;\r\n\r\n    event createdNewDraftContract(uint);    \r\n\r\n    function getArraySum(uint[] memory array) private pure returns (uint) {\r\n        uint arraySum;\r\n        for (uint i=0; i < array.length; ++i) {\r\n            arraySum += array[i];\r\n        }\r\n        return arraySum;\r\n    }\r\n\r\n    function isPartyOf(address _partyAddress, uint _contractId) internal view returns (bool) {\r\n        bool isParty;\r\n        if (contractsList[_contractId].initiatingParty == _partyAddress) {\r\n            isParty = true;\r\n        } else {\r\n            for (uint i=0; i < contractsList[_contractId].parties.length; i++) {\r\n                if (contractsList[_contractId].parties[i] == _partyAddress) {\r\n                    isParty = true;\r\n                    break;\r\n                }\r\n            }\r\n        }\r\n        return isParty;\r\n    }\r\n\r\n    function getContractsCount() external view returns (uint) {\r\n        return contractsList.length;\r\n    }\r\n\r\n    function getMyContracts() external view returns (address[] memory) {\r\n        uint j = 0;\r\n        for (uint i=0; i < contractsList.length; ++i) {\r\n            if (isPartyOf(msg.sender, contractsList[i].id)) {\r\n                j++;\r\n            }\r\n        }\r\n        uint k=0;\r\n        address[] memory myContracts = new address[](j);\r\n        for (uint i=0; i < contractsList.length; ++i) {\r\n            if (isPartyOf(msg.sender, contractsList[i].id)) {\r\n                myContracts[k] = contractsList[i].contractAddress;\r\n                k++;\r\n            }\r\n        }\r\n        return myContracts;\r\n    }\r\n\r\n    function initiateContract(\r\n        CompleteContractData calldata _contractData\r\n    ) \r\n        external \r\n    {\r\n        address newContract = Clones.clone(baseContract);\r\n        contractsList.push(BaseContractData(contractsList.length, newContract, msg.sender, _contractData.parties));\r\n        ContractController(newContract).initialize(_contractData, daiTokenAddress);\r\n        if (_contractData.isPayable) {\r\n            bool success = IERC20(daiTokenAddress).transferFrom(msg.sender, newContract, getArraySum(_contractData.fundDistribution));\r\n            require(success, \"DAI transfer failed\");\r\n        }\r\n        emit createdNewDraftContract(contractsList.length-1);\r\n    }\r\n}",
  "sourcePath": "D:/git/Contract-Management-System-using-Blockchain/truffle/contracts/ContractFactory.sol",
  "compiler": {
    "name": "solc",
    "version": "0.8.2+commit.661d1103.Emscripten.clang"
  },
  "schemaVersion": "3.4.1",
  "updatedAt": "2022-03-13T13:36:48.085Z",
  "devdoc": {
    "details": "Create and view draft contracts",
    "kind": "dev",
    "methods": {},
    "title": "CMSB Contract Factory",
    "version": 1
  },
  "userdoc": {
    "kind": "user",
    "methods": {},
    "version": 1
  }
}