{
  "contractName": "ContractFactory",
  "abi": [
    {
      "inputs": [
        {
          "internalType": "address",
          "name": "_daiTokenAddress",
          "type": "address"
        }
      ],
      "stateMutability": "nonpayable",
      "type": "constructor"
    },
    {
      "anonymous": false,
      "inputs": [
        {
          "indexed": false,
          "internalType": "uint256",
          "name": "",
          "type": "uint256"
        }
      ],
      "name": "createdNewDraftContract",
      "type": "event"
    },
    {
      "inputs": [],
      "name": "baseContract",
      "outputs": [
        {
          "internalType": "address",
          "name": "",
          "type": "address"
        }
      ],
      "stateMutability": "view",
      "type": "function"
    },
    {
      "inputs": [
        {
          "internalType": "uint256",
          "name": "",
          "type": "uint256"
        }
      ],
      "name": "contractsList",
      "outputs": [
        {
          "internalType": "uint256",
          "name": "id",
          "type": "uint256"
        },
        {
          "internalType": "address",
          "name": "contractAddress",
          "type": "address"
        },
        {
          "internalType": "address",
          "name": "initiatingParty",
          "type": "address"
        }
      ],
      "stateMutability": "view",
      "type": "function"
    },
    {
      "inputs": [],
      "name": "daiTokenAddress",
      "outputs": [
        {
          "internalType": "address",
          "name": "",
          "type": "address"
        }
      ],
      "stateMutability": "view",
      "type": "function"
    },
    {
      "inputs": [],
      "name": "getContractsCount",
      "outputs": [
        {
          "internalType": "uint256",
          "name": "",
          "type": "uint256"
        }
      ],
      "stateMutability": "view",
      "type": "function"
    },
    {
      "inputs": [
        {
          "components": [
            {
              "internalType": "bool",
              "name": "isPayable",
              "type": "bool"
            },
            {
              "internalType": "uint256",
              "name": "expiryTime",
              "type": "uint256"
            },
            {
              "internalType": "uint256[]",
              "name": "fundDistribution",
              "type": "uint256[]"
            },
            {
              "internalType": "address",
              "name": "initiatingParty",
              "type": "address"
            },
            {
              "internalType": "address[]",
              "name": "parties",
              "type": "address[]"
            },
            {
              "internalType": "string",
              "name": "contractName",
              "type": "string"
            },
            {
              "internalType": "string",
              "name": "document",
              "type": "string"
            }
          ],
          "internalType": "struct IContractInit.CompleteContractData",
          "name": "_contractData",
          "type": "tuple"
        }
      ],
      "name": "initiateContract",
      "outputs": [],
      "stateMutability": "nonpayable",
      "type": "function"
    }
  ],
  "bytecode": "0x60a06040523480156200001157600080fd5b5060405162002fd638038062002fd6833981810160405281019062000037919062000105565b806000806101000a81548173ffffffffffffffffffffffffffffffffffffffff021916908373ffffffffffffffffffffffffffffffffffffffff1602179055506040516200008590620000e0565b604051809103906000f080158015620000a2573d6000803e3d6000fd5b5073ffffffffffffffffffffffffffffffffffffffff1660808173ffffffffffffffffffffffffffffffffffffffff1660601b81525050506200017f565b611f89806200104d83390190565b600081519050620000ff8162000165565b92915050565b6000602082840312156200011857600080fd5b60006200012884828501620000ee565b91505092915050565b60006200013e8262000145565b9050919050565b600073ffffffffffffffffffffffffffffffffffffffff82169050919050565b620001708162000131565b81146200017c57600080fd5b50565b60805160601c610ea8620001a5600039600081816102a901526104de0152610ea86000f3fe608060405234801561001057600080fd5b50600436106100575760003560e01c80632eaee35e1461005c5780634a43fc7d1461007a5780635b32619c146100965780639683584f146100b4578063f8079052146100d2575b600080fd5b610064610104565b6040516100719190610a49565b60405180910390f35b610094600480360381019061008f9190610786565b610128565b005b61009e6104dc565b6040516100ab9190610a49565b60405180910390f35b6100bc610500565b6040516100c99190610ab4565b60405180910390f35b6100ec60048036038101906100e791906107c7565b61050d565b6040516100fb93929190610acf565b60405180910390f35b60008054906101000a900473ffffffffffffffffffffffffffffffffffffffff1681565b600081806080019061013a9190610b06565b905067ffffffffffffffff81111561017b577f4e487b7100000000000000000000000000000000000000000000000000000000600052604160045260246000fd5b6040519080825280602002602001820160405280156101a95781602001602082028036833780820191505090505b50905060005b81518160ff1610156102a1578280608001906101cb9190610b06565b8260ff16818110610205577f4e487b7100000000000000000000000000000000000000000000000000000000600052603260045260246000fd5b905060200201602081019061021a919061075d565b828260ff1681518110610256577f4e487b7100000000000000000000000000000000000000000000000000000000600052603260045260246000fd5b602002602001019073ffffffffffffffffffffffffffffffffffffffff16908173ffffffffffffffffffffffffffffffffffffffff16815250508061029a90610d9a565b90506101af565b5060006102cd7f0000000000000000000000000000000000000000000000000000000000000000610587565b90506001604051806080016040528060018054905081526020018373ffffffffffffffffffffffffffffffffffffffff1681526020013373ffffffffffffffffffffffffffffffffffffffff1681526020018481525090806001815401808255809150506001900390600052602060002090600402016000909190919091506000820151816000015560208201518160010160006101000a81548173ffffffffffffffffffffffffffffffffffffffff021916908373ffffffffffffffffffffffffffffffffffffffff16021790555060408201518160020160006101000a81548173ffffffffffffffffffffffffffffffffffffffff021916908373ffffffffffffffffffffffffffffffffffffffff160217905550606082015181600301908051906020019061040092919061065c565b5050508073ffffffffffffffffffffffffffffffffffffffff166319ffb9608460008054906101000a900473ffffffffffffffffffffffffffffffffffffffff166040518363ffffffff1660e01b815260040161045e929190610a84565b600060405180830381600087803b15801561047857600080fd5b505af115801561048c573d6000803e3d6000fd5b505050507f4c9f2cb57a212dfc6f0c1077b5a129c78ad19ce9f28d69de66cede182e9f03aa600180805490506104c29190610d02565b6040516104cf9190610ab4565b60405180910390a1505050565b7f000000000000000000000000000000000000000000000000000000000000000081565b6000600180549050905090565b6001818154811061051d57600080fd5b90600052602060002090600402016000915090508060000154908060010160009054906101000a900473ffffffffffffffffffffffffffffffffffffffff16908060020160009054906101000a900473ffffffffffffffffffffffffffffffffffffffff16905083565b60006040517f3d602d80600a3d3981f3363d3d373d3d3d363d7300000000000000000000000081528260601b60148201527f5af43d82803e903d91602b57fd5bf3000000000000000000000000000000000060288201526037816000f0915050600073ffffffffffffffffffffffffffffffffffffffff168173ffffffffffffffffffffffffffffffffffffffff161415610657576040517f08c379a000000000000000000000000000000000000000000000000000000000815260040161064e90610a64565b60405180910390fd5b919050565b8280548282559060005260206000209081019282156106d5579160200282015b828111156106d45782518260006101000a81548173ffffffffffffffffffffffffffffffffffffffff021916908373ffffffffffffffffffffffffffffffffffffffff1602179055509160200191906001019061067c565b5b5090506106e291906106e6565b5090565b5b808211156106ff5760008160009055506001016106e7565b5090565b60008135905061071281610e2d565b92915050565b60008135905061072781610e44565b92915050565b600060e0828403121561073f57600080fd5b81905092915050565b60008135905061075781610e5b565b92915050565b60006020828403121561076f57600080fd5b600061077d84828501610703565b91505092915050565b60006020828403121561079857600080fd5b600082013567ffffffffffffffff8111156107b257600080fd5b6107be8482850161072d565b91505092915050565b6000602082840312156107d957600080fd5b60006107e784828501610748565b91505092915050565b60006107fc8383610808565b60208301905092915050565b61081181610d36565b82525050565b61082081610d36565b82525050565b60006108328385610b74565b935061083d82610b5d565b8060005b85811015610876576108538284610bb8565b61085d88826107f0565b975061086883610b67565b925050600181019050610841565b5085925050509392505050565b600061088f8385610b85565b93507f07ffffffffffffffffffffffffffffffffffffffffffffffffffffffffffffff8311156108be57600080fd5b6020830292506108cf838584610d8b565b82840190509392505050565b6108e481610d48565b82525050565b60006108f68385610b96565b9350610903838584610d8b565b61090c83610df3565b840190509392505050565b6000610924601683610ba7565b915061092f82610e04565b602082019050919050565b600060e0830161094d6000840184610c7d565b61095a60008601826108db565b506109686020840184610ceb565b6109756020860182610a2b565b506109836040840184610c26565b8583036040870152610996838284610883565b925050506109a76060840184610bb8565b6109b46060860182610808565b506109c26080840184610bcf565b85830360808701526109d5838284610826565b925050506109e660a0840184610c94565b85830360a08701526109f98382846108ea565b92505050610a0a60c0840184610c94565b85830360c0870152610a1d8382846108ea565b925050508091505092915050565b610a3481610d74565b82525050565b610a4381610d74565b82525050565b6000602082019050610a5e6000830184610817565b92915050565b60006020820190508181036000830152610a7d81610917565b9050919050565b60006040820190508181036000830152610a9e818561093a565b9050610aad6020830184610817565b9392505050565b6000602082019050610ac96000830184610a3a565b92915050565b6000606082019050610ae46000830186610a3a565b610af16020830185610817565b610afe6040830184610817565b949350505050565b60008083356001602003843603038112610b1f57600080fd5b80840192508235915067ffffffffffffffff821115610b3d57600080fd5b602083019250602082023603831315610b5557600080fd5b509250929050565b6000819050919050565b6000602082019050919050565b600082825260208201905092915050565b600082825260208201905092915050565b600082825260208201905092915050565b600082825260208201905092915050565b6000610bc76020840184610703565b905092915050565b60008083356001602003843603038112610be857600080fd5b83810192508235915060208301925067ffffffffffffffff821115610c0c57600080fd5b602082023603841315610c1e57600080fd5b509250929050565b60008083356001602003843603038112610c3f57600080fd5b83810192508235915060208301925067ffffffffffffffff821115610c6357600080fd5b602082023603841315610c7557600080fd5b509250929050565b6000610c8c6020840184610718565b905092915050565b60008083356001602003843603038112610cad57600080fd5b83810192508235915060208301925067ffffffffffffffff821115610cd157600080fd5b600182023603841315610ce357600080fd5b509250929050565b6000610cfa6020840184610748565b905092915050565b6000610d0d82610d74565b9150610d1883610d74565b925082821015610d2b57610d2a610dc4565b5b828203905092915050565b6000610d4182610d54565b9050919050565b60008115159050919050565b600073ffffffffffffffffffffffffffffffffffffffff82169050919050565b6000819050919050565b600060ff82169050919050565b82818337600083830152505050565b6000610da582610d7e565b915060ff821415610db957610db8610dc4565b5b600182019050919050565b7f4e487b7100000000000000000000000000000000000000000000000000000000600052601160045260246000fd5b6000601f19601f8301169050919050565b7f455243313136373a20637265617465206661696c656400000000000000000000600082015250565b610e3681610d36565b8114610e4157600080fd5b50565b610e4d81610d48565b8114610e5857600080fd5b50565b610e6481610d74565b8114610e6f57600080fd5b5056fea26469706673582212207333804d4e4bc8b53911541fc8c7dfdf9668f7a3e559655538be76867267265e64736f6c63430008020033608060405260008060006101000a81548160ff0219169083600481111561004f577f4e487b7100000000000000000000000000000000000000000000000000000000600052602160045260246000fd5b021790555034801561006057600080fd5b50611f19806100706000396000f3fe608060405234801561001057600080fd5b506004361061004c5760003560e01c806319ffb96014610051578063345162031461006d5780638f96e85014610077578063f10746f414610095575b600080fd5b61006b60048036038101906100669190610e8c565b6100b3565b005b61007561035b565b005b61007f610481565b60405161008c9190611251565b60405180910390f35b61009d61088f565b6040516100aa9190611273565b60405180910390f35b600060029054906101000a900460ff166100dd57600060019054906101000a900460ff16156100e6565b6100e5610a4a565b5b610125576040517f08c379a000000000000000000000000000000000000000000000000000000000815260040161011c90611211565b60405180910390fd5b60008060029054906101000a900460ff161590508015610176576001600060026101000a81548160ff0219169083151502179055506001600060016101000a81548160ff0219169083151502179055505b82600181816101859190611e1e565b90505081600860006101000a81548173ffffffffffffffffffffffffffffffffffffffff021916908373ffffffffffffffffffffffffffffffffffffffff1602179055508260000160208101906101dc9190610e3a565b156102fe5760005b8380604001906101f491906112e5565b90508110156102fc5783806040019061020d91906112e5565b82818110610244577f4e487b7100000000000000000000000000000000000000000000000000000000600052603260045260246000fd5b90506020020135600a600086806080019061025f919061128e565b85818110610296577f4e487b7100000000000000000000000000000000000000000000000000000000600052603260045260246000fd5b90506020020160208101906102ab9190610e11565b73ffffffffffffffffffffffffffffffffffffffff1673ffffffffffffffffffffffffffffffffffffffff1681526020019081526020016000208190555080806102f49061193f565b9150506101e4565b505b7f3862dd748e1ca79fcd6f7cfb2a40db495da62a25761b04bdddbb073b0e548cd63060405161032d919061118d565b60405180910390a180156103565760008060026101000a81548160ff0219169083151502179055505b505050565b600160030160009054906101000a900473ffffffffffffffffffffffffffffffffffffffff1673ffffffffffffffffffffffffffffffffffffffff163373ffffffffffffffffffffffffffffffffffffffff16146103ee576040517f08c379a00000000000000000000000000000000000000000000000000000000081526004016103e5906111f1565b60405180910390fd5b600115156103fa610a5b565b15151461043c576040517f08c379a0000000000000000000000000000000000000000000000000000000008152600401610433906111d1565b60405180910390fd5b6001600860146101000a81548160ff02191690831515021790555060011515600160000160009054906101000a900460ff161515141561047f5761047e610b59565b5b565b610489610d62565b60003373ffffffffffffffffffffffffffffffffffffffff16600160030160009054906101000a900473ffffffffffffffffffffffffffffffffffffffff1673ffffffffffffffffffffffffffffffffffffffff1614156104ed57600190506105b7565b60005b6001600401805490508110156105b5573373ffffffffffffffffffffffffffffffffffffffff1660016004018281548110610554577f4e487b7100000000000000000000000000000000000000000000000000000000600052603260045260246000fd5b9060005260206000200160009054906101000a900473ffffffffffffffffffffffffffffffffffffffff1673ffffffffffffffffffffffffffffffffffffffff1614156105a457600191506105b5565b806105ae9061193f565b90506104f0565b505b806105f7576040517f08c379a00000000000000000000000000000000000000000000000000000000081526004016105ee90611231565b60405180910390fd5b60016040518060e00160405290816000820160009054906101000a900460ff16151515158152602001600182015481526020016002820180548060200260200160405190810160405280929190818152602001828054801561067857602002820191906000526020600020905b815481526020019060010190808311610664575b505050505081526020016003820160009054906101000a900473ffffffffffffffffffffffffffffffffffffffff1673ffffffffffffffffffffffffffffffffffffffff1673ffffffffffffffffffffffffffffffffffffffff1681526020016004820180548060200260200160405190810160405280929190818152602001828054801561075c57602002820191906000526020600020905b8160009054906101000a900473ffffffffffffffffffffffffffffffffffffffff1673ffffffffffffffffffffffffffffffffffffffff1681526020019060010190808311610712575b50505050508152602001600582018054610775906118f1565b80601f01602080910402602001604051908101604052809291908181526020018280546107a1906118f1565b80156107ee5780601f106107c3576101008083540402835291602001916107ee565b820191906000526020600020905b8154815290600101906020018083116107d157829003601f168201915b50505050508152602001600682018054610807906118f1565b80601f0160208091040260200160405190810160405280929190818152602001828054610833906118f1565b80156108805780601f1061085557610100808354040283529160200191610880565b820191906000526020600020905b81548152906001019060200180831161086357829003601f168201915b50505050508152505091505090565b6000803373ffffffffffffffffffffffffffffffffffffffff16600160030160009054906101000a900473ffffffffffffffffffffffffffffffffffffffff1673ffffffffffffffffffffffffffffffffffffffff1614156108f457600190506109be565b60005b6001600401805490508110156109bc573373ffffffffffffffffffffffffffffffffffffffff166001600401828154811061095b577f4e487b7100000000000000000000000000000000000000000000000000000000600052603260045260246000fd5b9060005260206000200160009054906101000a900473ffffffffffffffffffffffffffffffffffffffff1673ffffffffffffffffffffffffffffffffffffffff1614156109ab57600191506109bc565b806109b59061193f565b90506108f7565b505b806109fe576040517f08c379a00000000000000000000000000000000000000000000000000000000081526004016109f590611231565b60405180910390fd5b60008054906101000a900460ff166004811115610a44577f4e487b7100000000000000000000000000000000000000000000000000000000600052602160045260246000fd5b91505090565b6000610a5530610d3f565b15905090565b6000806001905060005b600160040180549050811015610b5157600015156009600060016004018481548110610aba577f4e487b7100000000000000000000000000000000000000000000000000000000600052603260045260246000fd5b9060005260206000200160009054906101000a900473ffffffffffffffffffffffffffffffffffffffff1673ffffffffffffffffffffffffffffffffffffffff1673ffffffffffffffffffffffffffffffffffffffff16815260200190815260200160002060009054906101000a900460ff1615151415610b3e5760009150610b51565b8080610b499061193f565b915050610a65565b508091505090565b60005b600160040180549050811015610d3c57600860009054906101000a900473ffffffffffffffffffffffffffffffffffffffff1673ffffffffffffffffffffffffffffffffffffffff1663a9059cbb60016004018381548110610be7577f4e487b7100000000000000000000000000000000000000000000000000000000600052603260045260246000fd5b9060005260206000200160009054906101000a900473ffffffffffffffffffffffffffffffffffffffff16600a600060016004018681548110610c53577f4e487b7100000000000000000000000000000000000000000000000000000000600052603260045260246000fd5b9060005260206000200160009054906101000a900473ffffffffffffffffffffffffffffffffffffffff1673ffffffffffffffffffffffffffffffffffffffff1673ffffffffffffffffffffffffffffffffffffffff168152602001908152602001600020546040518363ffffffff1660e01b8152600401610cd69291906111a8565b602060405180830381600087803b158015610cf057600080fd5b505af1158015610d04573d6000803e3d6000fd5b505050506040513d601f19601f82011682018060405250810190610d289190610e63565b508080610d349061193f565b915050610b5c565b50565b6000808273ffffffffffffffffffffffffffffffffffffffff163b119050919050565b6040518060e001604052806000151581526020016000815260200160608152602001600073ffffffffffffffffffffffffffffffffffffffff1681526020016060815260200160608152602001606081525090565b600081359050610dc681611e99565b92915050565b600081359050610ddb81611eb0565b92915050565b600081519050610df081611eb0565b92915050565b600060e08284031215610e0857600080fd5b81905092915050565b600060208284031215610e2357600080fd5b6000610e3184828501610db7565b91505092915050565b600060208284031215610e4c57600080fd5b6000610e5a84828501610dcc565b91505092915050565b600060208284031215610e7557600080fd5b6000610e8384828501610de1565b91505092915050565b60008060408385031215610e9f57600080fd5b600083013567ffffffffffffffff811115610eb957600080fd5b610ec585828601610df6565b9250506020610ed685828601610db7565b9150509250929050565b6000610eec8383610f10565b60208301905092915050565b6000610f04838361116f565b60208301905092915050565b610f19816114e6565b82525050565b610f28816114e6565b82525050565b6000610f398261143b565b610f4381856114a2565b9350610f4e836113c7565b8060005b83811015610f7f578151610f668882610ee0565b9750610f7183611488565b925050600181019050610f52565b5085935050505092915050565b6000610f978261145c565b610fa181856114b3565b9350610fac836113f6565b8060005b83811015610fdd578151610fc48882610ef8565b9750610fcf83611495565b925050600181019050610fb0565b5085935050505092915050565b610ff3816114f8565b82525050565b60006110048261147d565b61100e81856114c4565b935061101e8185602086016117d3565b61102781611b5b565b840191505092915050565b600061103f601d836114d5565b915061104a82611bab565b602082019050919050565b60006110626014836114d5565b915061106d82611bd4565b602082019050919050565b6000611085602e836114d5565b915061109082611bfd565b604082019050919050565b60006110a8601b836114d5565b91506110b382611c4c565b602082019050919050565b600060e0830160008301516110d66000860182610fea565b5060208301516110e9602086018261116f565b50604083015184820360408601526111018282610f8c565b91505060608301516111166060860182610f10565b506080830151848203608086015261112e8282610f2e565b91505060a083015184820360a08601526111488282610ff9565b91505060c083015184820360c08601526111628282610ff9565b9150508091505092915050565b61117881611524565b82525050565b61118781611524565b82525050565b60006020820190506111a26000830184610f1f565b92915050565b60006040820190506111bd6000830185610f1f565b6111ca602083018461117e565b9392505050565b600060208201905081810360008301526111ea81611032565b9050919050565b6000602082019050818103600083015261120a81611055565b9050919050565b6000602082019050818103600083015261122a81611078565b9050919050565b6000602082019050818103600083015261124a8161109b565b9050919050565b6000602082019050818103600083015261126b81846110be565b905092915050565b6000602082019050611288600083018461117e565b92915050565b600080833560016020038436030381126112a757600080fd5b80840192508235915067ffffffffffffffff8211156112c557600080fd5b6020830192506020820236038313156112dd57600080fd5b509250929050565b600080833560016020038436030381126112fe57600080fd5b80840192508235915067ffffffffffffffff82111561131c57600080fd5b60208301925060208202360383131561133457600080fd5b509250929050565b6000808335600160200384360303811261135557600080fd5b80840192508235915067ffffffffffffffff82111561137357600080fd5b60208301925060018202360383131561138b57600080fd5b509250929050565b60008190506001806001038301049050919050565b60008190506001806001038301049050919050565b6000819050919050565b6000819050602082019050919050565b60008190508160005260206000209050919050565b6000819050919050565b6000819050602082019050919050565b60008190508160005260206000209050919050565b60008190508160005260206000209050919050565b600082905092915050565b600081519050919050565b600081549050919050565b600082905092915050565b600081519050919050565b600081549050919050565b600082905092915050565b600081519050919050565b6000602082019050919050565b6000602082019050919050565b600082825260208201905092915050565b600082825260208201905092915050565b600082825260208201905092915050565b600082825260208201905092915050565b60006114f182611504565b9050919050565b60008115159050919050565b600073ffffffffffffffffffffffffffffffffffffffff82169050919050565b6000819050919050565b5b8181101561154d57611542600082611b93565b60018101905061152f565b5050565b5b8181101561157057611565600082611b93565b600181019050611552565b5050565b5b8181101561159357611588600082611b93565b600181019050611575565b5050565b60006115a2826115bb565b9050919050565b60006115b4826114f8565b9050919050565b60006115c6826115cd565b9050919050565b60006115d882611504565b9050919050565b60006115ea82611524565b9050919050565b6115fb8383611430565b6116058183611a93565b61160e836113bd565b611617836113d7565b6000805b84811015611652578361162d81611a51565b905061163a818486611e4f565b6020850194506001840193505060018101905061161b565b5050505050505050565b6116668383611451565b6116708183611af7565b611679836113ec565b61168283611406565b6000805b848110156116bd578361169881611a7d565b90506116a5818486611e74565b60208501945060018401935050600181019050611686565b5050505050505050565b6116d18383611472565b67ffffffffffffffff8111156116ea576116e9611a04565b5b6116f482546118f1565b600080601f8411601f841117156117115761170e8561141b565b90505b601f831115611744576020601f85010481016020851015611730578190505b6117426020601f860104830182611551565b505b601f841160018114611771576000851561175f578388013590505b6117698682611923565b8755506117c9565b601f1985168260005b8281101561179f57858a0135825560018201915060208601955060208101905061177a565b878310156117bc57858a01356117b8601f8a1682611988565b8355505b6001600289020189555050505b5050505050505050565b60005b838110156117f15780820151818401526020810190506117d6565b83811115611800576000848401525b50505050565b60008101600083018061181881611a67565b90506118248184611deb565b50505060018101602083018061183981611a7d565b90506118458184611e2c565b505050600281016040830161185a81856112e5565b611865818386611ddb565b5050505060038101606083018061187b81611a51565b90506118878184611da8565b505050600481016080830161189c818561128e565b6118a7818386611dcb565b505050506005810160a083016118bd818561133c565b6118c8818386611e0e565b505050506006810160c083016118de818561133c565b6118e9818386611e0e565b505050505050565b6000600282049050600182168061190957607f821691505b6020821081141561191d5761191c6119d5565b5b50919050565b600061192f8383611988565b9150826002028217905092915050565b600061194a82611524565b91507fffffffffffffffffffffffffffffffffffffffffffffffffffffffffffffffff82141561197d5761197c6119a6565b5b600182019050919050565b600061199960001984600802611b86565b1980831691505092915050565b7f4e487b7100000000000000000000000000000000000000000000000000000000600052601160045260246000fd5b7f4e487b7100000000000000000000000000000000000000000000000000000000600052602260045260246000fd5b7f4e487b7100000000000000000000000000000000000000000000000000000000600052604160045260246000fd5b6000819050919050565b6000819050919050565b6000819050919050565b60008135611a5e81611e99565b80915050919050565b60008135611a7481611eb0565b80915050919050565b60008135611a8a81611ec7565b80915050919050565b68010000000000000000821115611aad57611aac611a04565b5b611ab681611446565b82825580831015611af257611aca81611393565b611ad384611393565b611adc846113d7565b818101838201611aec818361152e565b50505050505b505050565b68010000000000000000821115611b1157611b10611a04565b5b611b1a81611467565b82825580831015611b5657611b2e816113a8565b611b37846113a8565b611b4084611406565b818101838201611b508183611574565b50505050505b505050565b6000601f19601f8301169050919050565b60008160001b9050919050565b600082821b905092915050565b600082821c905092915050565b611b9b611ede565b611ba6818484611e74565b505050565b7f416c6c20706172746965732068617665206e6f7420617070726f766564000000600082015250565b7f4e6f7420696e6974696174696e67207061727479000000000000000000000000600082015250565b7f496e697469616c697a61626c653a20636f6e747261637420697320616c72656160008201527f647920696e697469616c697a6564000000000000000000000000000000000000602082015250565b7f4e6f74206120706172747920746f2074686520636f6e74726163740000000000600082015250565b600060ff611c8284611b6c565b9350801983169250808416831791505092915050565b600073ffffffffffffffffffffffffffffffffffffffff611cb884611b6c565b9350801983169250808416831791505092915050565b60007fffffffffffffffffffffffffffffffffffffffffffffffffffffffffffffffff611cfa84611b6c565b9350801983169250808416831791505092915050565b600060088302611d3473ffffffffffffffffffffffffffffffffffffffff82611b79565b611d3e8683611b79565b95508019841693508086168417925050509392505050565b600060088302611d867fffffffffffffffffffffffffffffffffffffffffffffffffffffffffffffffff82611b79565b611d908683611b79565b95508019841693508086168417925050509392505050565b611db182611597565b611dc4611dbd82611a33565b8354611c98565b8255505050565b611dd68383836115f1565b505050565b611de683838361165c565b505050565b611df4826115a9565b611e07611e0082611a3d565b8354611c75565b8255505050565b611e198383836116c7565b505050565b611e288282611806565b5050565b611e35826115df565b611e48611e4182611a47565b8354611cce565b8255505050565b611e5883611597565b611e6c611e6482611a33565b848454611d10565b825550505050565b611e7d836115df565b611e91611e8982611a47565b848454611d56565b825550505050565b611ea2816114e6565b8114611ead57600080fd5b50565b611eb9816114f8565b8114611ec457600080fd5b50565b611ed081611524565b8114611edb57600080fd5b50565b60009056fea2646970667358221220e8eff59a68ef0d469588714aa7ed97f57b15194ec3399898b77b2b7bd679812764736f6c63430008020033",
  "immutableReferences": {
    "1575": [
      {
        "length": 32,
        "start": 681
      },
      {
        "length": 32,
        "start": 1246
      }
    ]
  },
  "source": "// SPDX-License-Identifier: MIT\npragma solidity ^0.8.2;\n\nimport \"@openzeppelin/contracts/proxy/Clones.sol\";\nimport \"./interfaces/IContractInit.sol\";\nimport \"./ContractController.sol\";\n\n/**\n * @title CMSB Contract Factory\n * @dev Create and view draft contracts\n */\n\ncontract ContractFactory is IContractInit {\n\n    address public immutable baseContract;\n    address public daiTokenAddress;\n\n    constructor(address _daiTokenAddress) {\n        daiTokenAddress = _daiTokenAddress;\n        baseContract = address(new ContractController());\n    }\n\n    BaseContractData[] public contractsList;\n\n    event createdNewDraftContract(uint);    \n\n    function isPartyOf(address _partyAddress, uint _contractId) internal view returns (bool) {\n        bool isParty;\n        if (contractsList[_contractId].initiatingParty == _partyAddress) {\n            isParty = true;\n        } else {\n            for (uint i=0; i < contractsList[_contractId].parties.length; i++) {\n                if (contractsList[_contractId].parties[i] == _partyAddress) {\n                    isParty = true;\n                    break;\n                }\n            }\n        }\n        return isParty;\n    }\n\n    function getContractsCount() external view returns (uint) {\n        return contractsList.length;\n    }\n\n    function initiateContract(\n        CompleteContractData calldata _contractData\n    ) \n        external \n    {\n        address[] memory partyAddresses = new address[](_contractData.parties.length);\n        for (uint8 i=0; i<partyAddresses.length; ++i) {\n            partyAddresses[i] = _contractData.parties[i];\n        }\n        address newContract = Clones.clone(baseContract);\n        contractsList.push(BaseContractData(contractsList.length, newContract, msg.sender, partyAddresses));\n        ContractController(newContract).initialize(_contractData, daiTokenAddress);\n        emit createdNewDraftContract(contractsList.length-1);\n    }\n}",
  "sourcePath": "/Users/godsonprakasia/Desktop/Contract-Management-System-using-Blockchain/truffle/contracts/ContractFactory.sol",
  "compiler": {
    "name": "solc",
    "version": "0.8.2+commit.661d1103.Emscripten.clang"
  },
  "schemaVersion": "3.4.5",
  "updatedAt": "2022-03-07T05:29:54.609Z",
  "devdoc": {
    "details": "Create and view draft contracts",
    "kind": "dev",
    "methods": {},
    "title": "CMSB Contract Factory",
    "version": 1
  },
  "userdoc": {
    "kind": "user",
    "methods": {},
    "version": 1
  }
}