{
  "contractName": "ContractFactory",
  "abi": [
    {
      "inputs": [
        {
          "internalType": "address",
          "name": "_daiTokenAddress",
          "type": "address"
        }
      ],
      "stateMutability": "nonpayable",
      "type": "constructor"
    },
    {
      "anonymous": false,
      "inputs": [
        {
          "indexed": false,
          "internalType": "uint256",
          "name": "",
          "type": "uint256"
        }
      ],
      "name": "createdNewDraftContract",
      "type": "event"
    },
    {
      "inputs": [],
      "name": "baseContract",
      "outputs": [
        {
          "internalType": "address",
          "name": "",
          "type": "address"
        }
      ],
      "stateMutability": "view",
      "type": "function",
      "constant": true
    },
    {
      "inputs": [
        {
          "internalType": "uint256",
          "name": "",
          "type": "uint256"
        }
      ],
      "name": "contractsList",
      "outputs": [
        {
          "internalType": "uint256",
          "name": "id",
          "type": "uint256"
        },
        {
          "internalType": "address",
          "name": "contractAddress",
          "type": "address"
        },
        {
          "internalType": "address",
          "name": "initiatingParty",
          "type": "address"
        }
      ],
      "stateMutability": "view",
      "type": "function",
      "constant": true
    },
    {
      "inputs": [],
      "name": "daiTokenAddress",
      "outputs": [
        {
          "internalType": "address",
          "name": "",
          "type": "address"
        }
      ],
      "stateMutability": "view",
      "type": "function",
      "constant": true
    },
    {
      "inputs": [],
      "name": "getContractsCount",
      "outputs": [
        {
          "internalType": "uint256",
          "name": "",
          "type": "uint256"
        }
      ],
      "stateMutability": "view",
      "type": "function",
      "constant": true
    },
    {
      "inputs": [],
      "name": "getMyContracts",
      "outputs": [
        {
          "internalType": "address[]",
          "name": "",
          "type": "address[]"
        }
      ],
      "stateMutability": "view",
      "type": "function",
      "constant": true
    },
    {
      "inputs": [
        {
          "components": [
            {
              "internalType": "bool",
              "name": "isPayable",
              "type": "bool"
            },
            {
              "internalType": "uint256",
              "name": "expiryTime",
              "type": "uint256"
            },
            {
              "internalType": "uint256[]",
              "name": "fundDistribution",
              "type": "uint256[]"
            },
            {
              "internalType": "address",
              "name": "initiatingParty",
              "type": "address"
            },
            {
              "internalType": "address[]",
              "name": "parties",
              "type": "address[]"
            },
            {
              "internalType": "string",
              "name": "contractName",
              "type": "string"
            },
            {
              "internalType": "string",
              "name": "document",
              "type": "string"
            }
          ],
          "internalType": "struct IContractInit.CompleteContractData",
          "name": "_contractData",
          "type": "tuple"
        }
      ],
      "name": "initiateContract",
      "outputs": [],
      "stateMutability": "nonpayable",
      "type": "function"
    }
  ],
  "bytecode": "0x60a06040523480156200001157600080fd5b506040516200462838038062004628833981810160405281019062000037919062000105565b806000806101000a81548173ffffffffffffffffffffffffffffffffffffffff021916908373ffffffffffffffffffffffffffffffffffffffff1602179055506040516200008590620000e0565b604051809103906000f080158015620000a2573d6000803e3d6000fd5b5073ffffffffffffffffffffffffffffffffffffffff1660808173ffffffffffffffffffffffffffffffffffffffff1660601b81525050506200017f565b612e26806200180283390190565b600081519050620000ff8162000165565b92915050565b6000602082840312156200011857600080fd5b60006200012884828501620000ee565b91505092915050565b60006200013e8262000145565b9050919050565b600073ffffffffffffffffffffffffffffffffffffffff82169050919050565b620001708162000131565b81146200017c57600080fd5b50565b60805160601c61165d620001a5600039600081816101580152610540015261165d6000f3fe608060405234801561001057600080fd5b50600436106100625760003560e01c80632eaee35e146100675780634a43fc7d146100855780635b32619c146100a15780639683584f146100bf578063c81bde15146100dd578063f8079052146100fb575b600080fd5b61006f61012d565b60405161007c9190611064565b60405180910390f35b61009f600480360381019061009a9190610d20565b610151565b005b6100a961053e565b6040516100b69190611064565b60405180910390f35b6100c7610562565b6040516100d49190611148565b60405180910390f35b6100e561056f565b6040516100f291906110b6565b60405180910390f35b61011560048036038101906101109190610d61565b6107e4565b60405161012493929190611163565b60405180910390f35b60008054906101000a900473ffffffffffffffffffffffffffffffffffffffff1681565b600061017c7f000000000000000000000000000000000000000000000000000000000000000061085e565b90506001604051806080016040528060018054905081526020018373ffffffffffffffffffffffffffffffffffffffff1681526020013373ffffffffffffffffffffffffffffffffffffffff1681526020018480608001906101de919061119a565b80806020026020016040519081016040528093929190818152602001838360200280828437600081840152601f19601f8201169050808301925050505050505081525090806001815401808255809150506001900390600052602060002090600402016000909190919091506000820151816000015560208201518160010160006101000a81548173ffffffffffffffffffffffffffffffffffffffff021916908373ffffffffffffffffffffffffffffffffffffffff16021790555060408201518160020160006101000a81548173ffffffffffffffffffffffffffffffffffffffff021916908373ffffffffffffffffffffffffffffffffffffffff16021790555060608201518160030190805190602001906102fe929190610bb8565b5050508073ffffffffffffffffffffffffffffffffffffffff166319ffb9608360008054906101000a900473ffffffffffffffffffffffffffffffffffffffff166040518363ffffffff1660e01b815260040161035c929190611118565b600060405180830381600087803b15801561037657600080fd5b505af115801561038a573d6000803e3d6000fd5b505050508160000160208101906103a19190610cce565b156104f35760008060009054906101000a900473ffffffffffffffffffffffffffffffffffffffff1673ffffffffffffffffffffffffffffffffffffffff166323b872dd338461043f8780604001906103fa91906111f1565b80806020026020016040519081016040528093929190818152602001838360200280828437600081840152601f19601f82011690508083019250505050505050610933565b6040518463ffffffff1660e01b815260040161045d9392919061107f565b602060405180830381600087803b15801561047757600080fd5b505af115801561048b573d6000803e3d6000fd5b505050506040513d601f19601f820116820180604052508101906104af9190610cf7565b9050806104f1576040517f08c379a00000000000000000000000000000000000000000000000000000000081526004016104e8906110d8565b60405180910390fd5b505b7f4c9f2cb57a212dfc6f0c1077b5a129c78ad19ce9f28d69de66cede182e9f03aa60018080549050610525919061147c565b6040516105329190611148565b60405180910390a15050565b7f000000000000000000000000000000000000000000000000000000000000000081565b6000600180549050905090565b60606000805b6001805490508110156105fc576105d733600183815481106105c0577f4e487b7100000000000000000000000000000000000000000000000000000000600052603260045260246000fd5b9060005260206000209060040201600001546109ab565b156105eb5781806105e790611507565b9250505b806105f590611507565b9050610575565b506000808267ffffffffffffffff811115610640577f4e487b7100000000000000000000000000000000000000000000000000000000600052604160045260246000fd5b60405190808252806020026020018201604052801561066e5781602001602082028036833780820191505090505b50905060005b6001805490508110156107da576106d633600183815481106106bf577f4e487b7100000000000000000000000000000000000000000000000000000000600052603260045260246000fd5b9060005260206000209060040201600001546109ab565b156107c95760018181548110610715577f4e487b7100000000000000000000000000000000000000000000000000000000600052603260045260246000fd5b906000526020600020906004020160010160009054906101000a900473ffffffffffffffffffffffffffffffffffffffff16828481518110610780577f4e487b7100000000000000000000000000000000000000000000000000000000600052603260045260246000fd5b602002602001019073ffffffffffffffffffffffffffffffffffffffff16908173ffffffffffffffffffffffffffffffffffffffff168152505082806107c590611507565b9350505b806107d390611507565b9050610674565b5080935050505090565b600181815481106107f457600080fd5b90600052602060002090600402016000915090508060000154908060010160009054906101000a900473ffffffffffffffffffffffffffffffffffffffff16908060020160009054906101000a900473ffffffffffffffffffffffffffffffffffffffff16905083565b60006040517f3d602d80600a3d3981f3363d3d373d3d3d363d7300000000000000000000000081528260601b60148201527f5af43d82803e903d91602b57fd5bf3000000000000000000000000000000000060288201526037816000f0915050600073ffffffffffffffffffffffffffffffffffffffff168173ffffffffffffffffffffffffffffffffffffffff16141561092e576040517f08c379a0000000000000000000000000000000000000000000000000000000008152600401610925906110f8565b60405180910390fd5b919050565b60008060005b83518110156109a15783818151811061097b577f4e487b7100000000000000000000000000000000000000000000000000000000600052603260045260246000fd5b60200260200101518261098e9190611426565b91508061099a90611507565b9050610939565b5080915050919050565b6000808373ffffffffffffffffffffffffffffffffffffffff16600184815481106109ff577f4e487b7100000000000000000000000000000000000000000000000000000000600052603260045260246000fd5b906000526020600020906004020160020160009054906101000a900473ffffffffffffffffffffffffffffffffffffffff1673ffffffffffffffffffffffffffffffffffffffff161415610a565760019050610bae565b60005b60018481548110610a93577f4e487b7100000000000000000000000000000000000000000000000000000000600052603260045260246000fd5b906000526020600020906004020160030180549050811015610bac578473ffffffffffffffffffffffffffffffffffffffff1660018581548110610b00577f4e487b7100000000000000000000000000000000000000000000000000000000600052603260045260246000fd5b90600052602060002090600402016003018281548110610b49577f4e487b7100000000000000000000000000000000000000000000000000000000600052603260045260246000fd5b9060005260206000200160009054906101000a900473ffffffffffffffffffffffffffffffffffffffff1673ffffffffffffffffffffffffffffffffffffffff161415610b995760019150610bac565b8080610ba490611507565b915050610a59565b505b8091505092915050565b828054828255906000526020600020908101928215610c31579160200282015b82811115610c305782518260006101000a81548173ffffffffffffffffffffffffffffffffffffffff021916908373ffffffffffffffffffffffffffffffffffffffff16021790555091602001919060010190610bd8565b5b509050610c3e9190610c42565b5090565b5b80821115610c5b576000816000905550600101610c43565b5090565b600081359050610c6e816115e2565b92915050565b600081359050610c83816115f9565b92915050565b600081519050610c98816115f9565b92915050565b600060e08284031215610cb057600080fd5b81905092915050565b600081359050610cc881611610565b92915050565b600060208284031215610ce057600080fd5b6000610cee84828501610c74565b91505092915050565b600060208284031215610d0957600080fd5b6000610d1784828501610c89565b91505092915050565b600060208284031215610d3257600080fd5b600082013567ffffffffffffffff811115610d4c57600080fd5b610d5884828501610c9e565b91505092915050565b600060208284031215610d7357600080fd5b6000610d8184828501610cb9565b91505092915050565b6000610d968383610da2565b60208301905092915050565b610dab816114b0565b82525050565b610dba816114b0565b82525050565b6000610dcc8385611287565b9350610dd782611248565b8060005b85811015610e1057610ded82846112dc565b610df78882610d8a565b9750610e028361126d565b925050600181019050610ddb565b5085925050509392505050565b6000610e2882611262565b610e328185611298565b9350610e3d83611252565b8060005b83811015610e6e578151610e558882610d8a565b9750610e608361127a565b925050600181019050610e41565b5085935050505092915050565b6000610e8783856112a9565b93507f07ffffffffffffffffffffffffffffffffffffffffffffffffffffffffffffff831115610eb657600080fd5b602083029250610ec78385846114f8565b82840190509392505050565b610edc816114c2565b82525050565b6000610eee83856112ba565b9350610efb8385846114f8565b610f048361157f565b840190509392505050565b6000610f1c6013836112cb565b9150610f2782611590565b602082019050919050565b6000610f3f6016836112cb565b9150610f4a826115b9565b602082019050919050565b600060e08301610f6860008401846113a1565b610f756000860182610ed3565b50610f83602084018461140f565b610f906020860182611046565b50610f9e604084018461134a565b8583036040870152610fb1838284610e7b565b92505050610fc260608401846112dc565b610fcf6060860182610da2565b50610fdd60808401846112f3565b8583036080870152610ff0838284610dc0565b9250505061100160a08401846113b8565b85830360a0870152611014838284610ee2565b9250505061102560c08401846113b8565b85830360c0870152611038838284610ee2565b925050508091505092915050565b61104f816114ee565b82525050565b61105e816114ee565b82525050565b60006020820190506110796000830184610db1565b92915050565b60006060820190506110946000830186610db1565b6110a16020830185610db1565b6110ae6040830184611055565b949350505050565b600060208201905081810360008301526110d08184610e1d565b905092915050565b600060208201905081810360008301526110f181610f0f565b9050919050565b6000602082019050818103600083015261111181610f32565b9050919050565b600060408201905081810360008301526111328185610f55565b90506111416020830184610db1565b9392505050565b600060208201905061115d6000830184611055565b92915050565b60006060820190506111786000830186611055565b6111856020830185610db1565b6111926040830184610db1565b949350505050565b600080833560016020038436030381126111b357600080fd5b80840192508235915067ffffffffffffffff8211156111d157600080fd5b6020830192506020820236038313156111e957600080fd5b509250929050565b6000808335600160200384360303811261120a57600080fd5b80840192508235915067ffffffffffffffff82111561122857600080fd5b60208301925060208202360383131561124057600080fd5b509250929050565b6000819050919050565b6000819050602082019050919050565b600081519050919050565b6000602082019050919050565b6000602082019050919050565b600082825260208201905092915050565b600082825260208201905092915050565b600082825260208201905092915050565b600082825260208201905092915050565b600082825260208201905092915050565b60006112eb6020840184610c5f565b905092915050565b6000808335600160200384360303811261130c57600080fd5b83810192508235915060208301925067ffffffffffffffff82111561133057600080fd5b60208202360384131561134257600080fd5b509250929050565b6000808335600160200384360303811261136357600080fd5b83810192508235915060208301925067ffffffffffffffff82111561138757600080fd5b60208202360384131561139957600080fd5b509250929050565b60006113b06020840184610c74565b905092915050565b600080833560016020038436030381126113d157600080fd5b83810192508235915060208301925067ffffffffffffffff8211156113f557600080fd5b60018202360384131561140757600080fd5b509250929050565b600061141e6020840184610cb9565b905092915050565b6000611431826114ee565b915061143c836114ee565b9250827fffffffffffffffffffffffffffffffffffffffffffffffffffffffffffffffff0382111561147157611470611550565b5b828201905092915050565b6000611487826114ee565b9150611492836114ee565b9250828210156114a5576114a4611550565b5b828203905092915050565b60006114bb826114ce565b9050919050565b60008115159050919050565b600073ffffffffffffffffffffffffffffffffffffffff82169050919050565b6000819050919050565b82818337600083830152505050565b6000611512826114ee565b91507fffffffffffffffffffffffffffffffffffffffffffffffffffffffffffffffff82141561154557611544611550565b5b600182019050919050565b7f4e487b7100000000000000000000000000000000000000000000000000000000600052601160045260246000fd5b6000601f19601f8301169050919050565b7f444149207472616e73666572206661696c656400000000000000000000000000600082015250565b7f455243313136373a20637265617465206661696c656400000000000000000000600082015250565b6115eb816114b0565b81146115f657600080fd5b50565b611602816114c2565b811461160d57600080fd5b50565b611619816114ee565b811461162457600080fd5b5056fea2646970667358221220237fb8a34206bcbbb8899b1c744c0893b6e39db919dae2b8ca6bcaa9b006e7df64736f6c63430008020033608060405260008060006101000a81548160ff0219169083600481111561004f577f4e487b7100000000000000000000000000000000000000000000000000000000600052602160045260246000fd5b021790555034801561006057600080fd5b50612db6806100706000396000f3fe608060405234801561001057600080fd5b506004361061009e5760003560e01c806369d2ce621161006657806369d2ce62146100e75780638f96e85014610105578063c1bd655414610123578063d5252dcf14610141578063f10746f41461015d5761009e565b806319ffb960146100a357806325ace2a7146100bf57806331c84ea6146100c957806334516203146100d357806343d00d04146100dd575b600080fd5b6100bd60048036038101906100b89190611b13565b61017b565b005b6100c7610423565b005b6100d161043b565b005b6100db6105f7565b005b6100e5610766565b005b6100ef610988565b6040516100fc9190611f22565b60405180910390f35b61010d610bf5565b60405161011a919061201d565b60405180910390f35b61012b611003565b6040516101389190611f22565b60405180910390f35b61015b60048036038101906101569190611b67565b6111c5565b005b610165611278565b604051610172919061203f565b60405180910390f35b600060029054906101000a900460ff166101a557600060019054906101000a900460ff16156101ae565b6101ad611433565b5b6101ed576040517f08c379a00000000000000000000000000000000000000000000000000000000081526004016101e490611fbd565b60405180910390fd5b60008060029054906101000a900460ff16159050801561023e576001600060026101000a81548160ff0219169083151502179055506001600060016101000a81548160ff0219169083151502179055505b826001818161024d9190612cbb565b90505081600860006101000a81548173ffffffffffffffffffffffffffffffffffffffff021916908373ffffffffffffffffffffffffffffffffffffffff1602179055508260000160208101906102a49190611ac1565b156103c65760005b8380604001906102bc91906120b1565b90508110156103c4578380604001906102d591906120b1565b8281811061030c577f4e487b7100000000000000000000000000000000000000000000000000000000600052603260045260246000fd5b90506020020135600a6000868060800190610327919061205a565b8581811061035e577f4e487b7100000000000000000000000000000000000000000000000000000000600052603260045260246000fd5b90506020020160208101906103739190611a98565b73ffffffffffffffffffffffffffffffffffffffff1673ffffffffffffffffffffffffffffffffffffffff1681526020019081526020016000208190555080806103bc90612761565b9150506102ac565b505b7f3862dd748e1ca79fcd6f7cfb2a40db495da62a25761b04bdddbb073b0e548cd6306040516103f59190611eb5565b60405180910390a1801561041e5760008060026101000a81548160ff0219169083151502179055505b505050565b60018001544210610439576104386003611444565b5b565b60003373ffffffffffffffffffffffffffffffffffffffff16600160030160009054906101000a900473ffffffffffffffffffffffffffffffffffffffff1673ffffffffffffffffffffffffffffffffffffffff16141561049f5760019050610569565b60005b600160040180549050811015610567573373ffffffffffffffffffffffffffffffffffffffff1660016004018281548110610506577f4e487b7100000000000000000000000000000000000000000000000000000000600052603260045260246000fd5b9060005260206000200160009054906101000a900473ffffffffffffffffffffffffffffffffffffffff1673ffffffffffffffffffffffffffffffffffffffff1614156105565760019150610567565b8061056090612761565b90506104a2565b505b806105a9576040517f08c379a00000000000000000000000000000000000000000000000000000000081526004016105a090611fdd565b60405180910390fd5b6105b36000611496565b6105bb611558565b7fbae8547f50c16c22426d683b8d9d608d52e192e6acbf7bc7b8f6889fcd1fbb6d33306040516105ec929190611ed0565b60405180910390a150565b600160030160009054906101000a900473ffffffffffffffffffffffffffffffffffffffff1673ffffffffffffffffffffffffffffffffffffffff163373ffffffffffffffffffffffffffffffffffffffff161461068a576040517f08c379a000000000000000000000000000000000000000000000000000000000815260040161068190611f7d565b60405180910390fd5b6106946001611496565b600115156106a0610988565b1515146106e2576040517f08c379a00000000000000000000000000000000000000000000000000000000081526004016106d990611f5d565b60405180910390fd5b6001600860146101000a81548160ff02191690831515021790555060011515600160000160009054906101000a900460ff1615151415610725576107246115e1565b5b61072d611842565b7f652558422eb93dbb1c6760141371fc8419f87938d1fa47dec3e6614ce07f72a53060405161075c9190611eb5565b60405180910390a1565b60003373ffffffffffffffffffffffffffffffffffffffff16600160030160009054906101000a900473ffffffffffffffffffffffffffffffffffffffff1673ffffffffffffffffffffffffffffffffffffffff1614156107ca5760019050610894565b60005b600160040180549050811015610892573373ffffffffffffffffffffffffffffffffffffffff1660016004018281548110610831577f4e487b7100000000000000000000000000000000000000000000000000000000600052603260045260246000fd5b9060005260206000200160009054906101000a900473ffffffffffffffffffffffffffffffffffffffff1673ffffffffffffffffffffffffffffffffffffffff1614156108815760019150610892565b8061088b90612761565b90506107cd565b505b806108d4576040517f08c379a00000000000000000000000000000000000000000000000000000000081526004016108cb90611fdd565b60405180910390fd5b6108de6000611496565b6001600960003373ffffffffffffffffffffffffffffffffffffffff1673ffffffffffffffffffffffffffffffffffffffff16815260200190815260200160002060006101000a81548160ff02191690831515021790555061093e610988565b1561094c5761094b611842565b5b7f13a17564c18f94d8dc8dad308b368ddecc4b5869143a7e491b1eb6748ea7e67f333060405161097d929190611ed0565b60405180910390a150565b6000803373ffffffffffffffffffffffffffffffffffffffff16600160030160009054906101000a900473ffffffffffffffffffffffffffffffffffffffff1673ffffffffffffffffffffffffffffffffffffffff1614156109ed5760019050610ab7565b60005b600160040180549050811015610ab5573373ffffffffffffffffffffffffffffffffffffffff1660016004018281548110610a54577f4e487b7100000000000000000000000000000000000000000000000000000000600052603260045260246000fd5b9060005260206000200160009054906101000a900473ffffffffffffffffffffffffffffffffffffffff1673ffffffffffffffffffffffffffffffffffffffff161415610aa45760019150610ab5565b80610aae90612761565b90506109f0565b505b80610af7576040517f08c379a0000000000000000000000000000000000000000000000000000000008152600401610aee90611fdd565b60405180910390fd5b60006001905060005b600160040180549050811015610bec57600015156009600060016004018481548110610b55577f4e487b7100000000000000000000000000000000000000000000000000000000600052603260045260246000fd5b9060005260206000200160009054906101000a900473ffffffffffffffffffffffffffffffffffffffff1673ffffffffffffffffffffffffffffffffffffffff1673ffffffffffffffffffffffffffffffffffffffff16815260200190815260200160002060009054906101000a900460ff1615151415610bd95760009150610bec565b8080610be490612761565b915050610b00565b50809250505090565b610bfd6119d4565b60003373ffffffffffffffffffffffffffffffffffffffff16600160030160009054906101000a900473ffffffffffffffffffffffffffffffffffffffff1673ffffffffffffffffffffffffffffffffffffffff161415610c615760019050610d2b565b60005b600160040180549050811015610d29573373ffffffffffffffffffffffffffffffffffffffff1660016004018281548110610cc8577f4e487b7100000000000000000000000000000000000000000000000000000000600052603260045260246000fd5b9060005260206000200160009054906101000a900473ffffffffffffffffffffffffffffffffffffffff1673ffffffffffffffffffffffffffffffffffffffff161415610d185760019150610d29565b80610d2290612761565b9050610c64565b505b80610d6b576040517f08c379a0000000000000000000000000000000000000000000000000000000008152600401610d6290611fdd565b60405180910390fd5b60016040518060e00160405290816000820160009054906101000a900460ff161515151581526020016001820154815260200160028201805480602002602001604051908101604052809291908181526020018280548015610dec57602002820191906000526020600020905b815481526020019060010190808311610dd8575b505050505081526020016003820160009054906101000a900473ffffffffffffffffffffffffffffffffffffffff1673ffffffffffffffffffffffffffffffffffffffff1673ffffffffffffffffffffffffffffffffffffffff16815260200160048201805480602002602001604051908101604052809291908181526020018280548015610ed057602002820191906000526020600020905b8160009054906101000a900473ffffffffffffffffffffffffffffffffffffffff1673ffffffffffffffffffffffffffffffffffffffff1681526020019060010190808311610e86575b50505050508152602001600582018054610ee990612713565b80601f0160208091040260200160405190810160405280929190818152602001828054610f1590612713565b8015610f625780601f10610f3757610100808354040283529160200191610f62565b820191906000526020600020905b815481529060010190602001808311610f4557829003601f168201915b50505050508152602001600682018054610f7b90612713565b80601f0160208091040260200160405190810160405280929190818152602001828054610fa790612713565b8015610ff45780601f10610fc957610100808354040283529160200191610ff4565b820191906000526020600020905b815481529060010190602001808311610fd757829003601f168201915b50505050508152505091505090565b6000803373ffffffffffffffffffffffffffffffffffffffff16600160030160009054906101000a900473ffffffffffffffffffffffffffffffffffffffff1673ffffffffffffffffffffffffffffffffffffffff1614156110685760019050611132565b60005b600160040180549050811015611130573373ffffffffffffffffffffffffffffffffffffffff16600160040182815481106110cf577f4e487b7100000000000000000000000000000000000000000000000000000000600052603260045260246000fd5b9060005260206000200160009054906101000a900473ffffffffffffffffffffffffffffffffffffffff1673ffffffffffffffffffffffffffffffffffffffff16141561111f5760019150611130565b8061112990612761565b905061106b565b505b80611172576040517f08c379a000000000000000000000000000000000000000000000000000000000815260040161116990611fdd565b60405180910390fd5b600960003373ffffffffffffffffffffffffffffffffffffffff1673ffffffffffffffffffffffffffffffffffffffff16815260200190815260200160002060009054906101000a900460ff1691505090565b600160030160009054906101000a900473ffffffffffffffffffffffffffffffffffffffff1673ffffffffffffffffffffffffffffffffffffffff163373ffffffffffffffffffffffffffffffffffffffff1614611258576040517f08c379a000000000000000000000000000000000000000000000000000000000815260040161124f90611f7d565b60405180910390fd5b6112626003611496565b8060018001819055506112756002611444565b50565b6000803373ffffffffffffffffffffffffffffffffffffffff16600160030160009054906101000a900473ffffffffffffffffffffffffffffffffffffffff1673ffffffffffffffffffffffffffffffffffffffff1614156112dd57600190506113a7565b60005b6001600401805490508110156113a5573373ffffffffffffffffffffffffffffffffffffffff1660016004018281548110611344577f4e487b7100000000000000000000000000000000000000000000000000000000600052603260045260246000fd5b9060005260206000200160009054906101000a900473ffffffffffffffffffffffffffffffffffffffff1673ffffffffffffffffffffffffffffffffffffffff16141561139457600191506113a5565b8061139e90612761565b90506112e0565b505b806113e7576040517f08c379a00000000000000000000000000000000000000000000000000000000081526004016113de90611fdd565b60405180910390fd5b60008054906101000a900460ff16600481111561142d577f4e487b7100000000000000000000000000000000000000000000000000000000600052602160045260246000fd5b91505090565b600061143e306119b1565b15905090565b806000806101000a81548160ff0219169083600481111561148e577f4e487b7100000000000000000000000000000000000000000000000000000000600052602160045260246000fd5b021790555050565b8060048111156114cf577f4e487b7100000000000000000000000000000000000000000000000000000000600052602160045260246000fd5b60008054906101000a900460ff166004811115611515577f4e487b7100000000000000000000000000000000000000000000000000000000600052602160045260246000fd5b14611555576040517f08c379a000000000000000000000000000000000000000000000000000000000815260040161154c90611ffd565b60405180910390fd5b50565b600480811115611591577f4e487b7100000000000000000000000000000000000000000000000000000000600052602160045260246000fd5b6000806101000a81548160ff021916908360048111156115da577f4e487b7100000000000000000000000000000000000000000000000000000000600052602160045260246000fd5b0217905550565b60005b600160040180549050811015611808576000600860009054906101000a900473ffffffffffffffffffffffffffffffffffffffff1673ffffffffffffffffffffffffffffffffffffffff1663a9059cbb60016004018481548110611671577f4e487b7100000000000000000000000000000000000000000000000000000000600052603260045260246000fd5b9060005260206000200160009054906101000a900473ffffffffffffffffffffffffffffffffffffffff16600a6000600160040187815481106116dd577f4e487b7100000000000000000000000000000000000000000000000000000000600052603260045260246000fd5b9060005260206000200160009054906101000a900473ffffffffffffffffffffffffffffffffffffffff1673ffffffffffffffffffffffffffffffffffffffff1673ffffffffffffffffffffffffffffffffffffffff168152602001908152602001600020546040518363ffffffff1660e01b8152600401611760929190611ef9565b602060405180830381600087803b15801561177a57600080fd5b505af115801561178e573d6000803e3d6000fd5b505050506040513d601f19601f820116820180604052508101906117b29190611aea565b9050806117f4576040517f08c379a00000000000000000000000000000000000000000000000000000000081526004016117eb90611f9d565b60405180910390fd5b50808061180090612761565b9150506115e4565b507fdf8d8efd852d6ee5e48dcbe2ab0f55b5413c5d2c3839ee3aed11adab642d0c3e306040516118389190611eb5565b60405180910390a1565b6002600160008054906101000a900460ff16600481111561188c577f4e487b7100000000000000000000000000000000000000000000000000000000600052602160045260246000fd5b61189691906122b2565b11156118d7576040517f08c379a00000000000000000000000000000000000000000000000000000000081526004016118ce90611f3d565b60405180910390fd5b600160008054906101000a900460ff16600481111561191f577f4e487b7100000000000000000000000000000000000000000000000000000000600052602160045260246000fd5b61192991906122b2565b6004811115611961577f4e487b7100000000000000000000000000000000000000000000000000000000600052602160045260246000fd5b6000806101000a81548160ff021916908360048111156119aa577f4e487b7100000000000000000000000000000000000000000000000000000000600052602160045260246000fd5b0217905550565b6000808273ffffffffffffffffffffffffffffffffffffffff163b119050919050565b6040518060e001604052806000151581526020016000815260200160608152602001600073ffffffffffffffffffffffffffffffffffffffff1681526020016060815260200160608152602001606081525090565b600081359050611a3881612d36565b92915050565b600081359050611a4d81612d4d565b92915050565b600081519050611a6281612d4d565b92915050565b600060e08284031215611a7a57600080fd5b81905092915050565b600081359050611a9281612d64565b92915050565b600060208284031215611aaa57600080fd5b6000611ab884828501611a29565b91505092915050565b600060208284031215611ad357600080fd5b6000611ae184828501611a3e565b91505092915050565b600060208284031215611afc57600080fd5b6000611b0a84828501611a53565b91505092915050565b60008060408385031215611b2657600080fd5b600083013567ffffffffffffffff811115611b4057600080fd5b611b4c85828601611a68565b9250506020611b5d85828601611a29565b9150509250929050565b600060208284031215611b7957600080fd5b6000611b8784828501611a83565b91505092915050565b6000611b9c8383611bc0565b60208301905092915050565b6000611bb48383611e97565b60208301905092915050565b611bc981612308565b82525050565b611bd881612308565b82525050565b6000611be982612207565b611bf3818561226e565b9350611bfe83612193565b8060005b83811015611c2f578151611c168882611b90565b9750611c2183612254565b925050600181019050611c02565b5085935050505092915050565b6000611c4782612228565b611c51818561227f565b9350611c5c836121c2565b8060005b83811015611c8d578151611c748882611ba8565b9750611c7f83612261565b925050600181019050611c60565b5085935050505092915050565b611ca38161231a565b82525050565b611cb28161231a565b82525050565b6000611cc382612249565b611ccd8185612290565b9350611cdd8185602086016125f5565b611ce68161297d565b840191505092915050565b6000611cfe600d836122a1565b9150611d09826129cd565b602082019050919050565b6000611d21601d836122a1565b9150611d2c826129f6565b602082019050919050565b6000611d446014836122a1565b9150611d4f82612a1f565b602082019050919050565b6000611d676013836122a1565b9150611d7282612a48565b602082019050919050565b6000611d8a602e836122a1565b9150611d9582612a71565b604082019050919050565b6000611dad601b836122a1565b9150611db882612ac0565b602082019050919050565b6000611dd06015836122a1565b9150611ddb82612ae9565b602082019050919050565b600060e083016000830151611dfe6000860182611c9a565b506020830151611e116020860182611e97565b5060408301518482036040860152611e298282611c3c565b9150506060830151611e3e6060860182611bc0565b5060808301518482036080860152611e568282611bde565b91505060a083015184820360a0860152611e708282611cb8565b91505060c083015184820360c0860152611e8a8282611cb8565b9150508091505092915050565b611ea081612346565b82525050565b611eaf81612346565b82525050565b6000602082019050611eca6000830184611bcf565b92915050565b6000604082019050611ee56000830185611bcf565b611ef26020830184611bcf565b9392505050565b6000604082019050611f0e6000830185611bcf565b611f1b6020830184611ea6565b9392505050565b6000602082019050611f376000830184611ca9565b92915050565b60006020820190508181036000830152611f5681611cf1565b9050919050565b60006020820190508181036000830152611f7681611d14565b9050919050565b60006020820190508181036000830152611f9681611d37565b9050919050565b60006020820190508181036000830152611fb681611d5a565b9050919050565b60006020820190508181036000830152611fd681611d7d565b9050919050565b60006020820190508181036000830152611ff681611da0565b9050919050565b6000602082019050818103600083015261201681611dc3565b9050919050565b600060208201905081810360008301526120378184611de6565b905092915050565b60006020820190506120546000830184611ea6565b92915050565b6000808335600160200384360303811261207357600080fd5b80840192508235915067ffffffffffffffff82111561209157600080fd5b6020830192506020820236038313156120a957600080fd5b509250929050565b600080833560016020038436030381126120ca57600080fd5b80840192508235915067ffffffffffffffff8211156120e857600080fd5b60208301925060208202360383131561210057600080fd5b509250929050565b6000808335600160200384360303811261212157600080fd5b80840192508235915067ffffffffffffffff82111561213f57600080fd5b60208301925060018202360383131561215757600080fd5b509250929050565b60008190506001806001038301049050919050565b60008190506001806001038301049050919050565b6000819050919050565b6000819050602082019050919050565b60008190508160005260206000209050919050565b6000819050919050565b6000819050602082019050919050565b60008190508160005260206000209050919050565b60008190508160005260206000209050919050565b600082905092915050565b600081519050919050565b600081549050919050565b600082905092915050565b600081519050919050565b600081549050919050565b600082905092915050565b600081519050919050565b6000602082019050919050565b6000602082019050919050565b600082825260208201905092915050565b600082825260208201905092915050565b600082825260208201905092915050565b600082825260208201905092915050565b60006122bd82612346565b91506122c883612346565b9250827fffffffffffffffffffffffffffffffffffffffffffffffffffffffffffffffff038211156122fd576122fc6127c8565b5b828201905092915050565b600061231382612326565b9050919050565b60008115159050919050565b600073ffffffffffffffffffffffffffffffffffffffff82169050919050565b6000819050919050565b5b8181101561236f576123646000826129b5565b600181019050612351565b5050565b5b81811015612392576123876000826129b5565b600181019050612374565b5050565b5b818110156123b5576123aa6000826129b5565b600181019050612397565b5050565b60006123c4826123dd565b9050919050565b60006123d68261231a565b9050919050565b60006123e8826123ef565b9050919050565b60006123fa82612326565b9050919050565b600061240c82612346565b9050919050565b61241d83836121fc565b61242781836128b5565b61243083612189565b612439836121a3565b6000805b84811015612474578361244f81612873565b905061245c818486612cec565b6020850194506001840193505060018101905061243d565b5050505050505050565b612488838361221d565b6124928183612919565b61249b836121b8565b6124a4836121d2565b6000805b848110156124df57836124ba8161289f565b90506124c7818486612d11565b602085019450600184019350506001810190506124a8565b5050505050505050565b6124f3838361223e565b67ffffffffffffffff81111561250c5761250b612826565b5b6125168254612713565b600080601f8411601f8411171561253357612530856121e7565b90505b601f831115612566576020601f85010481016020851015612552578190505b6125646020601f860104830182612373565b505b601f8411600181146125935760008515612581578388013590505b61258b8682612745565b8755506125eb565b601f1985168260005b828110156125c157858a0135825560018201915060208601955060208101905061259c565b878310156125de57858a01356125da601f8a16826127aa565b8355505b6001600289020189555050505b5050505050505050565b60005b838110156126135780820151818401526020810190506125f8565b83811115612622576000848401525b50505050565b60008101600083018061263a81612889565b90506126468184612c88565b50505060018101602083018061265b8161289f565b90506126678184612cc9565b505050600281016040830161267c81856120b1565b612687818386612c78565b5050505060038101606083018061269d81612873565b90506126a98184612c45565b50505060048101608083016126be818561205a565b6126c9818386612c68565b505050506005810160a083016126df8185612108565b6126ea818386612cab565b505050506006810160c083016127008185612108565b61270b818386612cab565b505050505050565b6000600282049050600182168061272b57607f821691505b6020821081141561273f5761273e6127f7565b5b50919050565b600061275183836127aa565b9150826002028217905092915050565b600061276c82612346565b91507fffffffffffffffffffffffffffffffffffffffffffffffffffffffffffffffff82141561279f5761279e6127c8565b5b600182019050919050565b60006127bb600019846008026129a8565b1980831691505092915050565b7f4e487b7100000000000000000000000000000000000000000000000000000000600052601160045260246000fd5b7f4e487b7100000000000000000000000000000000000000000000000000000000600052602260045260246000fd5b7f4e487b7100000000000000000000000000000000000000000000000000000000600052604160045260246000fd5b6000819050919050565b6000819050919050565b6000819050919050565b6000813561288081612d36565b80915050919050565b6000813561289681612d4d565b80915050919050565b600081356128ac81612d64565b80915050919050565b680100000000000000008211156128cf576128ce612826565b5b6128d881612212565b82825580831015612914576128ec8161215f565b6128f58461215f565b6128fe846121a3565b81810183820161290e8183612350565b50505050505b505050565b6801000000000000000082111561293357612932612826565b5b61293c81612233565b828255808310156129785761295081612174565b61295984612174565b612962846121d2565b8181018382016129728183612396565b50505050505b505050565b6000601f19601f8301169050919050565b60008160001b9050919050565b600082821b905092915050565b600082821c905092915050565b6129bd612d7b565b6129c8818484612d11565b505050565b7f496e76616c696420737461676500000000000000000000000000000000000000600082015250565b7f416c6c20706172746965732068617665206e6f7420617070726f766564000000600082015250565b7f4e6f7420696e6974696174696e67207061727479000000000000000000000000600082015250565b7f444149207472616e73666572206661696c656400000000000000000000000000600082015250565b7f496e697469616c697a61626c653a20636f6e747261637420697320616c72656160008201527f647920696e697469616c697a6564000000000000000000000000000000000000602082015250565b7f4e6f74206120706172747920746f2074686520636f6e74726163740000000000600082015250565b7f4e6f7420696e2065787065637465642073746167650000000000000000000000600082015250565b600060ff612b1f8461298e565b9350801983169250808416831791505092915050565b600073ffffffffffffffffffffffffffffffffffffffff612b558461298e565b9350801983169250808416831791505092915050565b60007fffffffffffffffffffffffffffffffffffffffffffffffffffffffffffffffff612b978461298e565b9350801983169250808416831791505092915050565b600060088302612bd173ffffffffffffffffffffffffffffffffffffffff8261299b565b612bdb868361299b565b95508019841693508086168417925050509392505050565b600060088302612c237fffffffffffffffffffffffffffffffffffffffffffffffffffffffffffffffff8261299b565b612c2d868361299b565b95508019841693508086168417925050509392505050565b612c4e826123b9565b612c61612c5a82612855565b8354612b35565b8255505050565b612c73838383612413565b505050565b612c8383838361247e565b505050565b612c91826123cb565b612ca4612c9d8261285f565b8354612b12565b8255505050565b612cb68383836124e9565b505050565b612cc58282612628565b5050565b612cd282612401565b612ce5612cde82612869565b8354612b6b565b8255505050565b612cf5836123b9565b612d09612d0182612855565b848454612bad565b825550505050565b612d1a83612401565b612d2e612d2682612869565b848454612bf3565b825550505050565b612d3f81612308565b8114612d4a57600080fd5b50565b612d568161231a565b8114612d6157600080fd5b50565b612d6d81612346565b8114612d7857600080fd5b50565b60009056fea264697066735822122095c084064548e2ffa6b3ed7b45dc2233a90b79a65d3da2f04f6f34449419f95c64736f6c63430008020033",
  "immutableReferences": {
    "1717": [
      {
        "length": 32,
        "start": 344
      },
      {
        "length": 32,
        "start": 1344
      }
    ]
  },
  "source": "// SPDX-License-Identifier: MIT\r\npragma solidity ^0.8.2;\r\n\r\nimport \"@openzeppelin/contracts/token/ERC20/IERC20.sol\";\r\nimport \"@openzeppelin/contracts/proxy/Clones.sol\";\r\nimport \"./interfaces/IContractInit.sol\";\r\nimport \"./ContractController.sol\";\r\n\r\n/**\r\n * @title CMSB Contract Factory\r\n * @dev Create and view draft contracts\r\n */\r\n\r\ncontract ContractFactory is IContractInit {\r\n\r\n    address public immutable baseContract;\r\n    address public daiTokenAddress;\r\n\r\n    constructor(address _daiTokenAddress) {\r\n        daiTokenAddress = _daiTokenAddress;\r\n        baseContract = address(new ContractController());\r\n    }\r\n\r\n    BaseContractData[] public contractsList;\r\n\r\n    event createdNewDraftContract(uint);    \r\n\r\n    function getArraySum(uint[] memory array) private pure returns (uint) {\r\n        uint arraySum;\r\n        for (uint i=0; i < array.length; ++i) {\r\n            arraySum += array[i];\r\n        }\r\n        return arraySum;\r\n    }\r\n\r\n    function isPartyOf(address _partyAddress, uint _contractId) internal view returns (bool) {\r\n        bool isParty;\r\n        if (contractsList[_contractId].initiatingParty == _partyAddress) {\r\n            isParty = true;\r\n        } else {\r\n            for (uint i=0; i < contractsList[_contractId].parties.length; i++) {\r\n                if (contractsList[_contractId].parties[i] == _partyAddress) {\r\n                    isParty = true;\r\n                    break;\r\n                }\r\n            }\r\n        }\r\n        return isParty;\r\n    }\r\n\r\n    function getContractsCount() external view returns (uint) {\r\n        return contractsList.length;\r\n    }\r\n\r\n    function getMyContracts() external view returns (address[] memory) {\r\n        uint j = 0;\r\n        for (uint i=0; i < contractsList.length; ++i) {\r\n            if (isPartyOf(msg.sender, contractsList[i].id)) {\r\n                j++;\r\n            }\r\n        }\r\n        uint k=0;\r\n        address[] memory myContracts = new address[](j);\r\n        for (uint i=0; i < contractsList.length; ++i) {\r\n            if (isPartyOf(msg.sender, contractsList[i].id)) {\r\n                myContracts[k] = contractsList[i].contractAddress;\r\n                k++;\r\n            }\r\n        }\r\n        return myContracts;\r\n    }\r\n\r\n    function initiateContract(\r\n        CompleteContractData calldata _contractData\r\n    ) \r\n        external \r\n    {\r\n        address newContract = Clones.clone(baseContract);\r\n        contractsList.push(BaseContractData(contractsList.length, newContract, msg.sender, _contractData.parties));\r\n        ContractController(newContract).initialize(_contractData, daiTokenAddress);\r\n        if (_contractData.isPayable) {\r\n            bool success = IERC20(daiTokenAddress).transferFrom(msg.sender, newContract, getArraySum(_contractData.fundDistribution));\r\n            require(success, \"DAI transfer failed\");\r\n        }\r\n        emit createdNewDraftContract(contractsList.length-1);\r\n    }\r\n}",
  "sourcePath": "E:\\SOE CUSAT\\S6\\Mini-project\\Code\\CMSB\\truffle\\contracts\\ContractFactory.sol",
  "compiler": {
    "name": "solc",
    "version": "0.8.2+commit.661d1103.Emscripten.clang"
  },
  "schemaVersion": "3.4.5",
  "updatedAt": "2022-04-11T12:33:47.427Z",
  "networkType": "ethereum",
  "devdoc": {
    "details": "Create and view draft contracts",
    "kind": "dev",
    "methods": {},
    "title": "CMSB Contract Factory",
    "version": 1
  },
  "userdoc": {
    "kind": "user",
    "methods": {},
    "version": 1
  }
}