{
  "contractName": "ContractController",
  "abi": [
    {
      "anonymous": false,
      "inputs": [
        {
          "indexed": false,
          "internalType": "address",
          "name": "contractAddress",
          "type": "address"
        }
      ],
      "name": "contractInitialized",
      "type": "event"
    },
    {
      "anonymous": false,
      "inputs": [
        {
          "indexed": false,
          "internalType": "address",
          "name": "party",
          "type": "address"
        },
        {
          "indexed": false,
          "internalType": "address",
          "name": "contractAddress",
          "type": "address"
        }
      ],
      "name": "contractRejectedByParty",
      "type": "event"
    },
    {
      "anonymous": false,
      "inputs": [
        {
          "indexed": false,
          "internalType": "address",
          "name": "contractAddress",
          "type": "address"
        }
      ],
      "name": "finalApprovalCompleted",
      "type": "event"
    },
    {
      "anonymous": false,
      "inputs": [
        {
          "indexed": false,
          "internalType": "address",
          "name": "party",
          "type": "address"
        },
        {
          "indexed": false,
          "internalType": "address",
          "name": "contractAddress",
          "type": "address"
        }
      ],
      "name": "partyApproved",
      "type": "event"
    },
    {
      "anonymous": false,
      "inputs": [
        {
          "indexed": false,
          "internalType": "address",
          "name": "contractAddress",
          "type": "address"
        }
      ],
      "name": "paymentExecuted",
      "type": "event"
    },
    {
      "inputs": [],
      "name": "haveAllPartiesApproved",
      "outputs": [
        {
          "internalType": "bool",
          "name": "",
          "type": "bool"
        }
      ],
      "stateMutability": "view",
      "type": "function"
    },
    {
      "inputs": [],
      "name": "hasCurrentPartyApproved",
      "outputs": [
        {
          "internalType": "bool",
          "name": "",
          "type": "bool"
        }
      ],
      "stateMutability": "view",
      "type": "function"
    },
    {
      "inputs": [],
      "name": "hasContractExpired",
      "outputs": [
        {
          "internalType": "bool",
          "name": "",
          "type": "bool"
        }
      ],
      "stateMutability": "view",
      "type": "function"
    },
    {
      "inputs": [],
      "name": "getContractStage",
      "outputs": [
        {
          "internalType": "uint256",
          "name": "",
          "type": "uint256"
        }
      ],
      "stateMutability": "view",
      "type": "function"
    },
    {
      "inputs": [],
      "name": "viewContractData",
      "outputs": [
        {
          "components": [
            {
              "internalType": "bool",
              "name": "isPayable",
              "type": "bool"
            },
            {
              "internalType": "uint256",
              "name": "expiryTime",
              "type": "uint256"
            },
            {
              "internalType": "uint256[]",
              "name": "fundDistribution",
              "type": "uint256[]"
            },
            {
              "internalType": "address",
              "name": "initiatingParty",
              "type": "address"
            },
            {
              "internalType": "address[]",
              "name": "parties",
              "type": "address[]"
            },
            {
              "internalType": "string",
              "name": "contractName",
              "type": "string"
            },
            {
              "internalType": "string",
              "name": "document",
              "type": "string"
            }
          ],
          "internalType": "struct IContractInit.CompleteContractData",
          "name": "",
          "type": "tuple"
        }
      ],
      "stateMutability": "view",
      "type": "function"
    },
    {
      "inputs": [
        {
          "components": [
            {
              "internalType": "bool",
              "name": "isPayable",
              "type": "bool"
            },
            {
              "internalType": "uint256",
              "name": "expiryTime",
              "type": "uint256"
            },
            {
              "internalType": "uint256[]",
              "name": "fundDistribution",
              "type": "uint256[]"
            },
            {
              "internalType": "address",
              "name": "initiatingParty",
              "type": "address"
            },
            {
              "internalType": "address[]",
              "name": "parties",
              "type": "address[]"
            },
            {
              "internalType": "string",
              "name": "contractName",
              "type": "string"
            },
            {
              "internalType": "string",
              "name": "document",
              "type": "string"
            }
          ],
          "internalType": "struct IContractInit.CompleteContractData",
          "name": "_contractData",
          "type": "tuple"
        },
        {
          "internalType": "address",
          "name": "_daiTokenAddress",
          "type": "address"
        }
      ],
      "name": "initialize",
      "outputs": [],
      "stateMutability": "nonpayable",
      "type": "function"
    },
    {
      "inputs": [],
      "name": "approveContract",
      "outputs": [],
      "stateMutability": "nonpayable",
      "type": "function"
    },
    {
      "inputs": [],
      "name": "rejectContract",
      "outputs": [],
      "stateMutability": "nonpayable",
      "type": "function"
    },
    {
      "inputs": [],
      "name": "finalApproval",
      "outputs": [],
      "stateMutability": "nonpayable",
      "type": "function"
    },
    {
      "inputs": [
        {
          "internalType": "uint256",
          "name": "extendedTime",
          "type": "uint256"
        }
      ],
      "name": "renewContract",
      "outputs": [],
      "stateMutability": "nonpayable",
      "type": "function"
    },
    {
      "inputs": [],
      "name": "checkExpired",
      "outputs": [],
      "stateMutability": "nonpayable",
      "type": "function"
    }
  ],
  "bytecode": "0x608060405260008060006101000a81548160ff0219169083600481111561004f577f4e487b7100000000000000000000000000000000000000000000000000000000600052602160045260246000fd5b021790555034801561006057600080fd5b50612e57806100706000396000f3fe608060405234801561001057600080fd5b50600436106100a95760003560e01c806343d00d041161007157806343d00d041461010657806369d2ce62146101105780638f96e8501461012e578063c1bd65541461014c578063d5252dcf1461016a578063f10746f414610186576100a9565b80630ad7606f146100ae57806319ffb960146100cc57806325ace2a7146100e857806331c84ea6146100f257806334516203146100fc575b600080fd5b6100b66101a4565b6040516100c39190611f69565b60405180910390f35b6100e660048036038101906100e19190611b5a565b6101c0565b005b6100f0610468565b005b6100fa610482565b005b61010461063e565b005b61010e6107ad565b005b6101186109cf565b6040516101259190611f69565b60405180910390f35b610136610c3c565b6040516101439190612064565b60405180910390f35b61015461104a565b6040516101619190611f69565b60405180910390f35b610184600480360381019061017f9190611bae565b61120c565b005b61018e6112bf565b60405161019b9190612086565b60405180910390f35b60006001800154426103e86101b9919061234f565b1015905090565b600060029054906101000a900460ff166101ea57600060019054906101000a900460ff16156101f3565b6101f261147a565b5b610232576040517f08c379a000000000000000000000000000000000000000000000000000000000815260040161022990612004565b60405180910390fd5b60008060029054906101000a900460ff161590508015610283576001600060026101000a81548160ff0219169083151502179055506001600060016101000a81548160ff0219169083151502179055505b82600181816102929190612d5c565b90505081600860006101000a81548173ffffffffffffffffffffffffffffffffffffffff021916908373ffffffffffffffffffffffffffffffffffffffff1602179055508260000160208101906102e99190611b08565b1561040b5760005b83806040019061030191906120f8565b90508110156104095783806040019061031a91906120f8565b82818110610351577f4e487b7100000000000000000000000000000000000000000000000000000000600052603260045260246000fd5b90506020020135600a600086806080019061036c91906120a1565b858181106103a3577f4e487b7100000000000000000000000000000000000000000000000000000000600052603260045260246000fd5b90506020020160208101906103b89190611adf565b73ffffffffffffffffffffffffffffffffffffffff1673ffffffffffffffffffffffffffffffffffffffff16815260200190815260200160002081905550808061040190612802565b9150506102f1565b505b7f3862dd748e1ca79fcd6f7cfb2a40db495da62a25761b04bdddbb073b0e548cd63060405161043a9190611efc565b60405180910390a180156104635760008060026101000a81548160ff0219169083151502179055505b505050565b6104706101a4565b156104805761047f600361148b565b5b565b60003373ffffffffffffffffffffffffffffffffffffffff16600160030160009054906101000a900473ffffffffffffffffffffffffffffffffffffffff1673ffffffffffffffffffffffffffffffffffffffff1614156104e657600190506105b0565b60005b6001600401805490508110156105ae573373ffffffffffffffffffffffffffffffffffffffff166001600401828154811061054d577f4e487b7100000000000000000000000000000000000000000000000000000000600052603260045260246000fd5b9060005260206000200160009054906101000a900473ffffffffffffffffffffffffffffffffffffffff1673ffffffffffffffffffffffffffffffffffffffff16141561059d57600191506105ae565b806105a790612802565b90506104e9565b505b806105f0576040517f08c379a00000000000000000000000000000000000000000000000000000000081526004016105e790612024565b60405180910390fd5b6105fa60006114dd565b61060261159f565b7fbae8547f50c16c22426d683b8d9d608d52e192e6acbf7bc7b8f6889fcd1fbb6d3330604051610633929190611f17565b60405180910390a150565b600160030160009054906101000a900473ffffffffffffffffffffffffffffffffffffffff1673ffffffffffffffffffffffffffffffffffffffff163373ffffffffffffffffffffffffffffffffffffffff16146106d1576040517f08c379a00000000000000000000000000000000000000000000000000000000081526004016106c890611fc4565b60405180910390fd5b6106db60016114dd565b600115156106e76109cf565b151514610729576040517f08c379a000000000000000000000000000000000000000000000000000000000815260040161072090611fa4565b60405180910390fd5b6001600860146101000a81548160ff02191690831515021790555060011515600160000160009054906101000a900460ff161515141561076c5761076b611628565b5b610774611889565b7f652558422eb93dbb1c6760141371fc8419f87938d1fa47dec3e6614ce07f72a5306040516107a39190611efc565b60405180910390a1565b60003373ffffffffffffffffffffffffffffffffffffffff16600160030160009054906101000a900473ffffffffffffffffffffffffffffffffffffffff1673ffffffffffffffffffffffffffffffffffffffff16141561081157600190506108db565b60005b6001600401805490508110156108d9573373ffffffffffffffffffffffffffffffffffffffff1660016004018281548110610878577f4e487b7100000000000000000000000000000000000000000000000000000000600052603260045260246000fd5b9060005260206000200160009054906101000a900473ffffffffffffffffffffffffffffffffffffffff1673ffffffffffffffffffffffffffffffffffffffff1614156108c857600191506108d9565b806108d290612802565b9050610814565b505b8061091b576040517f08c379a000000000000000000000000000000000000000000000000000000000815260040161091290612024565b60405180910390fd5b61092560006114dd565b6001600960003373ffffffffffffffffffffffffffffffffffffffff1673ffffffffffffffffffffffffffffffffffffffff16815260200190815260200160002060006101000a81548160ff0219169083151502179055506109856109cf565b1561099357610992611889565b5b7f13a17564c18f94d8dc8dad308b368ddecc4b5869143a7e491b1eb6748ea7e67f33306040516109c4929190611f17565b60405180910390a150565b6000803373ffffffffffffffffffffffffffffffffffffffff16600160030160009054906101000a900473ffffffffffffffffffffffffffffffffffffffff1673ffffffffffffffffffffffffffffffffffffffff161415610a345760019050610afe565b60005b600160040180549050811015610afc573373ffffffffffffffffffffffffffffffffffffffff1660016004018281548110610a9b577f4e487b7100000000000000000000000000000000000000000000000000000000600052603260045260246000fd5b9060005260206000200160009054906101000a900473ffffffffffffffffffffffffffffffffffffffff1673ffffffffffffffffffffffffffffffffffffffff161415610aeb5760019150610afc565b80610af590612802565b9050610a37565b505b80610b3e576040517f08c379a0000000000000000000000000000000000000000000000000000000008152600401610b3590612024565b60405180910390fd5b60006001905060005b600160040180549050811015610c3357600015156009600060016004018481548110610b9c577f4e487b7100000000000000000000000000000000000000000000000000000000600052603260045260246000fd5b9060005260206000200160009054906101000a900473ffffffffffffffffffffffffffffffffffffffff1673ffffffffffffffffffffffffffffffffffffffff1673ffffffffffffffffffffffffffffffffffffffff16815260200190815260200160002060009054906101000a900460ff1615151415610c205760009150610c33565b8080610c2b90612802565b915050610b47565b50809250505090565b610c44611a1b565b60003373ffffffffffffffffffffffffffffffffffffffff16600160030160009054906101000a900473ffffffffffffffffffffffffffffffffffffffff1673ffffffffffffffffffffffffffffffffffffffff161415610ca85760019050610d72565b60005b600160040180549050811015610d70573373ffffffffffffffffffffffffffffffffffffffff1660016004018281548110610d0f577f4e487b7100000000000000000000000000000000000000000000000000000000600052603260045260246000fd5b9060005260206000200160009054906101000a900473ffffffffffffffffffffffffffffffffffffffff1673ffffffffffffffffffffffffffffffffffffffff161415610d5f5760019150610d70565b80610d6990612802565b9050610cab565b505b80610db2576040517f08c379a0000000000000000000000000000000000000000000000000000000008152600401610da990612024565b60405180910390fd5b60016040518060e00160405290816000820160009054906101000a900460ff161515151581526020016001820154815260200160028201805480602002602001604051908101604052809291908181526020018280548015610e3357602002820191906000526020600020905b815481526020019060010190808311610e1f575b505050505081526020016003820160009054906101000a900473ffffffffffffffffffffffffffffffffffffffff1673ffffffffffffffffffffffffffffffffffffffff1673ffffffffffffffffffffffffffffffffffffffff16815260200160048201805480602002602001604051908101604052809291908181526020018280548015610f1757602002820191906000526020600020905b8160009054906101000a900473ffffffffffffffffffffffffffffffffffffffff1673ffffffffffffffffffffffffffffffffffffffff1681526020019060010190808311610ecd575b50505050508152602001600582018054610f30906127b4565b80601f0160208091040260200160405190810160405280929190818152602001828054610f5c906127b4565b8015610fa95780601f10610f7e57610100808354040283529160200191610fa9565b820191906000526020600020905b815481529060010190602001808311610f8c57829003601f168201915b50505050508152602001600682018054610fc2906127b4565b80601f0160208091040260200160405190810160405280929190818152602001828054610fee906127b4565b801561103b5780601f106110105761010080835404028352916020019161103b565b820191906000526020600020905b81548152906001019060200180831161101e57829003601f168201915b50505050508152505091505090565b6000803373ffffffffffffffffffffffffffffffffffffffff16600160030160009054906101000a900473ffffffffffffffffffffffffffffffffffffffff1673ffffffffffffffffffffffffffffffffffffffff1614156110af5760019050611179565b60005b600160040180549050811015611177573373ffffffffffffffffffffffffffffffffffffffff1660016004018281548110611116577f4e487b7100000000000000000000000000000000000000000000000000000000600052603260045260246000fd5b9060005260206000200160009054906101000a900473ffffffffffffffffffffffffffffffffffffffff1673ffffffffffffffffffffffffffffffffffffffff1614156111665760019150611177565b8061117090612802565b90506110b2565b505b806111b9576040517f08c379a00000000000000000000000000000000000000000000000000000000081526004016111b090612024565b60405180910390fd5b600960003373ffffffffffffffffffffffffffffffffffffffff1673ffffffffffffffffffffffffffffffffffffffff16815260200190815260200160002060009054906101000a900460ff1691505090565b600160030160009054906101000a900473ffffffffffffffffffffffffffffffffffffffff1673ffffffffffffffffffffffffffffffffffffffff163373ffffffffffffffffffffffffffffffffffffffff161461129f576040517f08c379a000000000000000000000000000000000000000000000000000000000815260040161129690611fc4565b60405180910390fd5b6112a960036114dd565b8060018001819055506112bc600261148b565b50565b6000803373ffffffffffffffffffffffffffffffffffffffff16600160030160009054906101000a900473ffffffffffffffffffffffffffffffffffffffff1673ffffffffffffffffffffffffffffffffffffffff16141561132457600190506113ee565b60005b6001600401805490508110156113ec573373ffffffffffffffffffffffffffffffffffffffff166001600401828154811061138b577f4e487b7100000000000000000000000000000000000000000000000000000000600052603260045260246000fd5b9060005260206000200160009054906101000a900473ffffffffffffffffffffffffffffffffffffffff1673ffffffffffffffffffffffffffffffffffffffff1614156113db57600191506113ec565b806113e590612802565b9050611327565b505b8061142e576040517f08c379a000000000000000000000000000000000000000000000000000000000815260040161142590612024565b60405180910390fd5b60008054906101000a900460ff166004811115611474577f4e487b7100000000000000000000000000000000000000000000000000000000600052602160045260246000fd5b91505090565b6000611485306119f8565b15905090565b806000806101000a81548160ff021916908360048111156114d5577f4e487b7100000000000000000000000000000000000000000000000000000000600052602160045260246000fd5b021790555050565b806004811115611516577f4e487b7100000000000000000000000000000000000000000000000000000000600052602160045260246000fd5b60008054906101000a900460ff16600481111561155c577f4e487b7100000000000000000000000000000000000000000000000000000000600052602160045260246000fd5b1461159c576040517f08c379a000000000000000000000000000000000000000000000000000000000815260040161159390612044565b60405180910390fd5b50565b6004808111156115d8577f4e487b7100000000000000000000000000000000000000000000000000000000600052602160045260246000fd5b6000806101000a81548160ff02191690836004811115611621577f4e487b7100000000000000000000000000000000000000000000000000000000600052602160045260246000fd5b0217905550565b60005b60016004018054905081101561184f576000600860009054906101000a900473ffffffffffffffffffffffffffffffffffffffff1673ffffffffffffffffffffffffffffffffffffffff1663a9059cbb600160040184815481106116b8577f4e487b7100000000000000000000000000000000000000000000000000000000600052603260045260246000fd5b9060005260206000200160009054906101000a900473ffffffffffffffffffffffffffffffffffffffff16600a600060016004018781548110611724577f4e487b7100000000000000000000000000000000000000000000000000000000600052603260045260246000fd5b9060005260206000200160009054906101000a900473ffffffffffffffffffffffffffffffffffffffff1673ffffffffffffffffffffffffffffffffffffffff1673ffffffffffffffffffffffffffffffffffffffff168152602001908152602001600020546040518363ffffffff1660e01b81526004016117a7929190611f40565b602060405180830381600087803b1580156117c157600080fd5b505af11580156117d5573d6000803e3d6000fd5b505050506040513d601f19601f820116820180604052508101906117f99190611b31565b90508061183b576040517f08c379a000000000000000000000000000000000000000000000000000000000815260040161183290611fe4565b60405180910390fd5b50808061184790612802565b91505061162b565b507fdf8d8efd852d6ee5e48dcbe2ab0f55b5413c5d2c3839ee3aed11adab642d0c3e3060405161187f9190611efc565b60405180910390a1565b6002600160008054906101000a900460ff1660048111156118d3577f4e487b7100000000000000000000000000000000000000000000000000000000600052602160045260246000fd5b6118dd91906122f9565b111561191e576040517f08c379a000000000000000000000000000000000000000000000000000000000815260040161191590611f84565b60405180910390fd5b600160008054906101000a900460ff166004811115611966577f4e487b7100000000000000000000000000000000000000000000000000000000600052602160045260246000fd5b61197091906122f9565b60048111156119a8577f4e487b7100000000000000000000000000000000000000000000000000000000600052602160045260246000fd5b6000806101000a81548160ff021916908360048111156119f1577f4e487b7100000000000000000000000000000000000000000000000000000000600052602160045260246000fd5b0217905550565b6000808273ffffffffffffffffffffffffffffffffffffffff163b119050919050565b6040518060e001604052806000151581526020016000815260200160608152602001600073ffffffffffffffffffffffffffffffffffffffff1681526020016060815260200160608152602001606081525090565b600081359050611a7f81612dd7565b92915050565b600081359050611a9481612dee565b92915050565b600081519050611aa981612dee565b92915050565b600060e08284031215611ac157600080fd5b81905092915050565b600081359050611ad981612e05565b92915050565b600060208284031215611af157600080fd5b6000611aff84828501611a70565b91505092915050565b600060208284031215611b1a57600080fd5b6000611b2884828501611a85565b91505092915050565b600060208284031215611b4357600080fd5b6000611b5184828501611a9a565b91505092915050565b60008060408385031215611b6d57600080fd5b600083013567ffffffffffffffff811115611b8757600080fd5b611b9385828601611aaf565b9250506020611ba485828601611a70565b9150509250929050565b600060208284031215611bc057600080fd5b6000611bce84828501611aca565b91505092915050565b6000611be38383611c07565b60208301905092915050565b6000611bfb8383611ede565b60208301905092915050565b611c10816123a9565b82525050565b611c1f816123a9565b82525050565b6000611c308261224e565b611c3a81856122b5565b9350611c45836121da565b8060005b83811015611c76578151611c5d8882611bd7565b9750611c688361229b565b925050600181019050611c49565b5085935050505092915050565b6000611c8e8261226f565b611c9881856122c6565b9350611ca383612209565b8060005b83811015611cd4578151611cbb8882611bef565b9750611cc6836122a8565b925050600181019050611ca7565b5085935050505092915050565b611cea816123bb565b82525050565b611cf9816123bb565b82525050565b6000611d0a82612290565b611d1481856122d7565b9350611d24818560208601612696565b611d2d81612a1e565b840191505092915050565b6000611d45600d836122e8565b9150611d5082612a6e565b602082019050919050565b6000611d68601d836122e8565b9150611d7382612a97565b602082019050919050565b6000611d8b6014836122e8565b9150611d9682612ac0565b602082019050919050565b6000611dae6013836122e8565b9150611db982612ae9565b602082019050919050565b6000611dd1602e836122e8565b9150611ddc82612b12565b604082019050919050565b6000611df4601b836122e8565b9150611dff82612b61565b602082019050919050565b6000611e176015836122e8565b9150611e2282612b8a565b602082019050919050565b600060e083016000830151611e456000860182611ce1565b506020830151611e586020860182611ede565b5060408301518482036040860152611e708282611c83565b9150506060830151611e856060860182611c07565b5060808301518482036080860152611e9d8282611c25565b91505060a083015184820360a0860152611eb78282611cff565b91505060c083015184820360c0860152611ed18282611cff565b9150508091505092915050565b611ee7816123e7565b82525050565b611ef6816123e7565b82525050565b6000602082019050611f116000830184611c16565b92915050565b6000604082019050611f2c6000830185611c16565b611f396020830184611c16565b9392505050565b6000604082019050611f556000830185611c16565b611f626020830184611eed565b9392505050565b6000602082019050611f7e6000830184611cf0565b92915050565b60006020820190508181036000830152611f9d81611d38565b9050919050565b60006020820190508181036000830152611fbd81611d5b565b9050919050565b60006020820190508181036000830152611fdd81611d7e565b9050919050565b60006020820190508181036000830152611ffd81611da1565b9050919050565b6000602082019050818103600083015261201d81611dc4565b9050919050565b6000602082019050818103600083015261203d81611de7565b9050919050565b6000602082019050818103600083015261205d81611e0a565b9050919050565b6000602082019050818103600083015261207e8184611e2d565b905092915050565b600060208201905061209b6000830184611eed565b92915050565b600080833560016020038436030381126120ba57600080fd5b80840192508235915067ffffffffffffffff8211156120d857600080fd5b6020830192506020820236038313156120f057600080fd5b509250929050565b6000808335600160200384360303811261211157600080fd5b80840192508235915067ffffffffffffffff82111561212f57600080fd5b60208301925060208202360383131561214757600080fd5b509250929050565b6000808335600160200384360303811261216857600080fd5b80840192508235915067ffffffffffffffff82111561218657600080fd5b60208301925060018202360383131561219e57600080fd5b509250929050565b60008190506001806001038301049050919050565b60008190506001806001038301049050919050565b6000819050919050565b6000819050602082019050919050565b60008190508160005260206000209050919050565b6000819050919050565b6000819050602082019050919050565b60008190508160005260206000209050919050565b60008190508160005260206000209050919050565b600082905092915050565b600081519050919050565b600081549050919050565b600082905092915050565b600081519050919050565b600081549050919050565b600082905092915050565b600081519050919050565b6000602082019050919050565b6000602082019050919050565b600082825260208201905092915050565b600082825260208201905092915050565b600082825260208201905092915050565b600082825260208201905092915050565b6000612304826123e7565b915061230f836123e7565b9250827fffffffffffffffffffffffffffffffffffffffffffffffffffffffffffffffff0382111561234457612343612869565b5b828201905092915050565b600061235a826123e7565b9150612365836123e7565b9250817fffffffffffffffffffffffffffffffffffffffffffffffffffffffffffffffff048311821515161561239e5761239d612869565b5b828202905092915050565b60006123b4826123c7565b9050919050565b60008115159050919050565b600073ffffffffffffffffffffffffffffffffffffffff82169050919050565b6000819050919050565b5b8181101561241057612405600082612a56565b6001810190506123f2565b5050565b5b8181101561243357612428600082612a56565b600181019050612415565b5050565b5b818110156124565761244b600082612a56565b600181019050612438565b5050565b60006124658261247e565b9050919050565b6000612477826123bb565b9050919050565b600061248982612490565b9050919050565b600061249b826123c7565b9050919050565b60006124ad826123e7565b9050919050565b6124be8383612243565b6124c88183612956565b6124d1836121d0565b6124da836121ea565b6000805b8481101561251557836124f081612914565b90506124fd818486612d8d565b602085019450600184019350506001810190506124de565b5050505050505050565b6125298383612264565b61253381836129ba565b61253c836121ff565b61254583612219565b6000805b84811015612580578361255b81612940565b9050612568818486612db2565b60208501945060018401935050600181019050612549565b5050505050505050565b6125948383612285565b67ffffffffffffffff8111156125ad576125ac6128c7565b5b6125b782546127b4565b600080601f8411601f841117156125d4576125d18561222e565b90505b601f831115612607576020601f850104810160208510156125f3578190505b6126056020601f860104830182612414565b505b601f8411600181146126345760008515612622578388013590505b61262c86826127e6565b87555061268c565b601f1985168260005b8281101561266257858a0135825560018201915060208601955060208101905061263d565b8783101561267f57858a013561267b601f8a168261284b565b8355505b6001600289020189555050505b5050505050505050565b60005b838110156126b4578082015181840152602081019050612699565b838111156126c3576000848401525b50505050565b6000810160008301806126db8161292a565b90506126e78184612d29565b5050506001810160208301806126fc81612940565b90506127088184612d6a565b505050600281016040830161271d81856120f8565b612728818386612d19565b5050505060038101606083018061273e81612914565b905061274a8184612ce6565b505050600481016080830161275f81856120a1565b61276a818386612d09565b505050506005810160a08301612780818561214f565b61278b818386612d4c565b505050506006810160c083016127a1818561214f565b6127ac818386612d4c565b505050505050565b600060028204905060018216806127cc57607f821691505b602082108114156127e0576127df612898565b5b50919050565b60006127f2838361284b565b9150826002028217905092915050565b600061280d826123e7565b91507fffffffffffffffffffffffffffffffffffffffffffffffffffffffffffffffff8214156128405761283f612869565b5b600182019050919050565b600061285c60001984600802612a49565b1980831691505092915050565b7f4e487b7100000000000000000000000000000000000000000000000000000000600052601160045260246000fd5b7f4e487b7100000000000000000000000000000000000000000000000000000000600052602260045260246000fd5b7f4e487b7100000000000000000000000000000000000000000000000000000000600052604160045260246000fd5b6000819050919050565b6000819050919050565b6000819050919050565b6000813561292181612dd7565b80915050919050565b6000813561293781612dee565b80915050919050565b6000813561294d81612e05565b80915050919050565b680100000000000000008211156129705761296f6128c7565b5b61297981612259565b828255808310156129b55761298d816121a6565b612996846121a6565b61299f846121ea565b8181018382016129af81836123f1565b50505050505b505050565b680100000000000000008211156129d4576129d36128c7565b5b6129dd8161227a565b82825580831015612a19576129f1816121bb565b6129fa846121bb565b612a0384612219565b818101838201612a138183612437565b50505050505b505050565b6000601f19601f8301169050919050565b60008160001b9050919050565b600082821b905092915050565b600082821c905092915050565b612a5e612e1c565b612a69818484612db2565b505050565b7f496e76616c696420737461676500000000000000000000000000000000000000600082015250565b7f416c6c20706172746965732068617665206e6f7420617070726f766564000000600082015250565b7f4e6f7420696e6974696174696e67207061727479000000000000000000000000600082015250565b7f444149207472616e73666572206661696c656400000000000000000000000000600082015250565b7f496e697469616c697a61626c653a20636f6e747261637420697320616c72656160008201527f647920696e697469616c697a6564000000000000000000000000000000000000602082015250565b7f4e6f74206120706172747920746f2074686520636f6e74726163740000000000600082015250565b7f4e6f7420696e2065787065637465642073746167650000000000000000000000600082015250565b600060ff612bc084612a2f565b9350801983169250808416831791505092915050565b600073ffffffffffffffffffffffffffffffffffffffff612bf684612a2f565b9350801983169250808416831791505092915050565b60007fffffffffffffffffffffffffffffffffffffffffffffffffffffffffffffffff612c3884612a2f565b9350801983169250808416831791505092915050565b600060088302612c7273ffffffffffffffffffffffffffffffffffffffff82612a3c565b612c7c8683612a3c565b95508019841693508086168417925050509392505050565b600060088302612cc47fffffffffffffffffffffffffffffffffffffffffffffffffffffffffffffffff82612a3c565b612cce8683612a3c565b95508019841693508086168417925050509392505050565b612cef8261245a565b612d02612cfb826128f6565b8354612bd6565b8255505050565b612d148383836124b4565b505050565b612d2483838361251f565b505050565b612d328261246c565b612d45612d3e82612900565b8354612bb3565b8255505050565b612d5783838361258a565b505050565b612d6682826126c9565b5050565b612d73826124a2565b612d86612d7f8261290a565b8354612c0c565b8255505050565b612d968361245a565b612daa612da2826128f6565b848454612c4e565b825550505050565b612dbb836124a2565b612dcf612dc78261290a565b848454612c94565b825550505050565b612de0816123a9565b8114612deb57600080fd5b50565b612df7816123bb565b8114612e0257600080fd5b50565b612e0e816123e7565b8114612e1957600080fd5b50565b60009056fea2646970667358221220e7576d6876e444f836854ccc1cc0a359d9681568da8a051bfe9569b58b5b67e264736f6c63430008020033",
  "immutableReferences": {},
  "source": "// SPDX-License-Identifier: MIT\r\npragma solidity ^0.8.2;\r\n\r\nimport \"@openzeppelin/contracts/token/ERC20/IERC20.sol\";\r\nimport \"@openzeppelin/contracts/proxy/utils/Initializable.sol\";\r\nimport \"./interfaces/IContractInit.sol\";\r\nimport \"./ContractStages.sol\";\r\n\r\ncontract ContractController is IContractInit, ContractStages, Initializable {\r\n    CompleteContractData contractData;\r\n    address daiTokenAddress;\r\n    bool isFinalApprovalCompleted;\r\n\r\n    mapping(address => bool) hasPartyApproved;\r\n    mapping(address => uint) fundDistribution;\r\n\r\n    event contractInitialized(address contractAddress);\r\n    event partyApproved(address party, address contractAddress);\r\n    event finalApprovalCompleted(address contractAddress);\r\n    event paymentExecuted(address contractAddress);\r\n    event contractRejectedByParty(address party, address contractAddress);\r\n\r\n    modifier onlyInitiator() {\r\n        require(msg.sender == contractData.initiatingParty, \"Not initiating party\");\r\n        _;\r\n    }\r\n\r\n    modifier onlyParty() {\r\n        bool isParty;\r\n        if (contractData.initiatingParty == msg.sender) {\r\n            isParty = true;\r\n        } else {\r\n            for (uint i = 0; i < contractData.parties.length; ++i) {\r\n                if (contractData.parties[i] == msg.sender) {\r\n                    isParty = true;\r\n                    break;\r\n                }\r\n            }\r\n        }\r\n        require(isParty, \"Not a party to the contract\");\r\n        _;\r\n    }\r\n\r\n    function haveAllPartiesApproved() public view onlyParty returns (bool) {\r\n        bool approved = true ;\r\n        for (uint i=0; i < contractData.parties.length; i++) {\r\n            if (hasPartyApproved[contractData.parties[i]] == false) {\r\n                approved = false;\r\n                break;\r\n            }            \r\n        }\r\n        return approved;\r\n    }\r\n\r\n    function hasCurrentPartyApproved() external view onlyParty returns (bool) {\r\n        return hasPartyApproved[msg.sender];\r\n    }\r\n\r\n    function hasContractExpired() public view returns (bool) {\r\n        return (1000 * block.timestamp) >= contractData.expiryTime;\r\n    }\r\n\r\n    function getContractStage() external view onlyParty returns (uint) {\r\n        return uint(currentStage);\r\n    }\r\n\r\n    function viewContractData() external view onlyParty returns (CompleteContractData memory) {\r\n        return contractData;\r\n    }\r\n\r\n    function makePayment() private {\r\n        for (uint i=0; i < contractData.parties.length; i++) {\r\n            bool success = IERC20(daiTokenAddress).transfer(\r\n                contractData.parties[i],\r\n                fundDistribution[contractData.parties[i]]\r\n            );\r\n            require(success, \"DAI transfer failed\");\r\n        }\r\n        emit paymentExecuted(address(this));\r\n    }\r\n\r\n    function initialize(\r\n        CompleteContractData calldata _contractData,\r\n        address _daiTokenAddress\r\n    )\r\n        external \r\n        initializer\r\n    {\r\n        contractData = _contractData;\r\n        daiTokenAddress = _daiTokenAddress;\r\n        if (_contractData.isPayable) {\r\n            for (uint i=0; i < _contractData.fundDistribution.length; i++) {\r\n                fundDistribution[_contractData.parties[i]] = _contractData.fundDistribution[i];\r\n            }\r\n        }\r\n        emit contractInitialized(address(this));\r\n    }\r\n\r\n    function approveContract() external onlyParty {\r\n        _atStage(ContractManagementStages.PartyApprovalPending);\r\n        hasPartyApproved[msg.sender] = true;\r\n        if (haveAllPartiesApproved()) {\r\n            _nextStage();\r\n        }\r\n        emit partyApproved(msg.sender, address(this));  \r\n    } \r\n\r\n    function rejectContract() external onlyParty {\r\n        _atStage(ContractManagementStages.PartyApprovalPending);\r\n        _goToRejected();\r\n        emit contractRejectedByParty(msg.sender, address(this));\r\n    }\r\n\r\n    function finalApproval() external onlyInitiator {\r\n        _atStage(ContractManagementStages.FinalApprovalPending);\r\n        require(haveAllPartiesApproved() == true, \"All parties have not approved\");\r\n        isFinalApprovalCompleted = true;\r\n        if (contractData.isPayable == true) {\r\n            makePayment();\r\n        }\r\n        _nextStage();\r\n        emit finalApprovalCompleted(address(this));\r\n    } \r\n\r\n    function renewContract(uint extendedTime) external onlyInitiator {\r\n        _atStage(ContractManagementStages.Expired);\r\n        contractData.expiryTime = extendedTime;\r\n        _jumpToStage(ContractManagementStages.Validated);\r\n    }\r\n\r\n    function checkExpired() external {\r\n        if (hasContractExpired()) {\r\n            _jumpToStage(ContractManagementStages.Expired);\r\n        }\r\n    }\r\n}",
  "sourcePath": "E:\\SOE CUSAT\\S6\\Mini-project\\Code\\CMSB\\truffle\\contracts\\ContractController.sol",
  "compiler": {
    "name": "solc",
    "version": "0.8.2+commit.661d1103.Emscripten.clang"
  },
  "schemaVersion": "3.4.5",
  "updatedAt": "2022-04-18T13:32:54.211Z",
  "devdoc": {
    "kind": "dev",
    "methods": {},
    "version": 1
  },
  "userdoc": {
    "kind": "user",
    "methods": {},
    "version": 1
  }
}