{
  "contractName": "ContractFactory",
  "abi": [
    {
      "inputs": [
        {
          "internalType": "address",
          "name": "_daiTokenAddress",
          "type": "address"
        }
      ],
      "stateMutability": "nonpayable",
      "type": "constructor"
    },
    {
      "anonymous": false,
      "inputs": [
        {
          "indexed": false,
          "internalType": "uint256",
          "name": "",
          "type": "uint256"
        }
      ],
      "name": "createdNewDraftContract",
      "type": "event"
    },
    {
      "inputs": [],
      "name": "baseContract",
      "outputs": [
        {
          "internalType": "address",
          "name": "",
          "type": "address"
        }
      ],
      "stateMutability": "view",
      "type": "function",
      "constant": true
    },
    {
      "inputs": [
        {
          "internalType": "uint256",
          "name": "",
          "type": "uint256"
        }
      ],
      "name": "contractsList",
      "outputs": [
        {
          "internalType": "uint256",
          "name": "id",
          "type": "uint256"
        },
        {
          "internalType": "address",
          "name": "contractAddress",
          "type": "address"
        },
        {
          "internalType": "address",
          "name": "initiatingParty",
          "type": "address"
        }
      ],
      "stateMutability": "view",
      "type": "function",
      "constant": true
    },
    {
      "inputs": [],
      "name": "daiTokenAddress",
      "outputs": [
        {
          "internalType": "address",
          "name": "",
          "type": "address"
        }
      ],
      "stateMutability": "view",
      "type": "function",
      "constant": true
    },
    {
      "inputs": [],
      "name": "getContractsCount",
      "outputs": [
        {
          "internalType": "uint256",
          "name": "",
          "type": "uint256"
        }
      ],
      "stateMutability": "view",
      "type": "function",
      "constant": true
    },
    {
      "inputs": [],
      "name": "getMyContracts",
      "outputs": [
        {
          "internalType": "address[]",
          "name": "",
          "type": "address[]"
        }
      ],
      "stateMutability": "view",
      "type": "function",
      "constant": true
    },
    {
      "inputs": [
        {
          "components": [
            {
              "internalType": "bool",
              "name": "isPayable",
              "type": "bool"
            },
            {
              "internalType": "uint256",
              "name": "expiryTime",
              "type": "uint256"
            },
            {
              "internalType": "uint256[]",
              "name": "fundDistribution",
              "type": "uint256[]"
            },
            {
              "internalType": "address",
              "name": "initiatingParty",
              "type": "address"
            },
            {
              "internalType": "address[]",
              "name": "parties",
              "type": "address[]"
            },
            {
              "internalType": "string",
              "name": "contractName",
              "type": "string"
            },
            {
              "internalType": "string",
              "name": "document",
              "type": "string"
            }
          ],
          "internalType": "struct IContractInit.CompleteContractData",
          "name": "_contractData",
          "type": "tuple"
        }
      ],
      "name": "initiateContract",
      "outputs": [],
      "stateMutability": "nonpayable",
      "type": "function"
    }
  ],
  "bytecode": "0x60a06040523480156200001157600080fd5b506040516200461a3803806200461a833981810160405281019062000037919062000105565b806000806101000a81548173ffffffffffffffffffffffffffffffffffffffff021916908373ffffffffffffffffffffffffffffffffffffffff1602179055506040516200008590620000e0565b604051809103906000f080158015620000a2573d6000803e3d6000fd5b5073ffffffffffffffffffffffffffffffffffffffff1660808173ffffffffffffffffffffffffffffffffffffffff1660601b81525050506200017f565b612e18806200180283390190565b600081519050620000ff8162000165565b92915050565b6000602082840312156200011857600080fd5b60006200012884828501620000ee565b91505092915050565b60006200013e8262000145565b9050919050565b600073ffffffffffffffffffffffffffffffffffffffff82169050919050565b620001708162000131565b81146200017c57600080fd5b50565b60805160601c61165d620001a5600039600081816101580152610540015261165d6000f3fe608060405234801561001057600080fd5b50600436106100625760003560e01c80632eaee35e146100675780634a43fc7d146100855780635b32619c146100a15780639683584f146100bf578063c81bde15146100dd578063f8079052146100fb575b600080fd5b61006f61012d565b60405161007c9190611064565b60405180910390f35b61009f600480360381019061009a9190610d20565b610151565b005b6100a961053e565b6040516100b69190611064565b60405180910390f35b6100c7610562565b6040516100d49190611148565b60405180910390f35b6100e561056f565b6040516100f291906110b6565b60405180910390f35b61011560048036038101906101109190610d61565b6107e4565b60405161012493929190611163565b60405180910390f35b60008054906101000a900473ffffffffffffffffffffffffffffffffffffffff1681565b600061017c7f000000000000000000000000000000000000000000000000000000000000000061085e565b90506001604051806080016040528060018054905081526020018373ffffffffffffffffffffffffffffffffffffffff1681526020013373ffffffffffffffffffffffffffffffffffffffff1681526020018480608001906101de919061119a565b80806020026020016040519081016040528093929190818152602001838360200280828437600081840152601f19601f8201169050808301925050505050505081525090806001815401808255809150506001900390600052602060002090600402016000909190919091506000820151816000015560208201518160010160006101000a81548173ffffffffffffffffffffffffffffffffffffffff021916908373ffffffffffffffffffffffffffffffffffffffff16021790555060408201518160020160006101000a81548173ffffffffffffffffffffffffffffffffffffffff021916908373ffffffffffffffffffffffffffffffffffffffff16021790555060608201518160030190805190602001906102fe929190610bb8565b5050508073ffffffffffffffffffffffffffffffffffffffff166319ffb9608360008054906101000a900473ffffffffffffffffffffffffffffffffffffffff166040518363ffffffff1660e01b815260040161035c929190611118565b600060405180830381600087803b15801561037657600080fd5b505af115801561038a573d6000803e3d6000fd5b505050508160000160208101906103a19190610cce565b156104f35760008060009054906101000a900473ffffffffffffffffffffffffffffffffffffffff1673ffffffffffffffffffffffffffffffffffffffff166323b872dd338461043f8780604001906103fa91906111f1565b80806020026020016040519081016040528093929190818152602001838360200280828437600081840152601f19601f82011690508083019250505050505050610933565b6040518463ffffffff1660e01b815260040161045d9392919061107f565b602060405180830381600087803b15801561047757600080fd5b505af115801561048b573d6000803e3d6000fd5b505050506040513d601f19601f820116820180604052508101906104af9190610cf7565b9050806104f1576040517f08c379a00000000000000000000000000000000000000000000000000000000081526004016104e8906110d8565b60405180910390fd5b505b7f4c9f2cb57a212dfc6f0c1077b5a129c78ad19ce9f28d69de66cede182e9f03aa60018080549050610525919061147c565b6040516105329190611148565b60405180910390a15050565b7f000000000000000000000000000000000000000000000000000000000000000081565b6000600180549050905090565b60606000805b6001805490508110156105fc576105d733600183815481106105c0577f4e487b7100000000000000000000000000000000000000000000000000000000600052603260045260246000fd5b9060005260206000209060040201600001546109ab565b156105eb5781806105e790611507565b9250505b806105f590611507565b9050610575565b506000808267ffffffffffffffff811115610640577f4e487b7100000000000000000000000000000000000000000000000000000000600052604160045260246000fd5b60405190808252806020026020018201604052801561066e5781602001602082028036833780820191505090505b50905060005b6001805490508110156107da576106d633600183815481106106bf577f4e487b7100000000000000000000000000000000000000000000000000000000600052603260045260246000fd5b9060005260206000209060040201600001546109ab565b156107c95760018181548110610715577f4e487b7100000000000000000000000000000000000000000000000000000000600052603260045260246000fd5b906000526020600020906004020160010160009054906101000a900473ffffffffffffffffffffffffffffffffffffffff16828481518110610780577f4e487b7100000000000000000000000000000000000000000000000000000000600052603260045260246000fd5b602002602001019073ffffffffffffffffffffffffffffffffffffffff16908173ffffffffffffffffffffffffffffffffffffffff168152505082806107c590611507565b9350505b806107d390611507565b9050610674565b5080935050505090565b600181815481106107f457600080fd5b90600052602060002090600402016000915090508060000154908060010160009054906101000a900473ffffffffffffffffffffffffffffffffffffffff16908060020160009054906101000a900473ffffffffffffffffffffffffffffffffffffffff16905083565b60006040517f3d602d80600a3d3981f3363d3d373d3d3d363d7300000000000000000000000081528260601b60148201527f5af43d82803e903d91602b57fd5bf3000000000000000000000000000000000060288201526037816000f0915050600073ffffffffffffffffffffffffffffffffffffffff168173ffffffffffffffffffffffffffffffffffffffff16141561092e576040517f08c379a0000000000000000000000000000000000000000000000000000000008152600401610925906110f8565b60405180910390fd5b919050565b60008060005b83518110156109a15783818151811061097b577f4e487b7100000000000000000000000000000000000000000000000000000000600052603260045260246000fd5b60200260200101518261098e9190611426565b91508061099a90611507565b9050610939565b5080915050919050565b6000808373ffffffffffffffffffffffffffffffffffffffff16600184815481106109ff577f4e487b7100000000000000000000000000000000000000000000000000000000600052603260045260246000fd5b906000526020600020906004020160020160009054906101000a900473ffffffffffffffffffffffffffffffffffffffff1673ffffffffffffffffffffffffffffffffffffffff161415610a565760019050610bae565b60005b60018481548110610a93577f4e487b7100000000000000000000000000000000000000000000000000000000600052603260045260246000fd5b906000526020600020906004020160030180549050811015610bac578473ffffffffffffffffffffffffffffffffffffffff1660018581548110610b00577f4e487b7100000000000000000000000000000000000000000000000000000000600052603260045260246000fd5b90600052602060002090600402016003018281548110610b49577f4e487b7100000000000000000000000000000000000000000000000000000000600052603260045260246000fd5b9060005260206000200160009054906101000a900473ffffffffffffffffffffffffffffffffffffffff1673ffffffffffffffffffffffffffffffffffffffff161415610b995760019150610bac565b8080610ba490611507565b915050610a59565b505b8091505092915050565b828054828255906000526020600020908101928215610c31579160200282015b82811115610c305782518260006101000a81548173ffffffffffffffffffffffffffffffffffffffff021916908373ffffffffffffffffffffffffffffffffffffffff16021790555091602001919060010190610bd8565b5b509050610c3e9190610c42565b5090565b5b80821115610c5b576000816000905550600101610c43565b5090565b600081359050610c6e816115e2565b92915050565b600081359050610c83816115f9565b92915050565b600081519050610c98816115f9565b92915050565b600060e08284031215610cb057600080fd5b81905092915050565b600081359050610cc881611610565b92915050565b600060208284031215610ce057600080fd5b6000610cee84828501610c74565b91505092915050565b600060208284031215610d0957600080fd5b6000610d1784828501610c89565b91505092915050565b600060208284031215610d3257600080fd5b600082013567ffffffffffffffff811115610d4c57600080fd5b610d5884828501610c9e565b91505092915050565b600060208284031215610d7357600080fd5b6000610d8184828501610cb9565b91505092915050565b6000610d968383610da2565b60208301905092915050565b610dab816114b0565b82525050565b610dba816114b0565b82525050565b6000610dcc8385611287565b9350610dd782611248565b8060005b85811015610e1057610ded82846112dc565b610df78882610d8a565b9750610e028361126d565b925050600181019050610ddb565b5085925050509392505050565b6000610e2882611262565b610e328185611298565b9350610e3d83611252565b8060005b83811015610e6e578151610e558882610d8a565b9750610e608361127a565b925050600181019050610e41565b5085935050505092915050565b6000610e8783856112a9565b93507f07ffffffffffffffffffffffffffffffffffffffffffffffffffffffffffffff831115610eb657600080fd5b602083029250610ec78385846114f8565b82840190509392505050565b610edc816114c2565b82525050565b6000610eee83856112ba565b9350610efb8385846114f8565b610f048361157f565b840190509392505050565b6000610f1c6013836112cb565b9150610f2782611590565b602082019050919050565b6000610f3f6016836112cb565b9150610f4a826115b9565b602082019050919050565b600060e08301610f6860008401846113a1565b610f756000860182610ed3565b50610f83602084018461140f565b610f906020860182611046565b50610f9e604084018461134a565b8583036040870152610fb1838284610e7b565b92505050610fc260608401846112dc565b610fcf6060860182610da2565b50610fdd60808401846112f3565b8583036080870152610ff0838284610dc0565b9250505061100160a08401846113b8565b85830360a0870152611014838284610ee2565b9250505061102560c08401846113b8565b85830360c0870152611038838284610ee2565b925050508091505092915050565b61104f816114ee565b82525050565b61105e816114ee565b82525050565b60006020820190506110796000830184610db1565b92915050565b60006060820190506110946000830186610db1565b6110a16020830185610db1565b6110ae6040830184611055565b949350505050565b600060208201905081810360008301526110d08184610e1d565b905092915050565b600060208201905081810360008301526110f181610f0f565b9050919050565b6000602082019050818103600083015261111181610f32565b9050919050565b600060408201905081810360008301526111328185610f55565b90506111416020830184610db1565b9392505050565b600060208201905061115d6000830184611055565b92915050565b60006060820190506111786000830186611055565b6111856020830185610db1565b6111926040830184610db1565b949350505050565b600080833560016020038436030381126111b357600080fd5b80840192508235915067ffffffffffffffff8211156111d157600080fd5b6020830192506020820236038313156111e957600080fd5b509250929050565b6000808335600160200384360303811261120a57600080fd5b80840192508235915067ffffffffffffffff82111561122857600080fd5b60208301925060208202360383131561124057600080fd5b509250929050565b6000819050919050565b6000819050602082019050919050565b600081519050919050565b6000602082019050919050565b6000602082019050919050565b600082825260208201905092915050565b600082825260208201905092915050565b600082825260208201905092915050565b600082825260208201905092915050565b600082825260208201905092915050565b60006112eb6020840184610c5f565b905092915050565b6000808335600160200384360303811261130c57600080fd5b83810192508235915060208301925067ffffffffffffffff82111561133057600080fd5b60208202360384131561134257600080fd5b509250929050565b6000808335600160200384360303811261136357600080fd5b83810192508235915060208301925067ffffffffffffffff82111561138757600080fd5b60208202360384131561139957600080fd5b509250929050565b60006113b06020840184610c74565b905092915050565b600080833560016020038436030381126113d157600080fd5b83810192508235915060208301925067ffffffffffffffff8211156113f557600080fd5b60018202360384131561140757600080fd5b509250929050565b600061141e6020840184610cb9565b905092915050565b6000611431826114ee565b915061143c836114ee565b9250827fffffffffffffffffffffffffffffffffffffffffffffffffffffffffffffffff0382111561147157611470611550565b5b828201905092915050565b6000611487826114ee565b9150611492836114ee565b9250828210156114a5576114a4611550565b5b828203905092915050565b60006114bb826114ce565b9050919050565b60008115159050919050565b600073ffffffffffffffffffffffffffffffffffffffff82169050919050565b6000819050919050565b82818337600083830152505050565b6000611512826114ee565b91507fffffffffffffffffffffffffffffffffffffffffffffffffffffffffffffffff82141561154557611544611550565b5b600182019050919050565b7f4e487b7100000000000000000000000000000000000000000000000000000000600052601160045260246000fd5b6000601f19601f8301169050919050565b7f444149207472616e73666572206661696c656400000000000000000000000000600082015250565b7f455243313136373a20637265617465206661696c656400000000000000000000600082015250565b6115eb816114b0565b81146115f657600080fd5b50565b611602816114c2565b811461160d57600080fd5b50565b611619816114ee565b811461162457600080fd5b5056fea26469706673582212202964659d9bcaaa2dcacd328f991351c0f16a0e5d48f257657dea1c64fe54123364736f6c63430008020033608060405260008060006101000a81548160ff0219169083600481111561004f577f4e487b7100000000000000000000000000000000000000000000000000000000600052602160045260246000fd5b021790555034801561006057600080fd5b50612da8806100706000396000f3fe608060405234801561001057600080fd5b506004361061009e5760003560e01c806369d2ce621161006657806369d2ce62146100e75780638f96e85014610105578063c1bd655414610123578063d5252dcf14610141578063f10746f41461015d5761009e565b806319ffb960146100a357806325ace2a7146100bf57806331c84ea6146100c957806334516203146100d357806343d00d04146100dd575b600080fd5b6100bd60048036038101906100b89190611b05565b61017b565b005b6100c7610423565b005b6100d161043b565b005b6100db6105f7565b005b6100e5610766565b005b6100ef610972565b6040516100fc9190611f14565b60405180910390f35b61010d610bdf565b60405161011a919061200f565b60405180910390f35b61012b610fed565b6040516101389190611f14565b60405180910390f35b61015b60048036038101906101569190611b59565b6111af565b005b61016561126a565b6040516101729190612031565b60405180910390f35b600060029054906101000a900460ff166101a557600060019054906101000a900460ff16156101ae565b6101ad611425565b5b6101ed576040517f08c379a00000000000000000000000000000000000000000000000000000000081526004016101e490611faf565b60405180910390fd5b60008060029054906101000a900460ff16159050801561023e576001600060026101000a81548160ff0219169083151502179055506001600060016101000a81548160ff0219169083151502179055505b826001818161024d9190612cad565b90505081600860006101000a81548173ffffffffffffffffffffffffffffffffffffffff021916908373ffffffffffffffffffffffffffffffffffffffff1602179055508260000160208101906102a49190611ab3565b156103c65760005b8380604001906102bc91906120a3565b90508110156103c4578380604001906102d591906120a3565b8281811061030c577f4e487b7100000000000000000000000000000000000000000000000000000000600052603260045260246000fd5b90506020020135600a6000868060800190610327919061204c565b8581811061035e577f4e487b7100000000000000000000000000000000000000000000000000000000600052603260045260246000fd5b90506020020160208101906103739190611a8a565b73ffffffffffffffffffffffffffffffffffffffff1673ffffffffffffffffffffffffffffffffffffffff1681526020019081526020016000208190555080806103bc90612753565b9150506102ac565b505b7f3862dd748e1ca79fcd6f7cfb2a40db495da62a25761b04bdddbb073b0e548cd6306040516103f59190611ea7565b60405180910390a1801561041e5760008060026101000a81548160ff0219169083151502179055505b505050565b60018001544210610439576104386003611436565b5b565b60003373ffffffffffffffffffffffffffffffffffffffff16600160030160009054906101000a900473ffffffffffffffffffffffffffffffffffffffff1673ffffffffffffffffffffffffffffffffffffffff16141561049f5760019050610569565b60005b600160040180549050811015610567573373ffffffffffffffffffffffffffffffffffffffff1660016004018281548110610506577f4e487b7100000000000000000000000000000000000000000000000000000000600052603260045260246000fd5b9060005260206000200160009054906101000a900473ffffffffffffffffffffffffffffffffffffffff1673ffffffffffffffffffffffffffffffffffffffff1614156105565760019150610567565b8061056090612753565b90506104a2565b505b806105a9576040517f08c379a00000000000000000000000000000000000000000000000000000000081526004016105a090611fcf565b60405180910390fd5b6105b36000611488565b6105bb61154a565b7fbae8547f50c16c22426d683b8d9d608d52e192e6acbf7bc7b8f6889fcd1fbb6d33306040516105ec929190611ec2565b60405180910390a150565b600160030160009054906101000a900473ffffffffffffffffffffffffffffffffffffffff1673ffffffffffffffffffffffffffffffffffffffff163373ffffffffffffffffffffffffffffffffffffffff161461068a576040517f08c379a000000000000000000000000000000000000000000000000000000000815260040161068190611f6f565b60405180910390fd5b6106946001611488565b600115156106a0610972565b1515146106e2576040517f08c379a00000000000000000000000000000000000000000000000000000000081526004016106d990611f4f565b60405180910390fd5b6001600860146101000a81548160ff02191690831515021790555060011515600160000160009054906101000a900460ff1615151415610725576107246115d3565b5b61072d611834565b7f652558422eb93dbb1c6760141371fc8419f87938d1fa47dec3e6614ce07f72a53060405161075c9190611ea7565b60405180910390a1565b60003373ffffffffffffffffffffffffffffffffffffffff16600160030160009054906101000a900473ffffffffffffffffffffffffffffffffffffffff1673ffffffffffffffffffffffffffffffffffffffff1614156107ca5760019050610894565b60005b600160040180549050811015610892573373ffffffffffffffffffffffffffffffffffffffff1660016004018281548110610831577f4e487b7100000000000000000000000000000000000000000000000000000000600052603260045260246000fd5b9060005260206000200160009054906101000a900473ffffffffffffffffffffffffffffffffffffffff1673ffffffffffffffffffffffffffffffffffffffff1614156108815760019150610892565b8061088b90612753565b90506107cd565b505b806108d4576040517f08c379a00000000000000000000000000000000000000000000000000000000081526004016108cb90611fcf565b60405180910390fd5b6108de6000611488565b6001600960003373ffffffffffffffffffffffffffffffffffffffff1673ffffffffffffffffffffffffffffffffffffffff16815260200190815260200160002060006101000a81548160ff0219169083151502179055507f13a17564c18f94d8dc8dad308b368ddecc4b5869143a7e491b1eb6748ea7e67f3330604051610967929190611ec2565b60405180910390a150565b6000803373ffffffffffffffffffffffffffffffffffffffff16600160030160009054906101000a900473ffffffffffffffffffffffffffffffffffffffff1673ffffffffffffffffffffffffffffffffffffffff1614156109d75760019050610aa1565b60005b600160040180549050811015610a9f573373ffffffffffffffffffffffffffffffffffffffff1660016004018281548110610a3e577f4e487b7100000000000000000000000000000000000000000000000000000000600052603260045260246000fd5b9060005260206000200160009054906101000a900473ffffffffffffffffffffffffffffffffffffffff1673ffffffffffffffffffffffffffffffffffffffff161415610a8e5760019150610a9f565b80610a9890612753565b90506109da565b505b80610ae1576040517f08c379a0000000000000000000000000000000000000000000000000000000008152600401610ad890611fcf565b60405180910390fd5b60006001905060005b600160040180549050811015610bd657600015156009600060016004018481548110610b3f577f4e487b7100000000000000000000000000000000000000000000000000000000600052603260045260246000fd5b9060005260206000200160009054906101000a900473ffffffffffffffffffffffffffffffffffffffff1673ffffffffffffffffffffffffffffffffffffffff1673ffffffffffffffffffffffffffffffffffffffff16815260200190815260200160002060009054906101000a900460ff1615151415610bc35760009150610bd6565b8080610bce90612753565b915050610aea565b50809250505090565b610be76119c6565b60003373ffffffffffffffffffffffffffffffffffffffff16600160030160009054906101000a900473ffffffffffffffffffffffffffffffffffffffff1673ffffffffffffffffffffffffffffffffffffffff161415610c4b5760019050610d15565b60005b600160040180549050811015610d13573373ffffffffffffffffffffffffffffffffffffffff1660016004018281548110610cb2577f4e487b7100000000000000000000000000000000000000000000000000000000600052603260045260246000fd5b9060005260206000200160009054906101000a900473ffffffffffffffffffffffffffffffffffffffff1673ffffffffffffffffffffffffffffffffffffffff161415610d025760019150610d13565b80610d0c90612753565b9050610c4e565b505b80610d55576040517f08c379a0000000000000000000000000000000000000000000000000000000008152600401610d4c90611fcf565b60405180910390fd5b60016040518060e00160405290816000820160009054906101000a900460ff161515151581526020016001820154815260200160028201805480602002602001604051908101604052809291908181526020018280548015610dd657602002820191906000526020600020905b815481526020019060010190808311610dc2575b505050505081526020016003820160009054906101000a900473ffffffffffffffffffffffffffffffffffffffff1673ffffffffffffffffffffffffffffffffffffffff1673ffffffffffffffffffffffffffffffffffffffff16815260200160048201805480602002602001604051908101604052809291908181526020018280548015610eba57602002820191906000526020600020905b8160009054906101000a900473ffffffffffffffffffffffffffffffffffffffff1673ffffffffffffffffffffffffffffffffffffffff1681526020019060010190808311610e70575b50505050508152602001600582018054610ed390612705565b80601f0160208091040260200160405190810160405280929190818152602001828054610eff90612705565b8015610f4c5780601f10610f2157610100808354040283529160200191610f4c565b820191906000526020600020905b815481529060010190602001808311610f2f57829003601f168201915b50505050508152602001600682018054610f6590612705565b80601f0160208091040260200160405190810160405280929190818152602001828054610f9190612705565b8015610fde5780601f10610fb357610100808354040283529160200191610fde565b820191906000526020600020905b815481529060010190602001808311610fc157829003601f168201915b50505050508152505091505090565b6000803373ffffffffffffffffffffffffffffffffffffffff16600160030160009054906101000a900473ffffffffffffffffffffffffffffffffffffffff1673ffffffffffffffffffffffffffffffffffffffff161415611052576001905061111c565b60005b60016004018054905081101561111a573373ffffffffffffffffffffffffffffffffffffffff16600160040182815481106110b9577f4e487b7100000000000000000000000000000000000000000000000000000000600052603260045260246000fd5b9060005260206000200160009054906101000a900473ffffffffffffffffffffffffffffffffffffffff1673ffffffffffffffffffffffffffffffffffffffff161415611109576001915061111a565b8061111390612753565b9050611055565b505b8061115c576040517f08c379a000000000000000000000000000000000000000000000000000000000815260040161115390611fcf565b60405180910390fd5b600960003373ffffffffffffffffffffffffffffffffffffffff1673ffffffffffffffffffffffffffffffffffffffff16815260200190815260200160002060009054906101000a900460ff1691505090565b600160030160009054906101000a900473ffffffffffffffffffffffffffffffffffffffff1673ffffffffffffffffffffffffffffffffffffffff163373ffffffffffffffffffffffffffffffffffffffff1614611242576040517f08c379a000000000000000000000000000000000000000000000000000000000815260040161123990611f6f565b60405180910390fd5b61124c6003611488565b8060018001600082825461126091906122a4565b9250508190555050565b6000803373ffffffffffffffffffffffffffffffffffffffff16600160030160009054906101000a900473ffffffffffffffffffffffffffffffffffffffff1673ffffffffffffffffffffffffffffffffffffffff1614156112cf5760019050611399565b60005b600160040180549050811015611397573373ffffffffffffffffffffffffffffffffffffffff1660016004018281548110611336577f4e487b7100000000000000000000000000000000000000000000000000000000600052603260045260246000fd5b9060005260206000200160009054906101000a900473ffffffffffffffffffffffffffffffffffffffff1673ffffffffffffffffffffffffffffffffffffffff1614156113865760019150611397565b8061139090612753565b90506112d2565b505b806113d9576040517f08c379a00000000000000000000000000000000000000000000000000000000081526004016113d090611fcf565b60405180910390fd5b60008054906101000a900460ff16600481111561141f577f4e487b7100000000000000000000000000000000000000000000000000000000600052602160045260246000fd5b91505090565b6000611430306119a3565b15905090565b806000806101000a81548160ff02191690836004811115611480577f4e487b7100000000000000000000000000000000000000000000000000000000600052602160045260246000fd5b021790555050565b8060048111156114c1577f4e487b7100000000000000000000000000000000000000000000000000000000600052602160045260246000fd5b60008054906101000a900460ff166004811115611507577f4e487b7100000000000000000000000000000000000000000000000000000000600052602160045260246000fd5b14611547576040517f08c379a000000000000000000000000000000000000000000000000000000000815260040161153e90611fef565b60405180910390fd5b50565b600480811115611583577f4e487b7100000000000000000000000000000000000000000000000000000000600052602160045260246000fd5b6000806101000a81548160ff021916908360048111156115cc577f4e487b7100000000000000000000000000000000000000000000000000000000600052602160045260246000fd5b0217905550565b60005b6001600401805490508110156117fa576000600860009054906101000a900473ffffffffffffffffffffffffffffffffffffffff1673ffffffffffffffffffffffffffffffffffffffff1663a9059cbb60016004018481548110611663577f4e487b7100000000000000000000000000000000000000000000000000000000600052603260045260246000fd5b9060005260206000200160009054906101000a900473ffffffffffffffffffffffffffffffffffffffff16600a6000600160040187815481106116cf577f4e487b7100000000000000000000000000000000000000000000000000000000600052603260045260246000fd5b9060005260206000200160009054906101000a900473ffffffffffffffffffffffffffffffffffffffff1673ffffffffffffffffffffffffffffffffffffffff1673ffffffffffffffffffffffffffffffffffffffff168152602001908152602001600020546040518363ffffffff1660e01b8152600401611752929190611eeb565b602060405180830381600087803b15801561176c57600080fd5b505af1158015611780573d6000803e3d6000fd5b505050506040513d601f19601f820116820180604052508101906117a49190611adc565b9050806117e6576040517f08c379a00000000000000000000000000000000000000000000000000000000081526004016117dd90611f8f565b60405180910390fd5b5080806117f290612753565b9150506115d6565b507fdf8d8efd852d6ee5e48dcbe2ab0f55b5413c5d2c3839ee3aed11adab642d0c3e3060405161182a9190611ea7565b60405180910390a1565b6002600160008054906101000a900460ff16600481111561187e577f4e487b7100000000000000000000000000000000000000000000000000000000600052602160045260246000fd5b61188891906122a4565b11156118c9576040517f08c379a00000000000000000000000000000000000000000000000000000000081526004016118c090611f2f565b60405180910390fd5b600160008054906101000a900460ff166004811115611911577f4e487b7100000000000000000000000000000000000000000000000000000000600052602160045260246000fd5b61191b91906122a4565b6004811115611953577f4e487b7100000000000000000000000000000000000000000000000000000000600052602160045260246000fd5b6000806101000a81548160ff0219169083600481111561199c577f4e487b7100000000000000000000000000000000000000000000000000000000600052602160045260246000fd5b0217905550565b6000808273ffffffffffffffffffffffffffffffffffffffff163b119050919050565b6040518060e001604052806000151581526020016000815260200160608152602001600073ffffffffffffffffffffffffffffffffffffffff1681526020016060815260200160608152602001606081525090565b600081359050611a2a81612d28565b92915050565b600081359050611a3f81612d3f565b92915050565b600081519050611a5481612d3f565b92915050565b600060e08284031215611a6c57600080fd5b81905092915050565b600081359050611a8481612d56565b92915050565b600060208284031215611a9c57600080fd5b6000611aaa84828501611a1b565b91505092915050565b600060208284031215611ac557600080fd5b6000611ad384828501611a30565b91505092915050565b600060208284031215611aee57600080fd5b6000611afc84828501611a45565b91505092915050565b60008060408385031215611b1857600080fd5b600083013567ffffffffffffffff811115611b3257600080fd5b611b3e85828601611a5a565b9250506020611b4f85828601611a1b565b9150509250929050565b600060208284031215611b6b57600080fd5b6000611b7984828501611a75565b91505092915050565b6000611b8e8383611bb2565b60208301905092915050565b6000611ba68383611e89565b60208301905092915050565b611bbb816122fa565b82525050565b611bca816122fa565b82525050565b6000611bdb826121f9565b611be58185612260565b9350611bf083612185565b8060005b83811015611c21578151611c088882611b82565b9750611c1383612246565b925050600181019050611bf4565b5085935050505092915050565b6000611c398261221a565b611c438185612271565b9350611c4e836121b4565b8060005b83811015611c7f578151611c668882611b9a565b9750611c7183612253565b925050600181019050611c52565b5085935050505092915050565b611c958161230c565b82525050565b611ca48161230c565b82525050565b6000611cb58261223b565b611cbf8185612282565b9350611ccf8185602086016125e7565b611cd88161296f565b840191505092915050565b6000611cf0600d83612293565b9150611cfb826129bf565b602082019050919050565b6000611d13601d83612293565b9150611d1e826129e8565b602082019050919050565b6000611d36601483612293565b9150611d4182612a11565b602082019050919050565b6000611d59601383612293565b9150611d6482612a3a565b602082019050919050565b6000611d7c602e83612293565b9150611d8782612a63565b604082019050919050565b6000611d9f601b83612293565b9150611daa82612ab2565b602082019050919050565b6000611dc2601583612293565b9150611dcd82612adb565b602082019050919050565b600060e083016000830151611df06000860182611c8c565b506020830151611e036020860182611e89565b5060408301518482036040860152611e1b8282611c2e565b9150506060830151611e306060860182611bb2565b5060808301518482036080860152611e488282611bd0565b91505060a083015184820360a0860152611e628282611caa565b91505060c083015184820360c0860152611e7c8282611caa565b9150508091505092915050565b611e9281612338565b82525050565b611ea181612338565b82525050565b6000602082019050611ebc6000830184611bc1565b92915050565b6000604082019050611ed76000830185611bc1565b611ee46020830184611bc1565b9392505050565b6000604082019050611f006000830185611bc1565b611f0d6020830184611e98565b9392505050565b6000602082019050611f296000830184611c9b565b92915050565b60006020820190508181036000830152611f4881611ce3565b9050919050565b60006020820190508181036000830152611f6881611d06565b9050919050565b60006020820190508181036000830152611f8881611d29565b9050919050565b60006020820190508181036000830152611fa881611d4c565b9050919050565b60006020820190508181036000830152611fc881611d6f565b9050919050565b60006020820190508181036000830152611fe881611d92565b9050919050565b6000602082019050818103600083015261200881611db5565b9050919050565b600060208201905081810360008301526120298184611dd8565b905092915050565b60006020820190506120466000830184611e98565b92915050565b6000808335600160200384360303811261206557600080fd5b80840192508235915067ffffffffffffffff82111561208357600080fd5b60208301925060208202360383131561209b57600080fd5b509250929050565b600080833560016020038436030381126120bc57600080fd5b80840192508235915067ffffffffffffffff8211156120da57600080fd5b6020830192506020820236038313156120f257600080fd5b509250929050565b6000808335600160200384360303811261211357600080fd5b80840192508235915067ffffffffffffffff82111561213157600080fd5b60208301925060018202360383131561214957600080fd5b509250929050565b60008190506001806001038301049050919050565b60008190506001806001038301049050919050565b6000819050919050565b6000819050602082019050919050565b60008190508160005260206000209050919050565b6000819050919050565b6000819050602082019050919050565b60008190508160005260206000209050919050565b60008190508160005260206000209050919050565b600082905092915050565b600081519050919050565b600081549050919050565b600082905092915050565b600081519050919050565b600081549050919050565b600082905092915050565b600081519050919050565b6000602082019050919050565b6000602082019050919050565b600082825260208201905092915050565b600082825260208201905092915050565b600082825260208201905092915050565b600082825260208201905092915050565b60006122af82612338565b91506122ba83612338565b9250827fffffffffffffffffffffffffffffffffffffffffffffffffffffffffffffffff038211156122ef576122ee6127ba565b5b828201905092915050565b600061230582612318565b9050919050565b60008115159050919050565b600073ffffffffffffffffffffffffffffffffffffffff82169050919050565b6000819050919050565b5b81811015612361576123566000826129a7565b600181019050612343565b5050565b5b81811015612384576123796000826129a7565b600181019050612366565b5050565b5b818110156123a75761239c6000826129a7565b600181019050612389565b5050565b60006123b6826123cf565b9050919050565b60006123c88261230c565b9050919050565b60006123da826123e1565b9050919050565b60006123ec82612318565b9050919050565b60006123fe82612338565b9050919050565b61240f83836121ee565b61241981836128a7565b6124228361217b565b61242b83612195565b6000805b84811015612466578361244181612865565b905061244e818486612cde565b6020850194506001840193505060018101905061242f565b5050505050505050565b61247a838361220f565b612484818361290b565b61248d836121aa565b612496836121c4565b6000805b848110156124d157836124ac81612891565b90506124b9818486612d03565b6020850194506001840193505060018101905061249a565b5050505050505050565b6124e58383612230565b67ffffffffffffffff8111156124fe576124fd612818565b5b6125088254612705565b600080601f8411601f8411171561252557612522856121d9565b90505b601f831115612558576020601f85010481016020851015612544578190505b6125566020601f860104830182612365565b505b601f8411600181146125855760008515612573578388013590505b61257d8682612737565b8755506125dd565b601f1985168260005b828110156125b357858a0135825560018201915060208601955060208101905061258e565b878310156125d057858a01356125cc601f8a168261279c565b8355505b6001600289020189555050505b5050505050505050565b60005b838110156126055780820151818401526020810190506125ea565b83811115612614576000848401525b50505050565b60008101600083018061262c8161287b565b90506126388184612c7a565b50505060018101602083018061264d81612891565b90506126598184612cbb565b505050600281016040830161266e81856120a3565b612679818386612c6a565b5050505060038101606083018061268f81612865565b905061269b8184612c37565b50505060048101608083016126b0818561204c565b6126bb818386612c5a565b505050506005810160a083016126d181856120fa565b6126dc818386612c9d565b505050506006810160c083016126f281856120fa565b6126fd818386612c9d565b505050505050565b6000600282049050600182168061271d57607f821691505b60208210811415612731576127306127e9565b5b50919050565b6000612743838361279c565b9150826002028217905092915050565b600061275e82612338565b91507fffffffffffffffffffffffffffffffffffffffffffffffffffffffffffffffff821415612791576127906127ba565b5b600182019050919050565b60006127ad6000198460080261299a565b1980831691505092915050565b7f4e487b7100000000000000000000000000000000000000000000000000000000600052601160045260246000fd5b7f4e487b7100000000000000000000000000000000000000000000000000000000600052602260045260246000fd5b7f4e487b7100000000000000000000000000000000000000000000000000000000600052604160045260246000fd5b6000819050919050565b6000819050919050565b6000819050919050565b6000813561287281612d28565b80915050919050565b6000813561288881612d3f565b80915050919050565b6000813561289e81612d56565b80915050919050565b680100000000000000008211156128c1576128c0612818565b5b6128ca81612204565b82825580831015612906576128de81612151565b6128e784612151565b6128f084612195565b8181018382016129008183612342565b50505050505b505050565b6801000000000000000082111561292557612924612818565b5b61292e81612225565b8282558083101561296a5761294281612166565b61294b84612166565b612954846121c4565b8181018382016129648183612388565b50505050505b505050565b6000601f19601f8301169050919050565b60008160001b9050919050565b600082821b905092915050565b600082821c905092915050565b6129af612d6d565b6129ba818484612d03565b505050565b7f496e76616c696420737461676500000000000000000000000000000000000000600082015250565b7f416c6c20706172746965732068617665206e6f7420617070726f766564000000600082015250565b7f4e6f7420696e6974696174696e67207061727479000000000000000000000000600082015250565b7f444149207472616e73666572206661696c656400000000000000000000000000600082015250565b7f496e697469616c697a61626c653a20636f6e747261637420697320616c72656160008201527f647920696e697469616c697a6564000000000000000000000000000000000000602082015250565b7f4e6f74206120706172747920746f2074686520636f6e74726163740000000000600082015250565b7f4e6f7420696e2065787065637465642073746167650000000000000000000000600082015250565b600060ff612b1184612980565b9350801983169250808416831791505092915050565b600073ffffffffffffffffffffffffffffffffffffffff612b4784612980565b9350801983169250808416831791505092915050565b60007fffffffffffffffffffffffffffffffffffffffffffffffffffffffffffffffff612b8984612980565b9350801983169250808416831791505092915050565b600060088302612bc373ffffffffffffffffffffffffffffffffffffffff8261298d565b612bcd868361298d565b95508019841693508086168417925050509392505050565b600060088302612c157fffffffffffffffffffffffffffffffffffffffffffffffffffffffffffffffff8261298d565b612c1f868361298d565b95508019841693508086168417925050509392505050565b612c40826123ab565b612c53612c4c82612847565b8354612b27565b8255505050565b612c65838383612405565b505050565b612c75838383612470565b505050565b612c83826123bd565b612c96612c8f82612851565b8354612b04565b8255505050565b612ca88383836124db565b505050565b612cb7828261261a565b5050565b612cc4826123f3565b612cd7612cd08261285b565b8354612b5d565b8255505050565b612ce7836123ab565b612cfb612cf382612847565b848454612b9f565b825550505050565b612d0c836123f3565b612d20612d188261285b565b848454612be5565b825550505050565b612d31816122fa565b8114612d3c57600080fd5b50565b612d488161230c565b8114612d5357600080fd5b50565b612d5f81612338565b8114612d6a57600080fd5b50565b60009056fea2646970667358221220a188451b381d32c20ee2da26e6ced855a2812ee1d83ce64172edaf1b04a6ffee64736f6c63430008020033",
  "immutableReferences": {
    "1705": [
      {
        "length": 32,
        "start": 344
      },
      {
        "length": 32,
        "start": 1344
      }
    ]
  },
  "source": "// SPDX-License-Identifier: MIT\r\npragma solidity ^0.8.2;\r\n\r\nimport \"@openzeppelin/contracts/token/ERC20/IERC20.sol\";\r\nimport \"@openzeppelin/contracts/proxy/Clones.sol\";\r\nimport \"./interfaces/IContractInit.sol\";\r\nimport \"./ContractController.sol\";\r\n\r\n/**\r\n * @title CMSB Contract Factory\r\n * @dev Create and view draft contracts\r\n */\r\n\r\ncontract ContractFactory is IContractInit {\r\n\r\n    address public immutable baseContract;\r\n    address public daiTokenAddress;\r\n\r\n    constructor(address _daiTokenAddress) {\r\n        daiTokenAddress = _daiTokenAddress;\r\n        baseContract = address(new ContractController());\r\n    }\r\n\r\n    BaseContractData[] public contractsList;\r\n\r\n    event createdNewDraftContract(uint);    \r\n\r\n    function getArraySum(uint[] memory array) private pure returns (uint) {\r\n        uint arraySum;\r\n        for (uint i=0; i < array.length; ++i) {\r\n            arraySum += array[i];\r\n        }\r\n        return arraySum;\r\n    }\r\n\r\n    function isPartyOf(address _partyAddress, uint _contractId) internal view returns (bool) {\r\n        bool isParty;\r\n        if (contractsList[_contractId].initiatingParty == _partyAddress) {\r\n            isParty = true;\r\n        } else {\r\n            for (uint i=0; i < contractsList[_contractId].parties.length; i++) {\r\n                if (contractsList[_contractId].parties[i] == _partyAddress) {\r\n                    isParty = true;\r\n                    break;\r\n                }\r\n            }\r\n        }\r\n        return isParty;\r\n    }\r\n\r\n    function getContractsCount() external view returns (uint) {\r\n        return contractsList.length;\r\n    }\r\n\r\n    function getMyContracts() external view returns (address[] memory) {\r\n        uint j = 0;\r\n        for (uint i=0; i < contractsList.length; ++i) {\r\n            if (isPartyOf(msg.sender, contractsList[i].id)) {\r\n                j++;\r\n            }\r\n        }\r\n        uint k=0;\r\n        address[] memory myContracts = new address[](j);\r\n        for (uint i=0; i < contractsList.length; ++i) {\r\n            if (isPartyOf(msg.sender, contractsList[i].id)) {\r\n                myContracts[k] = contractsList[i].contractAddress;\r\n                k++;\r\n            }\r\n        }\r\n        return myContracts;\r\n    }\r\n\r\n    function initiateContract(\r\n        CompleteContractData calldata _contractData\r\n    ) \r\n        external \r\n    {\r\n        address newContract = Clones.clone(baseContract);\r\n        contractsList.push(BaseContractData(contractsList.length, newContract, msg.sender, _contractData.parties));\r\n        ContractController(newContract).initialize(_contractData, daiTokenAddress);\r\n        if (_contractData.isPayable) {\r\n            bool success = IERC20(daiTokenAddress).transferFrom(msg.sender, newContract, getArraySum(_contractData.fundDistribution));\r\n            require(success, \"DAI transfer failed\");\r\n        }\r\n        emit createdNewDraftContract(contractsList.length-1);\r\n    }\r\n}",
  "sourcePath": "E:\\SOE CUSAT\\S6\\Mini-project\\Code\\CMSB\\truffle\\contracts\\ContractFactory.sol",
  "compiler": {
    "name": "solc",
    "version": "0.8.2+commit.661d1103.Emscripten.clang"
  },
  "schemaVersion": "3.4.5",
  "updatedAt": "2022-04-10T13:56:04.133Z",
  "networkType": "ethereum",
  "devdoc": {
    "details": "Create and view draft contracts",
    "kind": "dev",
    "methods": {},
    "title": "CMSB Contract Factory",
    "version": 1
  },
  "userdoc": {
    "kind": "user",
    "methods": {},
    "version": 1
  }
}